{
  "address": "0x9A9f2CCfdE556A7E9Ff0848998Aa4a0CFD8863AE",
  "abi": [
    {
      "inputs": [
        {
          "internalType": "uint256",
          "name": "colorInt",
          "type": "uint256"
        }
      ],
      "name": "GetBackgroundColorMetadata",
      "outputs": [
        {
          "internalType": "string",
          "name": "",
          "type": "string"
        }
      ],
      "stateMutability": "pure",
      "type": "function"
    },
    {
      "inputs": [
        {
          "internalType": "uint256",
          "name": "backgroundType",
          "type": "uint256"
        }
      ],
      "name": "GetBackgroundTypeMetadata",
      "outputs": [
        {
          "internalType": "string",
          "name": "",
          "type": "string"
        }
      ],
      "stateMutability": "pure",
      "type": "function"
    }
  ],
  "transactionHash": "0x9ec52fea4e46ef08d8d02017b3ca99018d0d503fa9713095f695fb4eb2c75ef6",
  "args": [],
  "solcInputHash": "85e067feac1cff56b87e612e32077d0a",
  "bytecode": "0x6080806040523461001a5761064d9081610020823930815050f35b600080fdfe6080604052600436101561001257600080fd5b60003560e01c8063a81f66ed146100565763e28b34df1461003257600080fd5b6100526100466100413661006a565b610481565b604051918291826100b6565b0390f35b6100526100466100653661006a565b61019a565b602090600319011261007c5760043590565b600080fd5b918091926000905b8282106100a157501161009a575050565b6000910152565b91508060209183015181860152018291610089565b604091602082526100d68151809281602086015260208686019101610081565b601f01601f1916010190565b90601f8019910116810190811067ffffffffffffffff82111761010457604052565b634e487b7160e01b600052604160045260246000fd5b604051906060820182811067ffffffffffffffff82111761010457604052602b8252565b61014661011a565b7f7b2274726169745f74797065223a224261636b67726f756e6420436f6c6f722260208201526a1610113b30b63ab2911d1160a91b604082015290565b9061019660209282815194859201610081565b0190565b6101a261013e565b90806101e757506101e46101c3916101d66040519384926020840190610183565b665768697465227d60c81b815260070190565b03601f1981018352826100e2565b90565b6001810361021c57506101e461020a916101d66040519384926020840190610183565b6547726179227d60d01b815260060190565b6002810361025357506101e461023f916101d66040519384926020840190610183565b674f72616e6765227d60c01b815260080190565b6003810361028857506101e4610276916101d66040519384926020840190610183565b6550696e6b227d60d01b815260060190565b600481036102bf57506101e46102ab916101d66040519384926020840190610183565b6759656c6c6f77227d60c01b815260080190565b600581036102fd57506101e46102e2916101d66040519384926020840190610183565b6e4272696768742059656c6c6f77227d60881b8152600f0190565b6006810361033357506101e4610320916101d66040519384926020840190610183565b66477265656e227d60c81b815260070190565b6007810361036857506101e4610356916101d66040519384926020840190610183565b65426c7565227d60d01b815260060190565b600881036103a257506101e461038b916101d66040519384926020840190610183565b6a4461726b20426c7565227d60a81b8152600b0190565b600981036103dc57506101e46103c5916101d66040519384926020840190610183565b6a4461726b2050696e6b227d60a81b8152600b0190565b600a1461040f576101e46103fd916101d66040519384926020840190610183565b654e6f6e65227d60d01b815260060190565b6101e4610429916101d66040519384926020840190610183565b66426c61636b227d60c81b815260070190565b61044461011a565b7f7b2274726169745f74797065223a20224261636b67726f756e6420547970652260208201526a1610113b30b63ab2911d1160a91b604082015290565b61048961043c565b90600a81036104c757506101e46104ad916101d66040519384926020840190610183565b6d4e61747572616c20576f6f64227d60901b8152600e0190565b600f810361050157506101e46104ea916101d66040519384926020840190610183565b6a4772617920576f6f64227d60a81b8152600b0190565b6014810361053c57506101e4610524916101d66040519384926020840190610183565b6b42617369632054696c65227d60a01b8152600c0190565b601981036105b457506101e4610562916101d66105796040519485936020850190610183565b6a436f6c6420416c7073227d60a81b8152600b0190565b7f2c7b2274726169745f74797065223a202248616e676564222c202276616c7565815268223a2254727565227d60b81b602082015260290190565b601e146105e8576101e46105d5916101d66040519384926020840190610183565b66506c61696e227d60c81b815260070190565b6101e4610605916101d66105796040519485936020850190610183565b65416c7073227d60d01b81526006019056fea2646970667358221220268eebd0c37066d76db9defdf106309bdc37a9a3041b516e6027a5abe23ef7de64736f6c634300080d0033",
  "devdoc": {
    "kind": "dev",
    "methods": {},
    "version": 1
  },
  "userdoc": {
    "kind": "user",
    "methods": {},
    "version": 1
  },
  "storageLayout": {
    "storage": [],
    "types": null
  }
}