{
  "address": "0xA51c1fc2f0D1a1b8494Ed1FE312d7C3a78Ed91C0",
  "abi": [
    {
      "inputs": [
        {
          "internalType": "uint256",
          "name": "currentPattern",
          "type": "uint256"
        }
      ],
      "name": "GetPattern",
      "outputs": [
        {
          "internalType": "string",
          "name": "",
          "type": "string"
        }
      ],
      "stateMutability": "pure",
      "type": "function"
    }
  ],
  "transactionHash": "0x0623b689e0be8dc5728c65ad2ca8c47fce0d290712f90a7ce408f99390796dd6",
  "args": [],
  "solcInputHash": "85e067feac1cff56b87e612e32077d0a",
  "bytecode": "0x6080806040523461001a576105419081610020823930815050f35b600080fdfe6080604052600436101561001257600080fd5b60003560e01c630722ef891461002757600080fd5b602036600319011261006f5761003e6004356101a8565b604080518092602082526100618151809281602086015260208686019101610074565b601f01601f19168101030190f35b600080fd5b918091926000905b82821061009457501161008d575050565b6000910152565b9150806020918301518186015201829161007c565b50634e487b7160e01b600052604160045260246000fd5b90601f8019910116810190811067ffffffffffffffff8211176100e257604052565b6100ea6100a9565b604052565b604051906020820182811067ffffffffffffffff821117610114575b60405260008252565b61011c6100a9565b61010b565b60208183031261006f57805167ffffffffffffffff9182821161006f57019082601f8301121561006f57815190811161018e575b6040519261016d601f8301601f1916602001856100c0565b8184526020828401011161006f5761018b9160208085019101610074565b90565b6101966100a9565b610155565b506040513d6000823e3d90fd5b80610213575060405163a96f1c6960e01b8152600081600481735FbDB2315678afecb367f032d93F642f64180aa35af4908115610206575b6000916101eb575090565b61018b913d8091833e6101fe81836100c0565b810190610121565b61020e61019b565b6101e0565b60018103610258575060405163a96f1c6960e01b815260008160048173e7f1725E7734CE288F8367e1Bb143E90bb3F05125af4908115610206576000916101eb575090565b6002810361029d575060405163a96f1c6960e01b8152600081600481739fE46736679d2D9a65F0992F2272dE9f3c7fa6e05af4908115610206576000916101eb575090565b600381036102e2575060405163a96f1c6960e01b815260008160048173Cf7Ed3AccA5a467e9e704C703E8D87F634fB0Fc95af4908115610206576000916101eb575090565b60049080820361032857506000604051809263a96f1c6960e01b82528173Dc64a140Aa3E981100a9becA4E685f962f0cF6C95af4908115610206576000916101eb575090565b6005810361036c57506000604051809263a96f1c6960e01b825281735FC8d32690cc91D4c39d9d3abcBD16989F8757075af4908115610206576000916101eb575090565b600681036103b057506000604051809263a96f1c6960e01b825281730165878A594ca255338adfa4d48449f69242Eb8F5af4908115610206576000916101eb575090565b600781036103f457506000604051809263a96f1c6960e01b82528173a513E6E4b8f2a923D98304ec87F64353C4D5C8535af4908115610206576000916101eb575090565b6008810361043857506000604051809263a96f1c6960e01b825281732279B7A0a67DB372996a5FaB50D91eAA73d2eBe65af4908115610206576000916101eb575090565b6009810361047c57506000604051809263a96f1c6960e01b825281738A791620dd6260079BF849Dc5567aDC3F2FdC3185af4908115610206576000916101eb575090565b600a81036104c057506000604051809263a96f1c6960e01b82528173610178dA211FEF7D417bC0e6FeD39F05609AD7885af4908115610206576000916101eb575090565b600b03610502576000604051809263a96f1c6960e01b82528173B7f8BC63BbcaD18155201308C8f3540b07f84F5e5af4908115610206576000916101eb575090565b5061018b6100ef56fea2646970667358221220248db6706a7adba13d34e8610f4f08da9c33e6d39a6c8b68f8376c8fba4a2d7664736f6c634300080d0033",
  "deployedBytecode": "0x6080604052600436101561001257600080fd5b60003560e01c630722ef891461002757600080fd5b602036600319011261006f5761003e6004356101a8565b604080518092602082526100618151809281602086015260208686019101610074565b601f01601f19168101030190f35b600080fd5b918091926000905b82821061009457501161008d575050565b6000910152565b9150806020918301518186015201829161007c565b50634e487b7160e01b600052604160045260246000fd5b90601f8019910116810190811067ffffffffffffffff8211176100e257604052565b6100ea6100a9565b604052565b604051906020820182811067ffffffffffffffff821117610114575b60405260008252565b61011c6100a9565b61010b565b60208183031261006f57805167ffffffffffffffff9182821161006f57019082601f8301121561006f57815190811161018e575b6040519261016d601f8301601f1916602001856100c0565b8184526020828401011161006f5761018b9160208085019101610074565b90565b6101966100a9565b610155565b506040513d6000823e3d90fd5b80610213575060405163a96f1c6960e01b815260008160048173__$3b823523b574a2febe2e1e43a92160c877$__5af4908115610206575b6000916101eb575090565b61018b913d8091833e6101fe81836100c0565b810190610121565b61020e61019b565b6101e0565b60018103610258575060405163a96f1c6960e01b815260008160048173__$f0930af758e332680a168b8a37f870f1cb$__5af4908115610206576000916101eb575090565b6002810361029d575060405163a96f1c6960e01b815260008160048173__$18894c7e98642358bafb4f96aaa476e286$__5af4908115610206576000916101eb575090565b600381036102e2575060405163a96f1c6960e01b815260008160048173__$c0b8a333edc9707c2e86768540521ca98b$__5af4908115610206576000916101eb575090565b60049080820361032857506000604051809263a96f1c6960e01b82528173__$7ace15007747a4e14ab0daea7bfef0f84d$__5af4908115610206576000916101eb575090565b6005810361036c57506000604051809263a96f1c6960e01b82528173__$30d14cca345a55515fe568b6515d224cde$__5af4908115610206576000916101eb575090565b600681036103b057506000604051809263a96f1c6960e01b82528173__$0af9b92c0f4f3021c360f5697ed4d887ef$__5af4908115610206576000916101eb575090565b600781036103f457506000604051809263a96f1c6960e01b82528173__$fdc5958c9d0f2a289e0ee45ba960feecd8$__5af4908115610206576000916101eb575090565b6008810361043857506000604051809263a96f1c6960e01b82528173__$77e5c00bc9f6f3b67493680dcdd1083bd7$__5af4908115610206576000916101eb575090565b6009810361047c57506000604051809263a96f1c6960e01b82528173__$95ceee603e06303d4cc2410c49deda99d5$__5af4908115610206576000916101eb575090565b600a81036104c057506000604051809263a96f1c6960e01b82528173__$cddfc1f16f47ea5463b7b70253a7288937$__5af4908115610206576000916101eb575090565b600b03610502576000604051809263a96f1c6960e01b82528173__$39a221e63db6870c72d3811771de4c416e$__5af4908115610206576000916101eb575090565b5061018b6100ef56fea2646970667358221220248db6706a7adba13d34e8610f4f08da9c33e6d39a6c8b68f8376c8fba4a2d7664736f6c634300080d0033",
  "libraries": {
    "BonePattern": "0x5FbDB2315678afecb367f032d93F642f64180aa3",
    "ChilliPattern": "0xe7f1725E7734CE288F8367e1Bb143E90bb3F0512",
    "CloudPattern": "0x9fE46736679d2D9a65F0992F2272dE9f3c7fa6e0",
    "FirePattern": "0xCf7Ed3AccA5a467e9e704C703E8D87F634fB0Fc9",
    "HeartBreakPattern": "0xDc64a140Aa3E981100a9becA4E685f962f0cF6C9",
    "HeartPattern": "0x5FC8d32690cc91D4c39d9d3abcBD16989F875707",
    "LemonPattern": "0x0165878A594ca255338adfa4d48449f69242Eb8F",
    "LightingPattern": "0xa513E6E4b8f2a923D98304ec87F64353C4D5C853",
    "MultiplePattern": "0x2279B7A0a67DB372996a5FaB50D91eAA73d2eBe6",
    "StarPattern": "0x8A791620dd6260079BF849Dc5567aDC3F2FdC318",
    "StripePattern": "0x610178dA211FEF7D417bC0e6FeD39F05609AD788",
    "UfoPattern": "0xB7f8BC63BbcaD18155201308C8f3540b07f84F5e"
  },
  "devdoc": {
    "kind": "dev",
    "methods": {},
    "version": 1
  },
  "userdoc": {
    "kind": "user",
    "methods": {},
    "version": 1
  },
  "storageLayout": {
    "storage": [],
    "types": null
  }
}