{
  "address": "0x0B306BF915C4d645ff596e518fAf3F9669b97016",
  "abi": [
    {
      "inputs": [
        {
          "internalType": "uint256",
          "name": "currentPin",
          "type": "uint256"
        }
      ],
      "name": "GetPinMetadata",
      "outputs": [
        {
          "internalType": "string",
          "name": "",
          "type": "string"
        }
      ],
      "stateMutability": "pure",
      "type": "function"
    }
  ],
  "transactionHash": "0x113ff80bbe70178cc0d55a0e7a17e886995eabab33c146690b973b19b4370ae7",
  "args": [],
  "solcInputHash": "85e067feac1cff56b87e612e32077d0a",
  "bytecode": "0x6080806040523461001a576104b79081610020823930815050f35b600080fdfe6080604052600436101561001257600080fd5b60003560e01c634ca9351e1461002757600080fd5b602036600319011261006f5761003e60043561015e565b604080518092602082526100618151809281602086015260208686019101610074565b601f01601f19168101030190f35b600080fd5b918091926000905b82821061009457501161008d575050565b6000910152565b9150806020918301518186015201829161007c565b50634e487b7160e01b600052604160045260246000fd5b90601f8019910116810190811067ffffffffffffffff8211176100e257604052565b6100ea6100a9565b604052565b604051906040820182811067ffffffffffffffff82111761013a575b604052601e82527f7b2274726169745f74797065223a2250696e222c202276616c7565223a2200006020830152565b6101426100a9565b61010b565b9061015a60209282815194859201610074565b0190565b6101666100ef565b90806101ae57506101ab6101879161019d6040519384926020840190610147565b694c69676874696e67227d60b01b8152600a0190565b03601f1981018352826100c0565b90565b600181036101e457506101ab6101d19161019d6040519384926020840190610147565b66416c69656e227d60c81b815260070190565b6002810361020757506101ab6101d19161019d6040519384926020840190610147565b6003810361023d57506101ab61022a9161019d6040519384926020840190610147565b66436c6f7564227d60c81b815260070190565b6004810361027357506101ab6102609161019d6040519384926020840190610147565b664865617274227d60c81b815260070190565b600581036102aa57506101ab6102969161019d6040519384926020840190610147565b67466c6f776572227d60c01b815260080190565b600681036102df57506101ab6102cd9161019d6040519384926020840190610147565b6553746172227d60d01b815260060190565b6007810361031557506101ab6103029161019d6040519384926020840190610147565b66536b756c6c227d60c81b815260070190565b6008810361034a57506101ab6103389161019d6040519384926020840190610147565b6546726f67227d60d01b815260060190565b6009810361037f57506101ab61036d9161019d6040519384926020840190610147565b6542656172227d60d01b815260060190565b600a81036103b657506101ab6103a29161019d6040519384926020840190610147565b674368696c6c69227d60c01b815260080190565b600b81036103ec57506101ab6103d99161019d6040519384926020840190610147565b66536861726b227d60c81b815260070190565b600c810361042257506101ab61040f9161019d6040519384926020840190610147565b66446576696c227d60c81b815260070190565b600d03610455576101ab6104439161019d6040519384926020840190610147565b6546697265227d60d01b815260060190565b6101ab61046f9161019d6040519384926020840190610147565b654e6f6e65227d60d01b81526006019056fea26469706673582212209a440c0545afc9c1755113ec342263bd66458839b8a77359f6d9127226bd052264736f6c634300080d0033",
  "devdoc": {
    "kind": "dev",
    "methods": {},
    "version": 1
  },
  "userdoc": {
    "kind": "user",
    "methods": {},
    "version": 1
  },
  "storageLayout": {
    "storage": [],
    "types": null
  }
}