{
  "address": "0xB7f8BC63BbcaD18155201308C8f3540b07f84F5e",
  "abi": [
    {
      "inputs": [],
      "name": "pattern",
      "outputs": [
        {
          "internalType": "string",
          "name": "",
          "type": "string"
        }
      ],
      "stateMutability": "pure",
      "type": "function"
    }
  ],
  "transactionHash": "0x18b83236da89f49339eaefb1c4fc62a1fa9e4636f5b32a2ea73e056c38724384",
  "args": [],
  "solcInputHash": "85e067feac1cff56b87e612e32077d0a",
  "bytecode": "0x6080806040523461001b57615f53908162000021823930815050f35b600080fdfe608080604052600436101561001357600080fd5b60003560e01c63a96f1c691461002857600080fd5b6000366003190112615e695780615e5981615e4b615e36615e26615de96153476101de6109006151556106f76106e0614f656104d5615e659f614ee26144426101de6109006142506106f76106e06140606104d561401a613fdd61354f6101de610900613361614f1f9f6106e06131756104d56131306130f361265b6101de61090061246b6106f76106e061227d6104d56122386121fb6106f79f6101de61090061156c6106f76106e061137b6104d56113366112f96109256101de61090061073a6106f76106e061175f9f6104d56104906104676104546104316101f36101de61014e602061051c99016028907f20202020203c67207472616e73666f726d3d227472616e736c61746528323330815267161019989814911f60c11b60208201520190565b7f3c6d61736b2069643d226d61736b305f3130395f373522207374796c653d226d81527f61736b2d747970653a616c70686122206d61736b556e6974733d22757365725360208201527f706163654f6e5573652220783d2236302220793d223935222077696474683d226040820152711a9b9b11103432b4b3b43a1e911a189b911f60711b606082015260720190565b6804040404078e0c2e8d60bb1b815260090190565b7f2020202020202020643d224d3431322e353939203531312e313233433432372e81527f303834203430372e373839203530342e3432203339332e373431203534312e3260208201527f3738203339392e3633344c3539382e313138203237342e39394c3633352e313060408201527f37203139332e383738433531382e373039203230352e323136203434332e323160608201527f35203133332e323132203432302e3031382039352e373933314c3430372e373960808201527f33203132322e3630324c3335332e313036203234322e353234433334302e373860a08201527f39203236392e353333203331342e353239203238372e353032203238342e383960c08201527f32203238392e324c3135372e353133203239362e3439374c3131352e3032203260e08201527f39382e3933314c37342e36373838203330312e3234324337332e3832383920336101008201527f30312e32392037332e34303032203330322e3239312037332e393735372033306101208201527f322e393138433130362e343231203333382e323832203134372e3635342034326101408201527f322e3739312036302e37353135203438382e3039374336352e353230352034396101608201527f302e3932203132312e383534203439352e333133203139332e313637203439396101808201527f2e363938433236332e343334203530342e303138203334382e323435203530386101a0820152751719991c901a1899171a9c9c901a989897189919ad1160511b6101c08201526101d60190565b7610101010101010103334b6361e91313630b1b59110179f60491b815260170190565b661e17b6b0b9b59f60c91b815260070190565b7f3c67206d61736b3d2275726c28236d61736b305f3130395f373529223e0000008152601d0190565b7f202020203c6d61736b2069643d22706174682d322d696e736964652d315f31308152721caf9b9a91103334b6361e913bb434ba32911f60691b602082015260330190565b7f20202020202020203c706174682066696c6c2d72756c653d226576656e6f6464815274111031b634b816b93ab6329e9132bb32b737b2321160591b602082015260350190565b7f202020643d224d3539362e313632203235382e363739433631332e343520323681527f302e30323120363236203236342e30333620363236203236382e37383143363260208201527f36203237332e373038203631322e343732203237372e383438203539342e313560408201527f38203237392e303235433539312e333431203238312e373139203538372e353260608201527f33203238332e333733203538332e333138203238332e333733433537392e303960808201527f39203238332e333733203537352e3237203238312e373038203537322e34352060a08201527f3237382e393939433535342e333336203237372e37383920353431203237332e60c08201527f36373320353431203236382e37383143353431203236342e303731203535332e60e08201527f333633203236302e3038203537302e343532203235382e3731433537332e32386101008201527f38203235342e363533203537372e39393320323532203538332e3331382032356101208201527f32433538382e36323920323532203539332e333234203235342e3634203539366101408201527017189b1910191a9c171b1b9cad1110179f60791b6101608201526101710190565b6a101010101e17b6b0b9b59f60a91b8152600b0190565b7f202020203c706174682066696c6c2d72756c653d226576656e6f64642220636c81527034b816b93ab6329e9132bb32b737b2321160791b602082015260310190565b7f2020202020202020643d224d3539362e313632203235382e363739433631332e81527f3435203236302e30323120363236203236342e30333620363236203236382e3760208201527f383143363236203237332e373038203631322e343732203237372e383438203560408201527f39342e313538203237392e303235433539312e333431203238312e373139203560608201527f38372e353233203238332e333733203538332e333138203238332e333733433560808201527f37392e303939203238332e333733203537352e3237203238312e37303820353760a08201527f322e3435203237382e393939433535342e333336203237372e3738392035343160c08201527f203237332e36373320353431203236382e37383143353431203236342e30373160e08201527f203535332e333633203236302e3038203537302e343532203235382e373143356101008201527f37332e323838203235342e363533203537372e39393320323532203538332e336101208201527f313820323532433538382e36323920323532203539332e333234203235342e36610140820152721a101a9c9b17189b1910191a9c171b1b9cad1160691b6101608201526101730190565b7810101010101010103334b6361e9111a21ca21ca21c9110179f60391b815260190190565b7f2020202020202020643d224d3539362e313632203235382e3637394c3539322e81527f383839203236302e3937394c3539332e393733203236322e3532314c3539352e60208201527f383533203236322e3636374c3539362e313632203235382e3637395a4d35393460408201527f2e313538203237392e3032354c3539332e393031203237352e3033334c35393260608201527f2e343437203237352e3132374c3539312e333933203237362e3133344c35393460808201527f2e313538203237392e3032355a4d3537322e3435203237382e3939394c35373560a08201527f2e323232203237362e3131354c3537342e313731203237352e3130364c35373260c08201527f2e373137203237352e3030384c3537322e3435203237382e3939395a4d35373060e08201527f2e343532203235382e37314c3537302e373732203236322e3639374c3537322e6101008201527f3635203236322e3534364c3537332e3733203236312e3030314c3537302e34356101208201527f32203235382e37315a4d3539352e383533203236322e363637433630342e33316101408201527f34203236332e333234203631312e343232203236342e363234203631362e33206101608201527f3236362e323439433631382e373634203236372e303639203632302e343320326101808201527f36372e383939203632312e333938203236382e363131433632322e34353920326101a08201527f36392e33393220363232203236392e34393220363232203236382e37383148366101c08201527f333043363330203236352e363938203632372e393733203236332e35313720366101e08201527f32362e3134203236322e313638433632342e323135203236302e3735312036326102008201527f312e363633203235392e363033203631382e383238203235382e3635394336316102208201527f332e3131203235362e373534203630352e323939203235352e333736203539366102408201527f2e343731203235342e3639314c3539352e383533203236322e3636375a4d36326102608201527f32203236382e37383143363232203236382e303437203632322e3438332032366102808201527f382e313836203632312e3239203236392e303239433632302e323135203236396102a08201527f2e373839203631382e333932203237302e363535203631352e373338203237316102c08201527f2e343936433631302e343832203237332e313632203630322e3837203237342e6102e08201527f343537203539332e393031203237352e3033334c3539342e343135203238332e6103008201527f303137433630332e3736203238322e343136203631322e303639203238312e306103208201527f3532203631382e313536203237392e313232433632312e313733203237382e316103408201527f3635203632332e383736203237362e393939203632352e3931203237352e35366103608201527f433632372e383236203237342e32303520363330203237312e393739203633306103808201527f203236382e373831483632325a4d3539312e333933203237362e3133344335386103a08201527f392e323931203237382e313435203538362e343532203237392e3337332035386103c08201527f332e333138203237392e333733563238372e333733433538382e3539332032386103e08201527f372e333733203539332e333931203238352e323933203539362e3932332032386104008201527f312e3931364c3539312e333933203237362e3133345a4d3538332e33313820326104208201527f37392e333733433538302e313733203237392e333733203537372e33323620326104408201527f37382e313337203537352e323232203237362e3131354c3536392e36373920326104608201527f38312e383834433537332e323133203238352e3238203537382e3032352032386104808201527f372e333733203538332e333138203238372e333733563237392e3337335a4d356104a08201527f37322e373137203237352e303038433536332e383437203237342e34313520356104c08201527f35362e333333203237332e313139203535312e313532203237312e34363143356104e08201527f34382e353335203237302e363233203534362e373432203236392e37363520356105008201527f34352e363838203236392e303134433534342e353232203236382e31383220356105208201527f3435203236382e30353120353435203236382e373831483533374335333720326105408201527f37312e393537203533392e313435203237342e313734203534312e30343520326105608201527f37352e353239433534332e303538203237362e393633203534352e37333120326105808201527f37382e313236203534382e373133203237392e3038433535342e3732382032386105a08201527f312e303035203536322e393339203238322e333733203537322e3138342032386105c08201527f322e3939314c3537322e373137203237352e3030385a4d353435203236382e376105e08201527f383143353435203236392e343837203534342e353436203236392e33393420356106008201527f34352e353832203236382e363236433534362e3533203236372e3932332035346106208201527f382e313635203236372e313031203535302e353933203236362e3238354335356106408201527f352e333939203236342e363638203536322e343039203236332e3336382035376106608201527f302e373732203236322e3639374c3537302e313332203235342e3732324335366106808201527f312e343036203235352e343232203535332e3639203235362e383033203534386106a08201527f2e303433203235382e373032433534352e323433203235392e363433203534326106c08201527f2e3732203236302e373838203534302e383136203236322e323031433533382e6106e08201527f393939203236332e35343820353337203236352e373220353337203236382e376107008201527f3831483534355a4d3537332e3733203236312e303031433537352e38352032356107208201527f372e3937203537392e33353420323536203538332e33313820323536563234386107408201527f433537362e36333220323438203537302e373235203235312e333337203536376107608201527f2e313733203235362e3431384c3537332e3733203236312e3030315a4d3538336107808201527f2e33313820323536433538372e32373120323536203539302e373638203235376107a08201527f2e3936203539322e383839203236302e3937394c3539392e343335203235362e6107c08201527f3338433539352e3838203235312e3332203538392e39383720323438203538336107e08201526d1719989c10191a1c2b191a9b2d1160911b61080082015261080e0190565b600080516020615efe83398151915281527f706174682d322d696e736964652d315f3130395f37352922202f3e00000000006020820152603b0190565b7f202020203c6d61736b2069643d22706174682d342d696e736964652d325f31308152721caf9b9a91103334b6361e913bb434ba32911f60691b602082015260330190565b7f202020643d224d3435352e373634203135342e343533433435342e363034203181527f33372e313532203435362e373732203132342e313535203436312e343638203160208201527f32332e343732433436362e333433203132322e373633203437322e333837203160408201527f33352e353535203437362e313837203135332e353038433437392e323538203160608201527f35352e393038203438312e343435203135392e343439203438322e303520313660808201527f332e3631433438322e363537203136372e373835203438312e3536203137312e60a08201527f383134203437392e323835203137342e393934433438302e363934203139332e60c08201527f303934203437382e353339203230362e383833203437332e363939203230372e60e08201527f353837433436392e303338203230382e323635203436332e3331203139362e366101008201527f3035203435392e343934203137392e383931433435352e303732203137372e366101208201527f3639203435312e373639203137332e333934203435312e303033203136382e316101408201527f3235433435302e323339203136322e383639203435322e313735203135372e38610160820152761a19901a1a9a971b9b1a10189a9a171a1a99ad1110179f60491b6101808201526101970190565b7f2020202020202020643d224d3435352e373634203135342e343533433435342e81527f363034203133372e313532203435362e373732203132342e313535203436312e60208201527f343638203132332e343732433436362e333433203132322e373633203437322e60408201527f333837203133352e353535203437362e313837203135332e353038433437392e60608201527f323538203135352e393038203438312e343435203135392e343439203438322e60808201527f3035203136332e3631433438322e363537203136372e373835203438312e353660a08201527f203137312e383134203437392e323835203137342e393934433438302e36393460c08201527f203139332e303934203437382e353339203230362e383833203437332e36393960e08201527f203230372e353837433436392e303338203230382e323635203436332e3331206101008201527f3139362e363035203435392e343934203137392e383931433435352e303732206101208201527f3137372e363639203435312e373639203137332e333934203435312e303033206101408201527f3136382e313235433435302e323339203136322e383639203435322e3137352061016082015278189a9b971c1a19901a1a9a971b9b1a10189a9a171a1a99ad1160391b6101808201526101990190565b7f2020202020202020643d224d3435352e373634203135342e3435334c3435382e81527f353131203135372e3336314c3435392e383832203135362e3036364c3435392e60208201527f373535203135342e3138354c3435352e373634203135342e3435335a4d34373660408201527f2e313837203135332e3530384c3437322e323734203135342e3333374c34373260608201527f2e353735203135352e3736334c3437332e373234203135362e36364c3437362e60808201527f313837203135332e3530385a4d3437392e323835203137342e3939344c34373660a08201527f2e303332203137322e3636364c3437352e313834203137332e3835314c34373560c08201527f2e323937203137352e3330344c3437392e323835203137342e3939345a4d343560e08201527f392e343934203137392e3839314c3436332e333934203137392e3030314c34366101008201527f322e393734203137372e3136334c3436312e3239203137362e3331374c3435396101208201527f2e343934203137392e3839315a4d3435392e373535203135342e3138354334356101408201527f392e313837203134352e373138203435392e343531203133382e3439372034366101608201527f302e333537203133332e343335433436302e383135203133302e3837392034366101808201527f312e333936203132392e313131203436312e393631203132382e3035433436326101a08201527f2e353831203132362e383839203436322e373437203132372e333238203436326101c08201527f2e303433203132372e34334c3436302e383932203131392e353133433435372e6101e08201527f383431203131392e393537203435352e393734203132322e323737203435342e6102008201527f393033203132342e323835433435332e373738203132362e333934203435332e6102208201527f303039203132392e303835203435322e343832203133322e303236433435312e6102408201527f343231203133372e393539203435312e313831203134352e383837203435312e6102608201527f373733203135342e3732314c3435392e373535203135342e3138355a4d3436326102808201527f2e303433203132372e3433433436312e333136203132372e353336203436312e6102a08201527f333834203132372e303338203436322e3339203132382e303937433436332e326102c08201527f3938203132392e303531203436342e343136203133302e373331203436352e366102e08201527f3331203133332e323337433436382e303336203133382e313938203437302e346103008201527f3133203134352e353435203437322e323734203135342e3333374c3438302e316103208201527f203135322e3638433437382e313631203134332e353138203437352e363135206103408201527f3133352e343932203437322e3833203132392e373437433437312e34343920316103608201527f32362e383938203436392e393035203132342e333931203436382e31383920316103808201527f32322e353836433436362e353732203132302e383834203436342e30353620316103a08201527f31392e303533203436302e383932203131392e3531334c3436322e30343320316103c08201527f32372e34335a4d3437332e373234203135362e3636433437362e3031362031356103e08201527f382e343531203437372e3634203136312e303834203437382e303931203136346104008201527f2e3138364c3438362e303038203136332e303335433438352e323439203135376104208201527f2e383134203438322e35203135332e333635203437382e3635203135302e33356104408201527f374c3437332e373234203135362e36365a4d3437382e303931203136342e31386104608201527f36433437382e353434203136372e323938203437372e3733203137302e3239336104808201527f203437362e303332203137322e3636364c3438322e353338203137372e3332316104a08201527f433438352e3339203137332e333335203438362e3737203136382e32373220346104c08201527f38362e303038203136332e3033354c3437382e303931203136342e3138365a4d6104e08201527f3437352e323937203137352e333034433437352e393837203138342e313637206105008201527f3437352e373835203139312e373839203437342e3839203139372e31353643346105208201527f37342e343338203139392e383636203437332e383436203230312e37363320346105408201527f37332e323534203230322e393134433437322e36203230342e313838203437326105608201527f2e343031203230332e373334203437332e313233203230332e3632394c3437346105808201527f2e323734203231312e353436433437372e343137203231312e303839203437396105a08201527f2e333033203230382e363437203438302e333639203230362e353731433438316105c08201527f2e343939203230342e333733203438322e323635203230312e3536203438322e6105e08201527f373831203139382e343733433438332e3832203139322e323434203438332e396106008201527f3932203138332e393231203438332e323733203137342e3638334c3437352e326106208201527f3937203137352e3330345a4d3437332e313233203230332e363239433437332e6106408201527f383232203230332e353237203437332e373935203230332e3939203437322e386106608201527f3836203230332e303735433437322e303534203230322e323339203437312e306106808201527f3035203230302e373338203436392e383438203139382e343534433436372e356106a08201527f3537203139332e3933203436352e323631203138372e3138203436332e3339346106c08201527f203137392e3030314c3435352e353934203138302e373831433435372e3534336106e08201527f203138392e333136203436302e303139203139362e373533203436322e3731316107008201527f203230322e303638433436342e303436203230342e373033203436352e3534316107208201527f203230372e303335203436372e323133203230382e373137433436382e3830386107408201527f203231302e3332203437312e323435203231312e393836203437342e323734206107608201527f3231312e3534364c3437332e313233203230332e3632395a4d3436312e3239206107808201527f3137362e333137433435372e393835203137342e363536203435352e353332206107a08201527f3137312e343732203435342e393631203136372e3534394c3434372e303435206107c08201527f3136382e37433434382e303037203137352e333137203435322e3135392031386107e08201527f302e363831203435372e363938203138332e3436354c3436312e3239203137366108008201527f2e3331375a4d3435342e393631203136372e353439433435342e3339322031366108208201527f332e363337203435352e383238203135392e383934203435382e3531312031356108408201527f372e3336314c3435332e303138203135312e353435433434382e3532322031356108608201527f352e373931203434362e303835203136322e31203434372e303435203136382e610880820152721ba61a1a9a171c9b1890189b1b971a9a1cad1160691b6108a08201526108b30190565b600080516020615efe83398151915281527f706174682d342d696e736964652d325f3130395f37352922202f3e00000000006020820152603b0190565b7f202020203c6d61736b2069643d22706174682d362d696e736964652d335f31308152721caf9b9a91103334b6361e913bb434ba32911f60691b602082015260330190565b7f202020643d224d3336362e3732203236302e343437433338322e32333320323581527f322e363939203339352e3036203234392e363833203339372e3530322032353360208201527f2e373531433430302e303338203235372e393735203339302e3537203236382e60408201527f343838203337352e343734203237382e393233433337342e343435203238322e60608201527f363832203337322e303233203238362e303636203336382e343137203238382e60808201527f3233433336342e383031203239302e343031203336302e3636203239302e393460a08201527f35203335362e383439203239302e303733433334302e363935203239382e333560c08201527f38203332372e313432203330312e363933203332342e363235203239372e343960e08201527f39433332322e323031203239332e343631203333302e373437203238332e36376101008201527f36203334342e363933203237332e373036433334352e303336203236382e37366101208201527f38203334372e373035203236342e303732203335322e3237203236312e3333316101408201527f433335362e383234203235382e353938203336322e323038203235382e3434356101608201527310199b1b171b9910191b18171a1a1bad1110179f60611b6101808201526101940190565b7f2020202020202020643d224d3336362e3732203236302e343437433338322e3281527f3333203235322e363939203339352e3036203234392e363833203339372e353060208201527f32203235332e373531433430302e303338203235372e393735203339302e353760408201527f203236382e343838203337352e343734203237382e393233433337342e34343560608201527f203238322e363832203337322e303233203238362e303636203336382e34313760808201527f203238382e3233433336342e383031203239302e343031203336302e3636203260a08201527f39302e393435203335362e383439203239302e303733433334302e363935203260c08201527f39382e333538203332372e313432203330312e363933203332342e363235203260e08201527f39372e343939433332322e323031203239332e343631203333302e37343720326101008201527f38332e363736203334342e363933203237332e373036433334352e30333620326101208201527f36382e373638203334372e373035203236342e303732203335322e32372032366101408201527f312e333331433335362e383234203235382e353938203336322e323038203235610160820152751c171a1a1a90199b1b171b9910191b18171a1a1bad1160511b6101808201526101960190565b7f2020202020202020643d224d3336362e3732203236302e3434374c3336352e3081527f3938203236342e3130334c3336362e383231203236342e3836384c3336382e3560208201527f3038203236342e3032364c3336362e3732203236302e3434375a4d3337352e3460408201527f3734203237382e3932334c3337332e313939203237352e3633324c333732203260608201527f37362e3436314c3337312e363136203237372e3836374c3337352e343734203260808201527f37382e3932335a4d3335362e383439203239302e3037334c3335372e3734312060a08201527f3238362e3137344c3335362e3332203238352e3834394c3335352e303233203260c08201527f38362e3531344c3335362e383439203239302e3037335a4d3334342e3639332060e08201527f3237332e3730364c3334372e303139203237362e39364c3334382e35353220326101008201527f37352e3836344c3334382e363833203237332e3938334c3334342e36393320326101208201527f37332e3730365a4d3336382e353038203236342e303236433337362e312032366101408201527f302e323334203338322e383633203235372e3639203338372e383832203235366101608201527f2e353732433339302e343137203235362e303038203339322e323732203235356101808201527f2e383631203339332e343639203235352e393734433339342e3738203235362e6101a08201527f303937203339342e343339203235362e3432203339342e303733203235352e386101c08201527f314c3430302e393332203235312e363933433339392e333435203234392e30346101e08201527f39203339362e343834203234382e323232203339342e323138203234382e30306102008201527f39433339312e383338203234372e373835203338392e303539203234382e31316102208201527f34203338362e313433203234382e373634433338302e3236203235302e3037346102408201527f203337322e383534203235322e393133203336342e393333203235362e3836396102608201527f4c3336382e353038203236342e3032365a4d3339342e303733203235352e38316102808201527f433339332e363935203235352e3138203339342e3138203235352e30353120336102a08201527f39332e353932203235362e333838433339332e303631203235372e35393320336102c08201527f39312e393433203235392e323733203339302e313031203236312e33363143336102e08201527f38362e343532203236352e343934203338302e353932203237302e35323220336103008201527f37332e313939203237352e3633324c3337372e373438203238322e32313343336103208201527f38352e343532203237362e383838203339312e383733203237312e34343220336103408201527f39362e303939203236362e363535433339382e313933203236342e32383220336103608201527f39392e393131203236312e3839203430302e393134203235392e3631433430316103808201527f2e3836203235372e343632203430322e353738203235342e343334203430302e6103a08201527f393332203235312e3639334c3339342e303733203235352e38315a4d3337312e6103c08201527f363136203237372e383637433337302e383438203238302e363733203336392e6103e08201527f303436203238332e313837203336362e333539203238342e3830314c3337302e6104008201527f343736203239312e3636433337342e393939203238382e393434203337382e306104208201527f3432203238342e363931203337392e333332203237392e3937384c3337312e366104408201527f3136203237372e3836375a4d3336362e333539203238342e383031433336332e6104608201527f363633203238362e343139203336302e353835203238362e383234203335372e6104808201527f373431203238362e3137344c3335352e393537203239332e393733433336302e6104a08201527f373335203239352e303635203336352e393338203239342e333834203337302e6104c08201527f343736203239312e36364c3336362e333539203238342e3830315a4d3335352e6104e08201527f303233203238362e353134433334372e313134203239302e353731203334302e6105008201527f303034203239332e333237203333342e373038203239342e353732433333322e6105208201527f303333203239352e323031203333302e303534203239352e333837203332382e6105408201527f373634203239352e323836433332372e333336203239352e313733203332372e6105608201527f363739203239342e383135203332382e303534203239352e34344c3332312e316105808201527f3935203239392e353538433332322e3833203330322e323831203332352e38316105a08201527f203330332e303738203332382e313336203330332e323631433333302e3620336105c08201527f30332e343535203333332e343931203330332e303736203333362e35333820336105e08201527f30322e3336433334322e363836203330302e393135203335302e3433203239376106008201527f2e383631203335382e363734203239332e3633324c3335352e303233203238366106208201527f2e3531345a4d3332382e303534203239352e3434433332382e343138203239366106408201527f2e303436203332372e393831203239362e313939203332382e343733203239356106608201527f2e303038433332382e393234203239332e393137203332392e393033203239326106808201527f2e333731203333312e353634203239302e343232433333342e383533203238366106a08201527f2e353632203334302e313935203238312e383339203334372e303139203237366106c08201527f2e39364c3334322e333636203237302e343532433333352e323435203237352e6106e08201527f353433203332392e3334203238302e363938203332352e343735203238352e326107008201527f3333433332332e3536203238372e343831203332312e393836203238392e37366107208201527f31203332312e3038203239312e393532433332302e323136203239342e3034326107408201527f203331392e3632203239362e393333203332312e313935203239392e3535384c6107608201527f3332382e303534203239352e34345a4d3334382e363833203237332e393833436107808201527f3334382e3934203237302e323933203335302e3933203236362e3830312033356107a08201527f342e333239203236342e3736314c3335302e323131203235372e3930324333346107c08201527f342e343739203236312e333433203334312e313332203236372e3234342033346107e08201527f302e373032203237332e3432384c3334382e363833203237332e3938335a4d336108008201527f35342e333239203236342e373631433335372e373139203236322e37323620336108208201527f36312e373235203236322e363036203336352e303938203236342e3130334c336108408201527f36382e333433203235362e373931433336322e363931203235342e32383320336108608201527f35352e3933203235342e343639203335302e323131203235372e3930324c33356108808201526e1a1719991c90191b1a171b9b18ad1160891b6108a08201526108af0190565b600080516020615efe83398151915281527f706174682d362d696e736964652d335f3130395f37352922202f3e00000000006020820152603b0190565b7f202020203c6d61736b2069643d22706174682d382d696e736964652d345f31308152721caf9b9a91103334b6361e913bb434ba32911f60691b602082015260330190565b7f202020643d224d3132312e353039203239362e3335433130362e31323220323881527f382e3335342039332e33343539203238352e3133322039302e3833383620323860208201527f392e31364338382e32333535203239332e3334332039372e353333352033303460408201527f2e303036203131322e3436203331342e363832433131332e343238203331382e60608201527f343538203131352e373936203332312e3838203131392e333636203332342e3160808201527f3032433132322e393437203332362e333331203132372e303739203332362e3960a08201527f3431203133302e393033203332362e3133433134362e393233203333342e363760c08201527f34203136302e3432203333382e323236203136332e303034203333342e30373360e08201527f433136352e343933203333302e303734203135372e313035203332302e3135336101008201527f203134332e333231203330392e3936433134332e303537203330352e303138206101208201527f3134302e343634203330302e323739203133352e393433203239372e343636436101408201527f3133312e343334203239342e363539203132362e303533203239342e34322031610160820152711918971a981c90191c9b17199aad1110179f60711b6101808201526101920190565b7f2020202020202020643d224d3132312e353039203239362e3335433130362e3181527f3232203238382e3335342039332e33343539203238352e3133322039302e383360208201527f3836203238392e31364338382e32333535203239332e3334332039372e35333360408201527f35203330342e303036203131322e3436203331342e363832433131332e34323860608201527f203331382e343538203131352e373936203332312e3838203131392e3336362060808201527f3332342e313032433132322e393437203332362e333331203132372e3037392060a08201527f3332362e393431203133302e393033203332362e3133433134362e393233203360c08201527f33342e363734203136302e3432203333382e323236203136332e30303420333360e08201527f342e303733433136352e343933203333302e303734203135372e3130352033326101008201527f302e313533203134332e333231203330392e3936433134332e303537203330356101208201527f2e303138203134302e343634203330302e323739203133352e393433203239376101408201527f2e343636433133312e343334203239342e363539203132362e3035332032393461016082015273171a1910189918971a981c90191c9b17199aad1160611b6101808201526101940190565b7f2020202020202020643d224d3132312e353039203239362e33354c3132332e3081527f3733203330302e3033314c3132312e333337203330302e3736384c3131392e3660208201527f3634203239392e3839394c3132312e353039203239362e33355a4d3131322e3460408201527f36203331342e3638324c3131342e373837203331312e3432394c3131352e393760608201527f33203331322e3237374c3131362e333335203331332e3638394c3131322e343660808201527f203331342e3638325a4d3133302e393033203332362e31334c3133302e30373460a08201527f203332322e3231374c3133312e35203332312e3931354c3133322e373836203360c08201527f32322e3630314c3133302e393033203332362e31335a4d3134332e333231203360e08201527f30392e39364c3134302e393433203331332e3137374c3133392e3432372033316101008201527f322e3035364c3133392e333237203331302e3137344c3134332e3332312033306101208201527f392e39365a4d3131392e363634203239392e383939433131322e3133342032396101408201527f352e393836203130352e343132203239332e333334203130302e3431322032396101608201527f322e3133364339372e38383634203239312e3533312039362e303334203239316101808201527f2e3335342039342e38333536203239312e3434384339332e35323238203239316101a08201527f2e35352039332e383539203239312e3837382039342e32333437203239312e326101c08201527f37344c38372e34343236203238372e3034374338392e30373139203238342e346101e08201527f32392039312e39343533203238332e3634392039342e32313432203238332e346102008201527f37324339362e35393734203238332e3238362039392e33373038203238332e366102208201527f36203130322e323736203238342e333536433130382e313337203238352e37366102408201527f31203131352e343937203238382e373138203132332e333533203239322e384c6102608201527f3131392e363634203239392e3839395a4d39342e32333437203239312e3237346102808201527f4339342e36323237203239302e36352039342e31333935203239302e353133206102a08201527f39342e37303632203239312e3835394339352e32313733203239332e303733206102c08201527f39362e333038203239342e3737312039382e31313637203239362e38383843316102e08201527f30312e363938203330312e3038203130372e343738203330362e3230312031316103008201527f342e373837203331312e3432394c3131302e313333203331372e3933364331306103208201527f322e353136203331322e3438382039362e31383238203330362e3933392039326103408201527f2e30333437203330322e3038354338392e39373834203239392e3637382038386103608201527f2e32393939203239372e32362038372e33333332203239342e3936344338362e6103808201527f34323233203239322e382038352e37353239203238392e3736322038372e34346103a08201527f3236203238372e3034374c39342e32333437203239312e3237345a4d3131362e6103c08201527f333335203331332e363839433131372e303537203331362e353036203131382e6103e08201527f383138203331392e3035203132312e3438203332302e3730364c3131372e32356104008201527f32203332372e343938433131322e373733203332342e3731203130392e3739396104208201527f203332302e343039203130382e353835203331352e3637364c3131362e3333356104408201527f203331332e3638395a4d3132312e3438203332302e373036433132342e3134396104608201527f203332322e333637203132372e3232203332322e383232203133302e303734206104808201527f3332322e3231374c3133312e373332203333302e303434433132362e393337206104a08201527f3333312e303539203132312e373436203333302e323934203131372e323532206104c08201527f3332372e3439384c3132312e3438203332302e3730365a4d3133322e373836206104e08201527f3332322e363031433134302e363239203332362e373834203134372e363934206105008201527f3332392e363534203135322e3937203333302e393834433135352e36333420336105208201527f33312e363536203135372e363039203333312e383734203135382e39303120336105408201527f33312e373933433136302e3333203333312e373034203135392e3939342033336105608201527f312e3334203135392e363038203333312e3935394c3136362e34203333362e316105808201527f3836433136342e373232203333382e383833203136312e373239203333392e366105a08201527f3332203135392e34203333392e373738433135362e393334203333392e3933326105c08201527f203135342e3035203333392e353037203135312e303134203333382e373432436105e08201527f3134342e3839203333372e313938203133372e313937203333342e30322031326106008201527f392e303231203332392e36364c3133322e373836203332322e3630315a4d31356106208201527f392e363038203333312e393539433135392e323335203333322e3535392031356106408201527f392e363639203333322e3732203135392e313936203333312e3532433135382e6106608201527f373633203333302e343233203135372e383039203332382e3836203135362e316106808201527f3739203332362e383835433135322e393533203332322e393733203134372e366106a08201527f3838203331382e313634203134302e393433203331332e3137374c3134352e366106c08201527f3939203330362e373434433135322e373338203331312e393439203135382e356106e08201527f3539203331372e313938203136322e333531203332312e373934433136342e326107008201527f33203332342e303733203136352e373637203332362e333738203136362e36336107208201527f38203332382e353834433136372e343638203333302e363837203136382e30316107408201527f38203333332e353838203136362e34203333362e3138364c3135392e363038206107608201527f3333312e3935395a4d3133392e333237203331302e313734433133392e3132396107808201527f203330362e3438203133372e313935203330322e393536203133332e383320336107a08201527f30302e3836324c3133382e303537203239342e3037433134332e3733332032396107c08201527f372e363033203134362e393834203330332e353536203134372e3331352033306107e08201527f392e3734374c3133392e333237203331302e3137345a4d3133332e38332033306108008201527f302e383632433133302e343733203239382e373733203132362e3436392032396108208201527f382e353839203132332e303733203330302e3033314c3131392e3934352032396108408201527f322e363638433132352e363337203239302e323531203133322e3339342032396108608201527f302e353436203133382e303537203239342e30374c3133332e3833203330302e610880820152641c1b192d1160d91b6108a08201526108a50190565b600080516020615efe83398151915281527f706174682d382d696e736964652d345f3130395f37352922202f3e00000000006020820152603b0190565b7f202020203c6d61736b2069643d22706174682d31302d696e736964652d355f31815273181caf9b9a91103334b6361e913bb434ba32911f60611b602082015260340190565b7f202020643d224d3230392e343539203432342e323436433232342e383435203481527f31362e3235203233372e363232203431332e303238203234302e31323920343160208201527f372e303537433234322e373332203432312e3234203233332e3433342034333160408201527f2e393033203231382e353038203434322e353739433231372e3534203434362e60608201527f333534203231352e313732203434392e373737203231312e363032203435312e60808201527f393938433230382e3032203435342e323237203230332e383839203435342e3860a08201527f3337203230302e303634203435342e303237433138342e303435203436322e3560c08201527f3731203137302e353438203436362e313232203136372e393634203436312e3960e08201527f3639433136352e343735203435372e393731203137332e383633203434382e306101008201527f35203138372e363437203433372e383537433138372e393131203433322e39316101208201527f35203139302e353034203432382e313736203139352e303235203432352e33366101408201527f32433139392e353334203432322e353536203230342e393135203432322e3331610160820152751b1019181c971a1a9c901a191a17191a1b2d1110179f60511b6101808201526101960190565b7f2020202020202020643d224d3230392e343539203432342e323436433232342e81527f383435203431362e3235203233372e363232203431332e303238203234302e3160208201527f3239203431372e303537433234322e373332203432312e3234203233332e343360408201527f34203433312e393033203231382e353038203434322e353739433231372e353460608201527f203434362e333534203231352e313732203434392e373737203231312e36303260808201527f203435312e393938433230382e3032203435342e323237203230332e3838392060a08201527f3435342e383337203230302e303634203435342e303237433138342e3034352060c08201527f3436322e353731203137302e353438203436362e313232203136372e3936342060e08201527f3436312e393639433136352e343735203435372e393731203137332e383633206101008201527f3434382e3035203138372e363437203433372e383537433138372e39313120346101208201527f33322e393135203139302e353034203432382e313736203139352e30323520346101408201527f32352e333632433139392e353334203432322e353536203230342e39313520346101608201527719191719989b1019181c971a1a9c901a191a17191a1b2d1160411b6101808201526101980190565b7f2020202020202020643d224d3230392e343539203432342e3234364c3230372e81527f383935203432372e3932384c3230392e3633203432382e3636354c3231312e3360208201527f3033203432372e3739364c3230392e343539203432342e3234365a4d3231382e60408201527f353038203434322e3537394c3231362e313831203433392e3332354c3231342e60608201527f393935203434302e3137334c3231342e363333203434312e3538354c3231382e60808201527f353038203434322e3537395a4d3230302e303634203435342e3032374c32303060a08201527f2e383933203435302e3131344c3139392e343638203434392e3831324c31393860c08201527f2e313832203435302e3439384c3230302e303634203435342e3032375a4d313860e08201527f372e363437203433372e3835374c3139302e303235203434312e3037334c31396101008201527f312e353431203433392e3935324c3139312e363431203433382e30374c3138376101208201527f2e363437203433372e3835375a4d3231312e333033203432372e3739364332316101408201527f382e383334203432332e383832203232352e353535203432312e3233203233306101608201527f2e353536203432302e303332433233332e303831203431392e343237203233346101808201527f2e393334203431392e323531203233362e313332203431392e333434433233376101a08201527f2e343435203431392e343436203233372e313039203431392e373734203233366101c08201527f2e373333203431392e31374c3234332e353235203431342e393433433234312e6101e08201527f383936203431322e333235203233392e303232203431312e353435203233362e6102008201527f373534203431312e333638433233342e3337203431312e313833203233312e356102208201527f3937203431312e353536203232382e363932203431322e323532433232322e386102408201527f33203431332e363537203231352e3437203431362e363134203230372e3631346102608201527f203432302e3639374c3231312e333033203432372e3739365a4d3233362e37336102808201527f33203431392e3137433233362e333435203431382e353437203233362e3832386102a08201527f203431382e3431203233362e323632203431392e373536433233352e373531206102c08201527f3432302e393639203233342e3636203432322e363638203233322e38353120346102e08201527f32342e373834433232392e323639203432382e393736203232332e34392034336103008201527f342e303937203231362e313831203433392e3332354c3232302e3833352034346103208201527f352e383332433232382e343532203434302e333834203233342e3738352034336103408201527f342e383336203233382e393333203432392e393831433234302e3938392034326103608201527f372e353735203234322e363638203432352e313536203234332e3633352034326103808201527f322e3836433234342e353436203432302e363937203234352e323135203431376103a08201527f2e363538203234332e353235203431342e3934334c3233362e373333203431396103c08201527f2e31375a4d3231342e363333203434312e353835433231332e393131203434346103e08201527f2e343033203231322e3135203434362e393436203230392e343838203434382e6104008201527f3630324c3231332e373135203435352e333935433231382e313934203435322e6104208201527f363037203232312e313639203434382e333035203232322e333832203434332e6104408201527f3537324c3231342e363333203434312e3538355a4d3230392e343838203434386104608201527f2e363032433230362e383139203435302e323634203230332e373438203435306104808201527f2e373139203230302e383933203435302e3131344c3139392e323335203435376104a08201527f2e3934433230342e3033203435382e393536203230392e323232203435382e316104c08201527f3931203231332e373135203435352e3339354c3230392e343838203434382e366104e08201527f30325a4d3139382e313832203435302e343938433139302e333338203435342e6105008201527f363831203138332e323734203435372e353531203137372e393938203435382e6105208201527f383831433137352e333334203435392e353532203137332e333538203435392e6105408201527f3737203137322e303637203435392e3639433137302e363337203435392e36206105608201527f3137302e393734203435392e323336203137312e3336203435392e3835364c316105808201527f36342e353638203436342e303833433136362e323436203436362e37373920316105a08201527f36392e323338203436372e353238203137312e353637203436372e36373443316105c08201527f37342e303334203436372e383238203137362e393138203436372e34303320316105e08201527f37392e393534203436362e363338433138362e303737203436352e30393420316106008201527f39332e373731203436312e393137203230312e393437203435372e3535364c316106208201527f39382e313832203435302e3439385a4d3137312e3336203435392e38353643316106408201527f37312e373333203436302e343535203137312e323938203436302e36313620316106608201527f37312e373732203435392e343137433137322e323035203435382e33313920316106808201527f37332e313539203435362e373537203137342e373839203435342e37383143316106a08201527f37382e303135203435302e3837203138332e3238203434362e303631203139306106c08201527f2e303235203434312e3037334c3138352e323638203433342e363431433137386106e08201527f2e3233203433392e383436203137322e343039203434352e303934203136382e6107008201527f363137203434392e363931433136362e373338203435312e393639203136352e6107208201527f323031203435342e323734203136342e3333203435362e3438433136332e35206107408201527f3435382e353834203136322e3935203436312e343834203136342e35363820346107608201527f36342e3038334c3137312e3336203435392e3835365a4d3139312e36343120346107808201527f33382e3037433139312e383339203433342e333736203139332e3737332034336107a08201527f302e383533203139372e313338203432382e3735384c3139322e3931312034326107c08201527f312e393636433138372e323335203432352e343939203138332e3938332034336107e08201527f312e343533203138332e363533203433372e3634334c3139312e3634312034336108008201527f382e30375a4d3139372e313338203432382e373538433230302e3439352034326108208201527f362e363639203230342e343939203432362e343835203230372e3839352034326108408201527f372e3932384c3231312e303233203432302e353635433230352e3333312034316108608201527f382e313437203139382e353733203431382e343432203139322e3931312034326108808201527618971c9b1b26189c9b9718999c101a191c171b9a9c2d1160491b6108a08201526108b70190565b600080516020615efe83398151915281527f706174682d31302d696e736964652d355f3130395f37352922202f3e000000006020820152603c0190565b7f202020203c6d61736b2069643d22706174682d31322d696e736964652d365f31815273181caf9b9a91103334b6361e913bb434ba32911f60611b602082015260340190565b7f202020643d224d3430392e373831203430352e323237433432312e303036203481527f31382e343434203432362e393936203433302e3138203432332e36323720343360208201527f332e353233433432302e3133203433362e393933203430372e3636332034333060408201527f2e333036203339332e393237203431382e313336433339302e3033312034313860608201527f2e303334203338362e313637203431362e343839203338332e3230352034313360808201527f2e353034433338302e323333203431302e3531203337382e373138203430362e60a08201527f363139203337382e363535203430322e3731433336362e373535203338382e3960c08201527f3938203336302e323833203337362e363333203336332e373535203337332e3160e08201527f3838433336372e303938203336392e3837203337382e363339203337352e38336101008201527f35203339312e363439203338362e393939433339362e353236203338362e31356101208201527f35203430312e373234203338372e363236203430352e343734203339312e34306101408201527f35433430392e323136203339352e313736203431302e363439203430302e3336610160820152751c101a181c971b9c18901a181a9719191bad1110179f60511b6101808201526101960190565b7f2020202020202020643d224d3430392e373831203430352e323237433432312e81527f303036203431382e343434203432362e393936203433302e3138203432332e3660208201527f3237203433332e353233433432302e3133203433362e393933203430372e363660408201527f33203433302e333036203339332e393237203431382e313336433339302e303360608201527f31203431382e303334203338362e313637203431362e343839203338332e323060808201527f35203431332e353034433338302e323333203431302e3531203337382e37313860a08201527f203430362e363139203337382e363535203430322e3731433336362e3735352060c08201527f3338382e393938203336302e323833203337362e363333203336332e3735352060e08201527f3337332e313838433336372e303938203336392e3837203337382e36333920336101008201527f37352e383335203339312e363439203338362e393939433339362e35323620336101208201527f38362e313535203430312e373234203338372e363236203430352e34373420336101408201527f39312e343035433430392e323136203339352e313736203431302e363439203461016082015277181817199b1c101a181c971b9c18901a181a9719191bad1160411b6101808201526101980190565b7f2020202020202020643d224d3430392e373831203430352e3232374c3430352e81527f383433203430342e3532344c3430352e353131203430362e33384c3430362e3760208201527f3332203430372e3831374c3430392e373831203430352e3232375a4d3339332e60408201527f393237203431382e3133364c3339362e3538203431352e3134324c3339352e3460608201527f3839203431342e3137364c3339342e303332203431342e3133374c3339332e3960808201527f3237203431382e3133365a4d3337382e363535203430322e37314c3338322e3660a08201527f3534203430322e3634354c3338322e363331203430312e3138384c3338312e3660c08201527f3736203430302e3038384c3337382e363535203430322e37315a4d3339312e3660e08201527f3439203338362e3939394c3338392e303434203339302e3033354c3339302e346101008201527f3735203339312e3236324c3339322e333332203339302e39344c3339312e36346101208201527f39203338362e3939395a4d3430362e373332203430372e383137433431322e326101408201527f3236203431342e323835203431362e333039203432302e323436203431382e356101608201527f3932203432342e383534433431392e373436203432372e313831203432302e336101808201527f33203432382e393437203432302e353037203433302e313336433432302e37206101a08201527f3433312e343339203432302e333035203433312e313834203432302e383120346101c08201527f33302e3638334c3432362e343435203433362e333632433432382e36333420346101e08201527f33342e3139203432382e373534203433312e323135203432382e3432203432386102008201527f2e393634433432382e3037203432362e353939203432372e303837203432332e6102208201527f393739203432352e373631203432312e333032433432332e303835203431352e6102408201527f393031203431382e353631203430392e333836203431322e383239203430322e6102608201527f3633384c3430362e373332203430372e3831375a4d3432302e3831203433302e6102808201527f363833433432312e333331203433302e313636203432312e353733203433302e6102a08201527f363036203432302e313334203433302e333534433431382e383337203433302e6102c08201527f313237203431362e393338203432392e343432203431342e343732203432382e6102e08201527f313531433430392e353837203432352e353934203430332e333036203432312e6103008201527f313032203339362e3538203431352e3134324c3339312e323734203432312e316103208201527f33433339382e323834203432372e333431203430352e313034203433322e32376103408201527f37203431302e373632203433352e323338433431332e353636203433362e37306103608201527f36203431362e323938203433372e383033203431382e373532203433382e32336103808201527f34433432312e303634203433382e363339203432342e313735203433382e36316103a08201527f34203432362e343435203433362e3336324c3432302e3831203433302e3638336103c08201527f5a4d3339342e303332203431342e313337433339312e313234203431342e30366103e08201527f31203338382e323532203431322e393132203338362e303434203431302e36386104008201527f374c3338302e333636203431362e333232433338342e303832203432302e30366104208201527f36203338382e393338203432322e303037203339332e383232203432322e31336104408201527f354c3339342e303332203431342e3133375a4d3338362e303434203431302e366104608201527f3837433338332e383239203430382e343535203338322e373031203430352e356104808201527f3633203338322e363534203430322e3634354c3337342e363535203430322e376104a08201527f3734433337342e373334203430372e363735203337362e363338203431322e356104c08201527f3635203338302e333636203431362e3332324c3338362e303434203431302e366104e08201527f38375a4d3338312e363736203430302e303838433337352e383439203339332e6105008201527f333734203337312e343736203338372e313238203336392e303033203338322e6105208201527f323831433336372e373535203337392e383334203336372e313032203337372e6105408201527f393536203336362e383932203337362e363739433336362e363631203337352e6105608201527f323636203336372e303931203337352e353133203336362e353733203337362e6105808201527f3032374c3336302e393338203337302e333438433335382e363833203337322e6105a08201527f353835203335382e3632203337352e3637203335382e393938203337372e39376105c08201527f33433335392e333937203338302e343131203336302e343535203338332e31326105e08201527f38203336312e383737203338352e393137433336342e373437203339312e35346106008201527f32203336392e353631203339382e333334203337352e363334203430352e33336106208201527f314c3338312e363736203430302e3038385a4d3336362e353733203337362e306106408201527f3237433336362e303731203337362e353234203336352e383138203337362e316106608201527f3337203336372e303933203337362e333331433336382e323539203337362e356106808201527f3038203336392e393935203337372e3039203337322e323834203337382e32336106a08201527f38433337362e383137203338302e353131203338322e363738203338342e35376106c08201527f31203338392e303434203339302e3033354c3339342e323534203338332e39366106e08201527f34433338372e363131203337382e323633203338312e313936203337332e37356107008201527f38203337352e3837203337312e303837433337332e3233203336392e373633206107208201527f3337302e3634203336382e373738203336382e323936203336382e34323243336107408201527f36362e3036203336382e303831203336332e3131203336382e313932203336306107608201527f2e393338203337302e3334384c3336362e353733203337362e3032375a4d33396107808201527f322e333332203339302e3934433339352e393737203339302e333039203339396107a08201527f2e383433203339312e343039203430322e363335203339342e3232334c3430386107c08201527f2e333134203338382e353838433430332e363034203338332e383432203339376107e08201527f2e30373520333832203339302e393637203338332e3035384c3339322e3333326108008201527f203339302e39345a4d3430322e363335203339342e323233433430352e3432206108208201527f3339372e303239203430362e343932203430302e383932203430352e383433206108408201527f3430342e3532344c3431332e373138203430352e393331433431342e383036206108608201527f3339392e383434203431332e303131203339332e333232203430382e3331342061088082015278199c1c171a9c1c261a1819171b199a90199c9a17191919ad1160391b6108a08201526108b90190565b600080516020615efe83398151915281527f706174682d31322d696e736964652d365f3130395f37352922202f3e000000006020820152603c0190565b631e17b39f60e11b815260040190565b6810101010101e17b39f60b91b815260090190565b03601f198101835282615ec5565b60405191829182615e6e565b0390f35b600080fd5b919091602080825283519081818401526000945b828610615eaf575050806040939411615ea2575b601f01601f1916010190565b6000838284010152615e96565b8581018201518487016040015294810194615e82565b90601f8019910116810190811067ffffffffffffffff821117615ee757604052565b634e487b7160e01b600052604160045260246000fdfe202020202020202066696c6c3d22626c61636b22206d61736b3d2275726c2823a2646970667358221220ac9821f8a6618f171e554a98df98c807edc90ac25d0e525dfc18cc71621a9ef764736f6c634300080d0033",
  "devdoc": {
    "kind": "dev",
    "methods": {},
    "version": 1
  },
  "userdoc": {
    "kind": "user",
    "methods": {},
    "version": 1
  },
  "storageLayout": {
    "storage": [],
    "types": null
  }
}