{
  "_format": "hh-sol-artifact-1",
  "contractName": "ThisSocks",
  "sourceName": "contracts/ThisSocks.sol",
  "abi": [
    {
      "inputs": [],
      "stateMutability": "nonpayable",
      "type": "constructor"
    },
    {
      "anonymous": false,
      "inputs": [
        {
          "indexed": true,
          "internalType": "address",
          "name": "owner",
          "type": "address"
        },
        {
          "indexed": true,
          "internalType": "address",
          "name": "approved",
          "type": "address"
        },
        {
          "indexed": true,
          "internalType": "uint256",
          "name": "tokenId",
          "type": "uint256"
        }
      ],
      "name": "Approval",
      "type": "event"
    },
    {
      "anonymous": false,
      "inputs": [
        {
          "indexed": true,
          "internalType": "address",
          "name": "owner",
          "type": "address"
        },
        {
          "indexed": true,
          "internalType": "address",
          "name": "operator",
          "type": "address"
        },
        {
          "indexed": false,
          "internalType": "bool",
          "name": "approved",
          "type": "bool"
        }
      ],
      "name": "ApprovalForAll",
      "type": "event"
    },
    {
      "anonymous": false,
      "inputs": [
        {
          "indexed": true,
          "internalType": "address",
          "name": "previousOwner",
          "type": "address"
        },
        {
          "indexed": true,
          "internalType": "address",
          "name": "newOwner",
          "type": "address"
        }
      ],
      "name": "OwnershipTransferred",
      "type": "event"
    },
    {
      "anonymous": false,
      "inputs": [
        {
          "indexed": true,
          "internalType": "address",
          "name": "from",
          "type": "address"
        },
        {
          "indexed": true,
          "internalType": "address",
          "name": "to",
          "type": "address"
        },
        {
          "indexed": true,
          "internalType": "uint256",
          "name": "tokenId",
          "type": "uint256"
        }
      ],
      "name": "Transfer",
      "type": "event"
    },
    {
      "inputs": [
        {
          "internalType": "address",
          "name": "to",
          "type": "address"
        },
        {
          "internalType": "uint256",
          "name": "tokenId",
          "type": "uint256"
        }
      ],
      "name": "approve",
      "outputs": [],
      "stateMutability": "nonpayable",
      "type": "function"
    },
    {
      "inputs": [
        {
          "internalType": "address",
          "name": "owner",
          "type": "address"
        }
      ],
      "name": "balanceOf",
      "outputs": [
        {
          "internalType": "uint256",
          "name": "",
          "type": "uint256"
        }
      ],
      "stateMutability": "view",
      "type": "function"
    },
    {
      "inputs": [],
      "name": "curve",
      "outputs": [
        {
          "internalType": "uint256",
          "name": "",
          "type": "uint256"
        }
      ],
      "stateMutability": "view",
      "type": "function"
    },
    {
      "inputs": [
        {
          "internalType": "uint256",
          "name": "tokenId",
          "type": "uint256"
        }
      ],
      "name": "getApproved",
      "outputs": [
        {
          "internalType": "address",
          "name": "",
          "type": "address"
        }
      ],
      "stateMutability": "view",
      "type": "function"
    },
    {
      "inputs": [
        {
          "internalType": "uint256",
          "name": "id",
          "type": "uint256"
        }
      ],
      "name": "getBackgroundByTokenId",
      "outputs": [
        {
          "internalType": "uint256",
          "name": "",
          "type": "uint256"
        }
      ],
      "stateMutability": "view",
      "type": "function"
    },
    {
      "inputs": [
        {
          "internalType": "uint256",
          "name": "id",
          "type": "uint256"
        }
      ],
      "name": "getBackgroundTypeByTokenId",
      "outputs": [
        {
          "internalType": "uint256",
          "name": "",
          "type": "uint256"
        }
      ],
      "stateMutability": "view",
      "type": "function"
    },
    {
      "inputs": [
        {
          "internalType": "uint256",
          "name": "id",
          "type": "uint256"
        }
      ],
      "name": "getColorsByTokenId",
      "outputs": [
        {
          "internalType": "uint256",
          "name": "color1",
          "type": "uint256"
        },
        {
          "internalType": "uint256",
          "name": "color2",
          "type": "uint256"
        },
        {
          "internalType": "uint256",
          "name": "color3",
          "type": "uint256"
        }
      ],
      "stateMutability": "view",
      "type": "function"
    },
    {
      "inputs": [
        {
          "internalType": "uint256",
          "name": "id",
          "type": "uint256"
        }
      ],
      "name": "getPinByTokenId",
      "outputs": [
        {
          "internalType": "uint256",
          "name": "",
          "type": "uint256"
        }
      ],
      "stateMutability": "view",
      "type": "function"
    },
    {
      "inputs": [
        {
          "internalType": "address",
          "name": "owner",
          "type": "address"
        },
        {
          "internalType": "address",
          "name": "operator",
          "type": "address"
        }
      ],
      "name": "isApprovedForAll",
      "outputs": [
        {
          "internalType": "bool",
          "name": "",
          "type": "bool"
        }
      ],
      "stateMutability": "view",
      "type": "function"
    },
    {
      "inputs": [],
      "name": "limit",
      "outputs": [
        {
          "internalType": "uint256",
          "name": "",
          "type": "uint256"
        }
      ],
      "stateMutability": "view",
      "type": "function"
    },
    {
      "inputs": [],
      "name": "mintItem",
      "outputs": [
        {
          "internalType": "uint256",
          "name": "",
          "type": "uint256"
        }
      ],
      "stateMutability": "payable",
      "type": "function"
    },
    {
      "inputs": [],
      "name": "name",
      "outputs": [
        {
          "internalType": "string",
          "name": "",
          "type": "string"
        }
      ],
      "stateMutability": "view",
      "type": "function"
    },
    {
      "inputs": [],
      "name": "owner",
      "outputs": [
        {
          "internalType": "address",
          "name": "",
          "type": "address"
        }
      ],
      "stateMutability": "view",
      "type": "function"
    },
    {
      "inputs": [
        {
          "internalType": "uint256",
          "name": "tokenId",
          "type": "uint256"
        }
      ],
      "name": "ownerOf",
      "outputs": [
        {
          "internalType": "address",
          "name": "",
          "type": "address"
        }
      ],
      "stateMutability": "view",
      "type": "function"
    },
    {
      "inputs": [],
      "name": "price",
      "outputs": [
        {
          "internalType": "uint256",
          "name": "",
          "type": "uint256"
        }
      ],
      "stateMutability": "view",
      "type": "function"
    },
    {
      "inputs": [],
      "name": "recipient",
      "outputs": [
        {
          "internalType": "address payable",
          "name": "",
          "type": "address"
        }
      ],
      "stateMutability": "view",
      "type": "function"
    },
    {
      "inputs": [
        {
          "internalType": "uint256",
          "name": "id",
          "type": "uint256"
        }
      ],
      "name": "renderTokenById",
      "outputs": [
        {
          "internalType": "string",
          "name": "",
          "type": "string"
        }
      ],
      "stateMutability": "view",
      "type": "function"
    },
    {
      "inputs": [],
      "name": "renounceOwnership",
      "outputs": [],
      "stateMutability": "nonpayable",
      "type": "function"
    },
    {
      "inputs": [
        {
          "internalType": "address",
          "name": "from",
          "type": "address"
        },
        {
          "internalType": "address",
          "name": "to",
          "type": "address"
        },
        {
          "internalType": "uint256",
          "name": "tokenId",
          "type": "uint256"
        }
      ],
      "name": "safeTransferFrom",
      "outputs": [],
      "stateMutability": "nonpayable",
      "type": "function"
    },
    {
      "inputs": [
        {
          "internalType": "address",
          "name": "from",
          "type": "address"
        },
        {
          "internalType": "address",
          "name": "to",
          "type": "address"
        },
        {
          "internalType": "uint256",
          "name": "tokenId",
          "type": "uint256"
        },
        {
          "internalType": "bytes",
          "name": "_data",
          "type": "bytes"
        }
      ],
      "name": "safeTransferFrom",
      "outputs": [],
      "stateMutability": "nonpayable",
      "type": "function"
    },
    {
      "inputs": [
        {
          "internalType": "address",
          "name": "operator",
          "type": "address"
        },
        {
          "internalType": "bool",
          "name": "approved",
          "type": "bool"
        }
      ],
      "name": "setApprovalForAll",
      "outputs": [],
      "stateMutability": "nonpayable",
      "type": "function"
    },
    {
      "inputs": [
        {
          "internalType": "uint256",
          "name": "id",
          "type": "uint256"
        },
        {
          "internalType": "uint256",
          "name": "backgroundId",
          "type": "uint256"
        }
      ],
      "name": "setBackgroundByTokenId",
      "outputs": [],
      "stateMutability": "nonpayable",
      "type": "function"
    },
    {
      "inputs": [
        {
          "internalType": "uint256",
          "name": "id",
          "type": "uint256"
        },
        {
          "internalType": "uint256",
          "name": "backgroundType",
          "type": "uint256"
        }
      ],
      "name": "setBackgroundTypeByTokenId",
      "outputs": [],
      "stateMutability": "nonpayable",
      "type": "function"
    },
    {
      "inputs": [
        {
          "internalType": "uint256",
          "name": "id",
          "type": "uint256"
        },
        {
          "internalType": "uint256",
          "name": "color1",
          "type": "uint256"
        },
        {
          "internalType": "uint256",
          "name": "color2",
          "type": "uint256"
        },
        {
          "internalType": "uint256",
          "name": "color3",
          "type": "uint256"
        }
      ],
      "name": "setColorsByTokenId",
      "outputs": [],
      "stateMutability": "nonpayable",
      "type": "function"
    },
    {
      "inputs": [
        {
          "internalType": "uint256",
          "name": "id",
          "type": "uint256"
        },
        {
          "internalType": "uint256",
          "name": "pinId",
          "type": "uint256"
        }
      ],
      "name": "setPinByTokenId",
      "outputs": [],
      "stateMutability": "nonpayable",
      "type": "function"
    },
    {
      "inputs": [
        {
          "internalType": "bytes4",
          "name": "interfaceId",
          "type": "bytes4"
        }
      ],
      "name": "supportsInterface",
      "outputs": [
        {
          "internalType": "bool",
          "name": "",
          "type": "bool"
        }
      ],
      "stateMutability": "view",
      "type": "function"
    },
    {
      "inputs": [],
      "name": "symbol",
      "outputs": [
        {
          "internalType": "string",
          "name": "",
          "type": "string"
        }
      ],
      "stateMutability": "view",
      "type": "function"
    },
    {
      "inputs": [
        {
          "internalType": "uint256",
          "name": "index",
          "type": "uint256"
        }
      ],
      "name": "tokenByIndex",
      "outputs": [
        {
          "internalType": "uint256",
          "name": "",
          "type": "uint256"
        }
      ],
      "stateMutability": "view",
      "type": "function"
    },
    {
      "inputs": [
        {
          "internalType": "address",
          "name": "owner",
          "type": "address"
        },
        {
          "internalType": "uint256",
          "name": "index",
          "type": "uint256"
        }
      ],
      "name": "tokenOfOwnerByIndex",
      "outputs": [
        {
          "internalType": "uint256",
          "name": "",
          "type": "uint256"
        }
      ],
      "stateMutability": "view",
      "type": "function"
    },
    {
      "inputs": [
        {
          "internalType": "uint256",
          "name": "id",
          "type": "uint256"
        }
      ],
      "name": "tokenURI",
      "outputs": [
        {
          "internalType": "string",
          "name": "",
          "type": "string"
        }
      ],
      "stateMutability": "view",
      "type": "function"
    },
    {
      "inputs": [],
      "name": "totalSupply",
      "outputs": [
        {
          "internalType": "uint256",
          "name": "",
          "type": "uint256"
        }
      ],
      "stateMutability": "view",
      "type": "function"
    },
    {
      "inputs": [
        {
          "internalType": "address",
          "name": "from",
          "type": "address"
        },
        {
          "internalType": "address",
          "name": "to",
          "type": "address"
        },
        {
          "internalType": "uint256",
          "name": "tokenId",
          "type": "uint256"
        }
      ],
      "name": "transferFrom",
      "outputs": [],
      "stateMutability": "nonpayable",
      "type": "function"
    },
    {
      "inputs": [
        {
          "internalType": "address",
          "name": "newOwner",
          "type": "address"
        }
      ],
      "name": "transferOwnership",
      "outputs": [],
      "stateMutability": "nonpayable",
      "type": "function"
    }
  ],
  "bytecode": "0x6080604052346200018b5762000014620001a7565b60206754686973536f636b60c01b8183015262000030620001dc565b6254485360e81b8282015282519091906001600160401b0381116200017b575b6000916200006a826200006485546200023d565b6200027a565b80601f8311600114620000ed57508190620000a1958492620000e1575b50508160011b916000199060031b1c19161790556200032e565b620000ac3362000430565b620000c0620000bb4262000211565b600c55565b620000d166038d7ea4c68000600d55565b604051612cfc90816200047f8239f35b01519050388062000087565b600080529194601f1986167f290decd9548b62a8d60345a988386fc84ba6bc95484008f6362f93160ef3e5639385905b82821062000162575050916001939187620000a198941062000148575b505050811b0190556200032e565b015160001960f88460031b161c191690553880806200013a565b806001869782949787015181550196019401906200011d565b6200018562000190565b62000050565b600080fd5b50634e487b7160e01b600052604160045260246000fd5b60408051919082016001600160401b03811183821017620001cc575b60405260088252565b620001d662000190565b620001c3565b60408051919082016001600160401b0381118382101762000201575b60405260038252565b6200020b62000190565b620001f8565b6312cc030019811162000227576312cc03000190565b634e487b7160e01b600052601160045260246000fd5b90600182811c921680156200026f575b60208310146200025957565b634e487b7160e01b600052602260045260246000fd5b91607f16916200024d565b601f811162000287575050565b60009081805260208220906020601f850160051c83019410620002c7575b601f0160051c01915b828110620002bb57505050565b818155600101620002ae565b9092508290620002a5565b90601f8211620002e0575050565b60019160009083825260208220906020601f850160051c8301941062000323575b601f0160051c01915b828110620003185750505050565b81815583016200030a565b909250829062000301565b80519091906001600160401b03811162000420575b6001906200035d816200035784546200023d565b620002d2565b602080601f83116001146200039b5750819293946000926200038f575b5050600019600383901b1c191690821b179055565b0151905038806200037a565b6001600052601f198316959091907fb10e2d527612073b26eecdfd717e6a320cf44b4afac2b0732d9fcbe2b7fa0cf6926000905b888210620004085750508385969710620003ee575b505050811b019055565b015160001960f88460031b161c19169055388080620003e4565b808785968294968601518155019501930190620003cf565b6200042a62000190565b62000343565b600a80546001600160a01b039283166001600160a01b031982168117909255604051919216907f8be0079c531659141344cd1fd0a4f28419497f9722a3daafe3b4186f6b6457e090600090a356fe60806040526004361015610013575b600080fd5b60003560e01c806301ffc9a7146102a757806306fdde031461029e578063081812fc14610295578063095ea7b31461028c57806318160ddd1461028357806323b872dd1461027a5780632bf19156146102715780632f745c59146102685780632ff78f9e1461025f57806342842e0e146102565780634f6ccce71461024d5780635af545dc146102445780635e3ec0761461023b57806360f42613146102325780636352211e1461022957806366d003ac146102205780636ef0517a1461021757806370a082311461020e578063715018a6146102055780637165485d146101fc5780637d518532146101f3578063815ef883146101ea5780638da5cb5b146101e157806395d89b41146101d8578063a035b1fe146101cf578063a22cb465146101c6578063a2d6c6da146101bd578063a4d66daf146101b4578063b88d4fde146101ab578063c87b56dd146101a2578063e985e9c514610199578063eb93406b146101905763f2fde38b1461018857600080fd5b61000e611339565b5061000e611144565b5061000e6110e6565b5061000e610ebe565b5061000e610e35565b5061000e610d53565b5061000e610d1f565b5061000e610c36565b5061000e610c17565b5061000e610b55565b5061000e610b2b565b5061000e610a6f565b5061000e610a42565b5061000e610a24565b5061000e6109bf565b5061000e610993565b5061000e610966565b5061000e610936565b5061000e610917565b5061000e6108e5565b5061000e6108b8565b5061000e61088b565b5061000e6107df565b5061000e610798565b5061000e61076b565b5061000e6106b7565b5061000e61068a565b5061000e610660565b5061000e61060c565b5061000e61051c565b5061000e6104bf565b5061000e6103b9565b5061000e6102c2565b6001600160e01b031981160361000e57565b503461000e57602036600319011261000e5760206004356102e2816102b0565b63ffffffff60e01b1663780e9d6360e01b8114908115610308575b506040519015158152f35b6380ac58cd60e01b81149150811561033a575b8115610329575b50386102fd565b6301ffc9a760e01b14905038610322565b635b5e139f60e01b8114915061031b565b918091926000905b82821061036b575011610364575050565b6000910152565b91508060209183015181860152018291610353565b906020916103998151809281855285808601910161034b565b601f01601f1916010190565b9060206103b6928181520190610380565b90565b503461000e576000806003193601126104bc57604051908080549060019180831c928082169283156104b2575b602092838610851461049e578588526020880194908115610482575060011461042a575b6104268761041a81890382610dcb565b604051918291826103a5565b0390f35b6000805294509192917f290decd9548b62a8d60345a988386fc84ba6bc95484008f6362f93160ef3e5635b838610610471575050509101905061041a82610426388061040a565b805485870152948201948101610455565b60ff1916855250505001915061041a905082610426388061040a565b634e487b7160e01b82526022600452602482fd5b93607f16936103e6565b80fd5b503461000e57602036600319011261000e5760206104de6004356115c6565b6040516001600160a01b039091168152f35b600435906001600160a01b038216820361000e57565b602435906001600160a01b038216820361000e57565b503461000e57604036600319011261000e576105366104f0565b602435610542816114e1565b916001600160a01b0380841690821681146105bd576105749361056f913314908115610576575b50611559565b611abb565b005b6001600160a01b031660009081526005602052604090206105b791506105b09033905b9060018060a01b0316600052602052604060002090565b5460ff1690565b38610569565b60405162461bcd60e51b815260206004820152602160248201527f4552433732313a20617070726f76616c20746f2063757272656e74206f776e656044820152603960f91b6064820152608490fd5b503461000e57600036600319011261000e576020600854604051908152f35b606090600319011261000e576001600160a01b0390600435828116810361000e5791602435908116810361000e579060443590565b503461000e576105746106723661062b565b91610685610680843361177a565b611649565b61191e565b503461000e57602036600319011261000e5760043560005260106020526020604060002054604051908152f35b503461000e57604036600319011261000e576106d16104f0565b602435906106de81611469565b821015610712576001600160a01b031660009081526006602090815260408083209383529281529082902054915191825290f35b60405162461bcd60e51b815260206004820152602b60248201527f455243373231456e756d657261626c653a206f776e657220696e646578206f7560448201526a74206f6620626f756e647360a81b6064820152608490fd5b503461000e57604036600319011261000e5760043560005260116020526024356040600020556000604051f35b503461000e576105746107aa3661062b565b9060405192602084018481106001600160401b038211176107d2575b604052600084526116c2565b6107da610d71565b6107c6565b503461000e57602036600319011261000e576004356008548110156108315760086000527ff3f7a9fe364faab93b216da50a3214154f22a0a2b415b23a84c8169e8b636ee30154604051908152602090f35b60405162461bcd60e51b815260206004820152602c60248201527f455243373231456e756d657261626c653a20676c6f62616c20696e646578206f60448201526b7574206f6620626f756e647360a01b6064820152608490fd5b503461000e57602036600319011261000e5760043560005260116020526020604060002054604051908152f35b503461000e57604036600319011261000e5760043560005260106020526024356040600020556000604051f35b503461000e57602036600319011261000e576060610904600435612c3e565b9060405192835260208301526040820152f35b503461000e57602036600319011261000e5760206104de6004356114e1565b503461000e57600036600319011261000e5760206040517354179e1770a780f2f541f23cb21252de12977d3c8152f35b503461000e57604036600319011261000e57600435600052600e6020526024356040600020556000604051f35b503461000e57602036600319011261000e5760206109b76109b26104f0565b611469565b604051908152f35b503461000e576000806003193601126104bc57600a546001600160a01b038116906109eb3383146113d0565b6001600160a01b031916600a556040519082907f8be0079c531659141344cd1fd0a4f28419497f9722a3daafe3b4186f6b6457e08284a3f35b503461000e57600036600319011261000e5760206040516103ea8152f35b503461000e57602036600319011261000e57600435600052600e6020526020604060002054604051908152f35b503461000e57608036600319011261000e57600435610a95610a908261175d565b612203565b600090808252600f60205260408220805415610b1e575b82526024356020832055808252600f60205260408220805460011015610b11575b825260443560016020842001558152600f602052610b0c610af060408320611c7e565b6064359082549060031b600019811b9283911b16911916179055565b604051f35b610b19611c67565b610acd565b610b26611c67565b610aac565b503461000e57600036600319011261000e57600a546040516001600160a01b039091168152602090f35b503461000e576000806003193601126104bc576040519080600190815480831c92808216928315610c0d575b602092838610851461049e5785885260208801949081156104825750600114610bb4576104268761041a81890382610dcb565b600160005294509192917fb10e2d527612073b26eecdfd717e6a320cf44b4afac2b0732d9fcbe2b7fa0cf65b838610610bfc575050509101905061041a82610426388061040a565b805485870152948201948101610be0565b93607f1693610b81565b503461000e57600036600319011261000e576020600d54604051908152f35b503461000e57604036600319011261000e57610c506104f0565b602435801515810361000e576001600160a01b03821691338314610cde5781610c9b610cac9233600052600560205260406000209060018060a01b0316600052602052604060002090565b9060ff801983541691151516179055565b604051901515815233907f17307eab39ab6107e8899845ad3d59bd9653f200f220920489ca2b5937696c3190602090a3005b60405162461bcd60e51b815260206004820152601960248201527822a9219b99189d1030b8383937bb32903a379031b0b63632b960391b6044820152606490fd5b503461000e57602036600319011261000e57610426610d3f600435612781565b604051918291602083526020830190610380565b503461000e57600036600319011261000e576020604051610e908152f35b50634e487b7160e01b600052604160045260246000fd5b602081019081106001600160401b03821117610da357604052565b610dab610d71565b604052565b604081019081106001600160401b03821117610da357604052565b90601f801991011681019081106001600160401b03821117610da357604052565b60405190606082018281106001600160401b03821117610da357604052565b6020906001600160401b038111610e28575b601f01601f19160190565b610e30610d71565b610e1d565b503461000e57608036600319011261000e57610e4f6104f0565b610e57610506565b606435916001600160401b03831161000e573660238401121561000e57826004013591610e8383610e0b565b92610e916040519485610dcb565b808452366024828701011161000e57602081600092602461057498018388013785010152604435916116c2565b503461000e57602036600319011261000e57600435610edc8161175d565b610ee590612203565b610eee816122f6565b60405165536f636b202360d01b60208201529190829060268201610f1191612238565b0391601f19928381018252610f269082610dcb565b610f2e61224b565b50610f388261261d565b610f4190612534565b6040519260008452610f5284610d88565b610f5b816122f6565b90610f65906114e1565b610f77906001600160a01b0316612408565b604051683d913730b6b2911d1160b91b602082015294859491929160298601610f9f91612238565b701116113232b9b1b934b83a34b7b7111d1160791b8152601101610fc291612238565b7f222c2265787465726e616c5f75726c223a2268747470733a2f2f74686973736f81526d636b732e636f6d2f746f6b656e2f60901b6020820152602e0161100891612238565b6b1116101137bbb732b9111d1160a11b8152600c0161102691612238565b6b11161134b6b0b3b2911d101160a11b8152600c017f646174613a696d6167652f7376672b786d6c3b6261736536342c0000000000008152601a0161106a91612238565b61227d60f01b81526002010382810182526110859082610dcb565b61108e90612534565b6040517f646174613a6170706c69636174696f6e2f6a736f6e3b6261736536342c000000602082015291908290603d82016110c891612238565b0390810182526110d89082610dcb565b6040516104268192826103a5565b503461000e57604036600319011261000e57602060ff6111386111076104f0565b61110f610506565b6001600160a01b0391821660009081526005865260408082209290931681526020919091522090565b54166040519015158152f35b506000806003193601126104bc5761042690611163600c544210611f87565b61118d611188611180600d5461117b81341015611fc2565b611ffb565b6103e8900490565b600d55565b61119b6001600b5401600b55565b611329600b54916111ac83336120ec565b6112e96111b8436118c5565b60408051602081018781529240918101919091526bffffffffffffffffffffffff1933606090811b82168184015230901b16607482015261120681608881015b03601f198101835282610dcb565b51902061122081601460ff9160051a8281831b1617061690565b61123486600052600e602052604060002090565b556112aa611240610dec565b61125783600c60ff9160011a8281831b1617061690565b815261127083600c60ff9160081a8281831b1617061690565b602082015261128c83600c60ff9160141a8281831b1617061690565b60408201526112a587600052600f602052604060002090565b612043565b6112c181600b60ff91601b1a8281831b1617061690565b6112d5866000526010602052604060002090565b55601f60ff9160141a8281831b1617061690565b6112fd846000526011602052604060002090565b558080604051347354179e1770a780f2f541f23cb21252de12977d3c5af1611323611b74565b506120af565b6040519081529081906020820190565b503461000e57602036600319011261000e576113536104f0565b600a546001600160a01b039061136c90821633146113d0565b81161561137c576105749061141b565b60405162461bcd60e51b815260206004820152602660248201527f4f776e61626c653a206e6577206f776e657220697320746865207a65726f206160448201526564647265737360d01b6064820152608490fd5b156113d757565b606460405162461bcd60e51b815260206004820152602060248201527f4f776e61626c653a2063616c6c6572206973206e6f7420746865206f776e65726044820152fd5b600a80546001600160a01b039283166001600160a01b031982168117909255604051919216907f8be0079c531659141344cd1fd0a4f28419497f9722a3daafe3b4186f6b6457e090600090a3565b6001600160a01b0316801561148957600052600360205260406000205490565b60405162461bcd60e51b815260206004820152602a60248201527f4552433732313a2062616c616e636520717565727920666f7220746865207a65604482015269726f206164647265737360b01b6064820152608490fd5b6000908152600260205260409020546001600160a01b031680156115025790565b60405162461bcd60e51b815260206004820152602960248201527f4552433732313a206f776e657220717565727920666f72206e6f6e657869737460448201526832b73a103a37b5b2b760b91b6064820152608490fd5b1561156057565b60405162461bcd60e51b815260206004820152603860248201527f4552433732313a20617070726f76652063616c6c6572206973206e6f74206f776044820152771b995c881b9bdc88185c1c1c9bdd995908199bdc88185b1b60421b6064820152608490fd5b6115cf8161175d565b156115ef576000908152600460205260409020546001600160a01b031690565b60405162461bcd60e51b815260206004820152602c60248201527f4552433732313a20617070726f76656420717565727920666f72206e6f6e657860448201526b34b9ba32b73a103a37b5b2b760a11b6064820152608490fd5b1561165057565b60405162461bcd60e51b815260206004820152603160248201527f4552433732313a207472616e736665722063616c6c6572206973206e6f74206f6044820152701ddb995c881b9bdc88185c1c1c9bdd9959607a1b6064820152608490fd5b604051906116bc82610d88565b60008252565b906116e69392916116d6610680843361177a565b6116e183838361191e565b611ba4565b156116ed57565b60405162461bcd60e51b8152806117066004820161170a565b0390fd5b60809060208152603260208201527f4552433732313a207472616e7366657220746f206e6f6e20455243373231526560408201527131b2b4bb32b91034b6b83632b6b2b73a32b960711b60608201520190565b6000908152600260205260409020546001600160a01b0316151590565b6117838261175d565b156117fc57611791826114e1565b6001600160a01b0382811682821681149490919085156117e4575b50505082156117ba57505090565b6001600160a01b0316600090815260056020526040902060ff92506117df9190610599565b541690565b6117f191929395506115c6565b1614913880806117ac565b60405162461bcd60e51b815260206004820152602c60248201527f4552433732313a206f70657261746f7220717565727920666f72206e6f6e657860448201526b34b9ba32b73a103a37b5b2b760a11b6064820152608490fd5b1561185d57565b60405162461bcd60e51b8152602060048201526024808201527f4552433732313a207472616e7366657220746f20746865207a65726f206164646044820152637265737360e01b6064820152608490fd5b50634e487b7160e01b600052601160045260246000fd5b600181106118d5575b6000190190565b6118dd6118ae565b6118ce565b60019060011981116118f2570190565b6118fa6118ae565b0190565b60029060021981116118f2570190565b60209060201981116118f2570190565b90611928836114e1565b6001600160a01b038381169290918216839003611a0e576119826119e592821694611954861515611856565b61195f878483611cd4565b61196887611a65565b6001600160a01b0316600090815260036020526040902090565b61198c81546118c5565b90556001600160a01b03811660009081526003602052604090206119b081546118e2565b90556119c6856000526002602052604060002090565b80546001600160a01b0319166001600160a01b03909216919091179055565b7fddf252ad1be2c89b69c2b068fc378daa952ba7f163c4a11628f55a4df523b3ef6000604051a4565b60405162461bcd60e51b815260206004820152602960248201527f4552433732313a207472616e73666572206f6620746f6b656e2074686174206960448201526839903737ba1037bbb760b91b6064820152608490fd5b600081815260046020526040812080546001600160a01b03191690556001600160a01b03611a92836114e1565b167f8c5be1e5ebec7d5bd14f71427d1e84f3dd0314c0f7b2291e5b200ac8c7c3b92582604051a4565b600082815260046020526040902080546001600160a01b0319166001600160a01b0383161790556001600160a01b0380611af4846114e1565b169116907f8c5be1e5ebec7d5bd14f71427d1e84f3dd0314c0f7b2291e5b200ac8c7c3b9256000604051a4565b9081602091031261000e57516103b6816102b0565b6001600160a01b0391821681529116602082015260408101919091526080606082018190526103b692910190610380565b506040513d6000823e3d90fd5b3d15611b9f573d90611b8582610e0b565b91611b936040519384610dcb565b82523d6000602084013e565b606090565b92909190823b15611c5e57611bd7926020926000604051809681958294630a85bd0160e11b9a8b85523360048601611b36565b03926001600160a01b03165af160009181611c2e575b50611c2057611bfa611b74565b80519081611c1b5760405162461bcd60e51b8152806117066004820161170a565b602001fd5b6001600160e01b0319161490565b611c5091925060203d8111611c57575b611c488183610dcb565b810190611b21565b9038611bed565b503d611c3e565b50505050600190565b50634e487b7160e01b600052603260045260246000fd5b805460021015611c9a575b600052600260206000200190600090565b611ca2611c67565b611c89565b90611cb181611e31565b6001600160a01b038216611ccb57611cc99150611ea5565b565b611cc991611df9565b9091906001600160a01b038082169182611d0e5750611cf283611e31565b831680611d05575050611cc99150611ea5565b03611ccb575050565b8185168303611d1e575b50611cf2565b611d92611d2a82611469565b60018110611dec575b60001901611d8360009387855260076020526040852054838103611d99575b5084611d68896000526007602052604060002090565b556001600160a01b0316600090815260066020526040902090565b90600052602052604060002090565b5538611d18565b878652600660205260408620848752602052611de5604087205480611dd484611d838760018060a01b03166000526006602052604060002090565b556000526007602052604060002090565b5538611d52565b611df46118ae565b611d33565b604090611e0581611469565b9260009160018060a01b0316825260066020528282208483526020528083832055815260076020522055565b60085481600052600960205280604060002055600160401b811015611e98575b6001810180600855811015611e8b575b60086000527ff3f7a9fe364faab93b216da50a3214154f22a0a2b415b23a84c8169e8b636ee30155565b611e93611c67565b611e61565b611ea0610d71565b611e51565b6008611f1b81549260018410611f7a575b600091818392835260096020526040832054611f0a60001997808981011015611f6d575b87865288816020882001015490831015611f60575b87865280836020882001556000526009602052604060002090565b556000526009602052604060002090565b558154928315611f4c578084019380851015611f3f575b8383526020832001015555565b611f47611c67565b611f32565b634e487b7160e01b82526031600452602482fd5b611f68611c67565b611eef565b611f75611c67565b611eda565b611f826118ae565b611eb6565b15611f8e57565b60405162461bcd60e51b815260206004820152600c60248201526b444f4e45204d494e54494e4760a01b6044820152606490fd5b15611fc957565b60405162461bcd60e51b815260206004820152600a60248201526909c9ea8408a9c9eaa8e960b31b6044820152606490fd5b6103ea908060001904821181151516612012570290565b61201a6118ae565b0290565b6001600160fe1b038111600116612036575b60021b90565b61203e6118ae565b612030565b805491600392838355808410612086575b50906000526020806000206000925b848410612071575050505050565b60018382829351855501920193019290612063565b6000838152846020822092830192015b8281106120a4575050612054565b818155600101612096565b156120b657565b60405162461bcd60e51b815260206004820152600e60248201526d18dbdd5b19081b9bdd081cd95b9960921b6044820152606490fd5b6001600160a01b0381169081156121bf576121068361175d565b61217a57806121188461215093611ca7565b6001600160a01b038116600090815260036020526040902061213a81546118e2565b90556119c6846000526002602052604060002090565b60007fddf252ad1be2c89b69c2b068fc378daa952ba7f163c4a11628f55a4df523b3ef81604051a4565b60405162461bcd60e51b815260206004820152601c60248201527f4552433732313a20746f6b656e20616c7265616479206d696e746564000000006044820152606490fd5b606460405162461bcd60e51b815260206004820152602060248201527f4552433732313a206d696e7420746f20746865207a65726f20616464726573736044820152fd5b1561220a57565b60405162461bcd60e51b815260206004820152600660248201526508595e1a5cdd60d21b6044820152606490fd5b906118fa6020928281519485920161034b565b6040519061225882610db0565b6004825263536f636b60e01b6020830152565b60405190606082018281106001600160401b03821117612298575b604052602a8252604082602036910137565b6122a0610d71565b612286565b906122af82610e0b565b6122bc6040519182610dcb565b82815280926122cd601f1991610e0b565b0190602036910137565b9060209180518210156122e957010190565b6122f1611c67565b010190565b8015612392576000818181805b6123685750612311816122a5565b935b61231d5750505090565b612326906118c5565b90600a9060308282068019821161235b575b0160f81b6001600160f81b031916841a61235284876122d7565b53049081612313565b6123636118ae565b612338565b91506001600a916000198114612385575b01910480849291612303565b61238d6118ae565b612379565b5060405161239f81610db0565b60018152600360fc1b602082015290565b80156118d5576000190190565b156123c457565b606460405162461bcd60e51b815260206004820152602060248201527f537472696e67733a20686578206c656e67746820696e73756666696369656e746044820152fd5b61241061226b565b908151156124aa575b60306020830153815160019081101561249d575b90607860218401536029915b80831161244c57506103b69150156123bd565b9080600f61248992166010811015612490575b6f181899199a1a9b1b9c1cb0b131b232b360811b901a61247f85876122d7565b5360041c926123b0565b9190612439565b612498611c67565b61245f565b6124a5611c67565b61242d565b6124b2611c67565b612419565b60405190606082018281106001600160401b03821117612527575b604052604082527f6768696a6b6c6d6e6f707172737475767778797a303132333435363738392b2f6040837f4142434445464748494a4b4c4d4e4f505152535455565758595a61626364656660208201520152565b61252f610d71565b6124d2565b805115612614576125436124b7565b61255f61255a61255384516118fe565b6003900490565b61201e565b9161257161256c8461190e565b6122a5565b92835280815182019060208501935b8282106125c2575050506003905106806001146125b1576002146125a2575090565b603d60f81b6000199091015290565b50613d3d60f01b6001199091015290565b9091936004906003809401938451600190603f9082828260121c16880101518553828282600c1c16880101518386015382828260061c1688010151600286015316850101519082015301939190612580565b506103b66116af565b61262690612781565b6103b6608160405180937f3c73766720786d6c6e733d22687474703a2f2f7777772e77332e6f72672f323060208301527f30302f737667222077696474683d223130383022206865696768743d2231303860408301527f30222076696577426f783d2230203020313038302031303830223e000000000060608301526126b6815180926020607b8601910161034b565b8101651e17b9bb339f60d11b607b820152036061810184520182610dcb565b60208183031261000e578051906001600160401b03821161000e570181601f8201121561000e57805161270781610e0b565b926127156040519485610dcb565b8184526020828401011161000e576103b6916020808501910161034b565b6040906103b6939281528160208201520190610380565b91612773906127656103b69593606086526060860190610380565b908482036020860152610380565b916040818403910152610380565b6103b6612a1e9161282f61279482612c3e565b936127ac819392936000526011602052604060002090565b5473__$3f7f5b7df15ab580dadf91562e33ac998f$__6127d6836000526010602052604060002090565b5460409384519663749e421b60e01b88526000888181819b6128016004988983019190602083019252565b0381895af4908115612c31575b8291612c17575b508751809b819263132ffe9960e31b835289888401612733565b0381875af4988915612c0a575b8899612bd4575b509287926129a097959287956111f89b9c612959995198630f500e3b60e41b8a52878a806128788a8983019190602083019252565b0381895af4998a15612bc7575b889a612b99575b50916128fe898961292994819673__$1a9ce43643d07b5d2d447f788b54f84bee$__958a8551958587806128d26313f89b4360e31b978883528683019190602083019252565b03818c5af4968715612b8c575b8697612b6a575b50518381529081019182529584918791829160200190565b0381895af4948515612b5d575b8395612b41575b508d51968792839283528b83019190602083019252565b0381865af4938415612b34575b8594612b18575b508a51635a8289c960e01b81529c8d94859384938a850161274a565b03915af4978815612b0b575b8598612ae9575b506129828591600052600e602052604060002090565b548651809a8192630c0d0b6560e41b83528583019190602083019252565b038173__$4ad56025fb884537efa8d274801f471753$__5af4978815612adc575b8498612ab6575b50845163c9e3104760e01b81529081019283529291839190829081906020015b03915af4958615612aa9575b8096612a69575b5050612a5992612a53612a539593612a53612a5394519c8d9b60208d0190612238565b7f3c67207472616e73666f726d3d227472616e736c617465283138302c2031333081526214911f60e91b602082015260230190565b90612238565b631e17b39f60e11b815260040190565b612a53929650612a539593612a53612a9a612a599794612a53943d8091833e612a928183610dcb565b8101906126d5565b989450509395508194506129fb565b612ab1611b67565b6129f4565b6129e8949392919850612ad2903d8086833e612a928183610dcb565b97909192936129c8565b612ae4611b67565b6129c1565b85919850612b03612982913d8085833e612a928183610dcb565b98915061296c565b612b13611b67565b612965565b612b2d9194503d8087833e612a928183610dcb565b923861293d565b612b3c611b67565b612936565b612b569195503d8085833e612a928183610dcb565b9338612912565b612b65611b67565b61290b565b869392919750612b83903d8086833e612a928183610dcb565b969091926128e6565b612b94611b67565b6128df565b8893919a50898461292994612bba6128fe943d8085833e612a928183610dcb565b9d9496509450505061288c565b612bcf611b67565b612885565b6111f89950926129a0979592612959979592612bfa8b963d8089833e612a928183610dcb565b9b50929597509295975092612843565b612c12611b67565b61283c565b612c2b91503d8084833e612a928183610dcb565b38612815565b612c39611b67565b61280e565b612c4a610a908261175d565b600091818352600f60205260408320805415612cb9575b8352612ca2612c9d600160208087205496868152600f8252604081208054841015612cac575b815220015493600052600f602052604060002090565b611c7e565b90549060031b1c90565b612cb4611c67565b612c87565b612cc1611c67565b612c6156fea26469706673582212205e8e8b74c560471054153d413cf548d87d08c4629780e2d36bdf4c6c20447d5064736f6c634300080d0033",
  "linkReferences": {
    "contracts/SockBackgroundLibrary.sol": {
      "SockBackgroundLibrary": [
        {
          "length": 20,
          "start": 11310
        }
      ]
    },
    "contracts/SockLayoutLibrary.sol": {
      "SockLayoutLibrary": [
        {
          "length": 20,
          "start": 11546
        }
      ]
    },
    "contracts/SockPinLibrary.sol": {
      "SockPinLibrary": [
        {
          "length": 20,
          "start": 11811
        }
      ]
    }
  },
  "deployedLinkReferences": {
    "contracts/SockBackgroundLibrary.sol": {
      "SockBackgroundLibrary": [
        {
          "length": 20,
          "start": 10159
        }
      ]
    },
    "contracts/SockLayoutLibrary.sol": {
      "SockLayoutLibrary": [
        {
          "length": 20,
          "start": 10395
        }
      ]
    },
    "contracts/SockPinLibrary.sol": {
      "SockPinLibrary": [
        {
          "length": 20,
          "start": 10660
        }
      ]
    }
  }
}