{
  "_format": "hh-sol-artifact-1",
  "contractName": "ThisSocks",
  "sourceName": "contracts/ThisSocks.sol",
  "abi": [
    {
      "inputs": [],
      "stateMutability": "nonpayable",
      "type": "constructor"
    },
    {
      "anonymous": false,
      "inputs": [
        {
          "indexed": true,
          "internalType": "address",
          "name": "owner",
          "type": "address"
        },
        {
          "indexed": true,
          "internalType": "address",
          "name": "approved",
          "type": "address"
        },
        {
          "indexed": true,
          "internalType": "uint256",
          "name": "tokenId",
          "type": "uint256"
        }
      ],
      "name": "Approval",
      "type": "event"
    },
    {
      "anonymous": false,
      "inputs": [
        {
          "indexed": true,
          "internalType": "address",
          "name": "owner",
          "type": "address"
        },
        {
          "indexed": true,
          "internalType": "address",
          "name": "operator",
          "type": "address"
        },
        {
          "indexed": false,
          "internalType": "bool",
          "name": "approved",
          "type": "bool"
        }
      ],
      "name": "ApprovalForAll",
      "type": "event"
    },
    {
      "anonymous": false,
      "inputs": [
        {
          "indexed": true,
          "internalType": "address",
          "name": "previousOwner",
          "type": "address"
        },
        {
          "indexed": true,
          "internalType": "address",
          "name": "newOwner",
          "type": "address"
        }
      ],
      "name": "OwnershipTransferred",
      "type": "event"
    },
    {
      "anonymous": false,
      "inputs": [
        {
          "indexed": true,
          "internalType": "address",
          "name": "from",
          "type": "address"
        },
        {
          "indexed": true,
          "internalType": "address",
          "name": "to",
          "type": "address"
        },
        {
          "indexed": true,
          "internalType": "uint256",
          "name": "tokenId",
          "type": "uint256"
        }
      ],
      "name": "Transfer",
      "type": "event"
    },
    {
      "inputs": [
        {
          "internalType": "address",
          "name": "to",
          "type": "address"
        },
        {
          "internalType": "uint256",
          "name": "tokenId",
          "type": "uint256"
        }
      ],
      "name": "approve",
      "outputs": [],
      "stateMutability": "nonpayable",
      "type": "function"
    },
    {
      "inputs": [
        {
          "internalType": "address",
          "name": "owner",
          "type": "address"
        }
      ],
      "name": "balanceOf",
      "outputs": [
        {
          "internalType": "uint256",
          "name": "",
          "type": "uint256"
        }
      ],
      "stateMutability": "view",
      "type": "function"
    },
    {
      "inputs": [],
      "name": "curve",
      "outputs": [
        {
          "internalType": "uint256",
          "name": "",
          "type": "uint256"
        }
      ],
      "stateMutability": "view",
      "type": "function"
    },
    {
      "inputs": [
        {
          "internalType": "uint256",
          "name": "tokenId",
          "type": "uint256"
        }
      ],
      "name": "getApproved",
      "outputs": [
        {
          "internalType": "address",
          "name": "",
          "type": "address"
        }
      ],
      "stateMutability": "view",
      "type": "function"
    },
    {
      "inputs": [
        {
          "internalType": "uint256",
          "name": "id",
          "type": "uint256"
        }
      ],
      "name": "getBackgroundByTokenId",
      "outputs": [
        {
          "internalType": "uint256",
          "name": "",
          "type": "uint256"
        }
      ],
      "stateMutability": "view",
      "type": "function"
    },
    {
      "inputs": [
        {
          "internalType": "uint256",
          "name": "id",
          "type": "uint256"
        }
      ],
      "name": "getBackgroundTypeByTokenId",
      "outputs": [
        {
          "internalType": "uint256",
          "name": "",
          "type": "uint256"
        }
      ],
      "stateMutability": "view",
      "type": "function"
    },
    {
      "inputs": [
        {
          "internalType": "uint256",
          "name": "id",
          "type": "uint256"
        }
      ],
      "name": "getColorsByTokenId",
      "outputs": [
        {
          "internalType": "uint256",
          "name": "color1",
          "type": "uint256"
        },
        {
          "internalType": "uint256",
          "name": "color2",
          "type": "uint256"
        },
        {
          "internalType": "uint256",
          "name": "color3",
          "type": "uint256"
        }
      ],
      "stateMutability": "view",
      "type": "function"
    },
    {
      "inputs": [
        {
          "internalType": "uint256",
          "name": "id",
          "type": "uint256"
        }
      ],
      "name": "getPatternByTokenId",
      "outputs": [
        {
          "internalType": "uint256",
          "name": "",
          "type": "uint256"
        }
      ],
      "stateMutability": "view",
      "type": "function"
    },
    {
      "inputs": [
        {
          "internalType": "uint256",
          "name": "id",
          "type": "uint256"
        }
      ],
      "name": "getPinByTokenId",
      "outputs": [
        {
          "internalType": "uint256",
          "name": "",
          "type": "uint256"
        }
      ],
      "stateMutability": "view",
      "type": "function"
    },
    {
      "inputs": [
        {
          "internalType": "address",
          "name": "owner",
          "type": "address"
        },
        {
          "internalType": "address",
          "name": "operator",
          "type": "address"
        }
      ],
      "name": "isApprovedForAll",
      "outputs": [
        {
          "internalType": "bool",
          "name": "",
          "type": "bool"
        }
      ],
      "stateMutability": "view",
      "type": "function"
    },
    {
      "inputs": [],
      "name": "limit",
      "outputs": [
        {
          "internalType": "uint256",
          "name": "",
          "type": "uint256"
        }
      ],
      "stateMutability": "view",
      "type": "function"
    },
    {
      "inputs": [],
      "name": "mintItem",
      "outputs": [
        {
          "internalType": "uint256",
          "name": "",
          "type": "uint256"
        }
      ],
      "stateMutability": "payable",
      "type": "function"
    },
    {
      "inputs": [],
      "name": "name",
      "outputs": [
        {
          "internalType": "string",
          "name": "",
          "type": "string"
        }
      ],
      "stateMutability": "view",
      "type": "function"
    },
    {
      "inputs": [],
      "name": "owner",
      "outputs": [
        {
          "internalType": "address",
          "name": "",
          "type": "address"
        }
      ],
      "stateMutability": "view",
      "type": "function"
    },
    {
      "inputs": [
        {
          "internalType": "uint256",
          "name": "tokenId",
          "type": "uint256"
        }
      ],
      "name": "ownerOf",
      "outputs": [
        {
          "internalType": "address",
          "name": "",
          "type": "address"
        }
      ],
      "stateMutability": "view",
      "type": "function"
    },
    {
      "inputs": [],
      "name": "price",
      "outputs": [
        {
          "internalType": "uint256",
          "name": "",
          "type": "uint256"
        }
      ],
      "stateMutability": "view",
      "type": "function"
    },
    {
      "inputs": [],
      "name": "recipient",
      "outputs": [
        {
          "internalType": "address payable",
          "name": "",
          "type": "address"
        }
      ],
      "stateMutability": "view",
      "type": "function"
    },
    {
      "inputs": [
        {
          "internalType": "uint256",
          "name": "id",
          "type": "uint256"
        }
      ],
      "name": "renderTokenById",
      "outputs": [
        {
          "internalType": "string",
          "name": "",
          "type": "string"
        }
      ],
      "stateMutability": "view",
      "type": "function"
    },
    {
      "inputs": [],
      "name": "renounceOwnership",
      "outputs": [],
      "stateMutability": "nonpayable",
      "type": "function"
    },
    {
      "inputs": [
        {
          "internalType": "address",
          "name": "from",
          "type": "address"
        },
        {
          "internalType": "address",
          "name": "to",
          "type": "address"
        },
        {
          "internalType": "uint256",
          "name": "tokenId",
          "type": "uint256"
        }
      ],
      "name": "safeTransferFrom",
      "outputs": [],
      "stateMutability": "nonpayable",
      "type": "function"
    },
    {
      "inputs": [
        {
          "internalType": "address",
          "name": "from",
          "type": "address"
        },
        {
          "internalType": "address",
          "name": "to",
          "type": "address"
        },
        {
          "internalType": "uint256",
          "name": "tokenId",
          "type": "uint256"
        },
        {
          "internalType": "bytes",
          "name": "_data",
          "type": "bytes"
        }
      ],
      "name": "safeTransferFrom",
      "outputs": [],
      "stateMutability": "nonpayable",
      "type": "function"
    },
    {
      "inputs": [
        {
          "internalType": "address",
          "name": "operator",
          "type": "address"
        },
        {
          "internalType": "bool",
          "name": "approved",
          "type": "bool"
        }
      ],
      "name": "setApprovalForAll",
      "outputs": [],
      "stateMutability": "nonpayable",
      "type": "function"
    },
    {
      "inputs": [
        {
          "internalType": "uint256",
          "name": "id",
          "type": "uint256"
        },
        {
          "internalType": "uint256",
          "name": "backgroundId",
          "type": "uint256"
        }
      ],
      "name": "setBackgroundByTokenId",
      "outputs": [],
      "stateMutability": "nonpayable",
      "type": "function"
    },
    {
      "inputs": [
        {
          "internalType": "uint256",
          "name": "id",
          "type": "uint256"
        },
        {
          "internalType": "uint256",
          "name": "backgroundType",
          "type": "uint256"
        }
      ],
      "name": "setBackgroundTypeByTokenId",
      "outputs": [],
      "stateMutability": "nonpayable",
      "type": "function"
    },
    {
      "inputs": [
        {
          "internalType": "uint256",
          "name": "id",
          "type": "uint256"
        },
        {
          "internalType": "uint256",
          "name": "color1",
          "type": "uint256"
        },
        {
          "internalType": "uint256",
          "name": "color2",
          "type": "uint256"
        },
        {
          "internalType": "uint256",
          "name": "color3",
          "type": "uint256"
        }
      ],
      "name": "setColorsByTokenId",
      "outputs": [],
      "stateMutability": "nonpayable",
      "type": "function"
    },
    {
      "inputs": [
        {
          "internalType": "uint256",
          "name": "id",
          "type": "uint256"
        },
        {
          "internalType": "uint256",
          "name": "pattern",
          "type": "uint256"
        }
      ],
      "name": "setPatternByTokenId",
      "outputs": [],
      "stateMutability": "nonpayable",
      "type": "function"
    },
    {
      "inputs": [
        {
          "internalType": "uint256",
          "name": "id",
          "type": "uint256"
        },
        {
          "internalType": "uint256",
          "name": "pinId",
          "type": "uint256"
        }
      ],
      "name": "setPinByTokenId",
      "outputs": [],
      "stateMutability": "nonpayable",
      "type": "function"
    },
    {
      "inputs": [
        {
          "internalType": "bytes4",
          "name": "interfaceId",
          "type": "bytes4"
        }
      ],
      "name": "supportsInterface",
      "outputs": [
        {
          "internalType": "bool",
          "name": "",
          "type": "bool"
        }
      ],
      "stateMutability": "view",
      "type": "function"
    },
    {
      "inputs": [],
      "name": "symbol",
      "outputs": [
        {
          "internalType": "string",
          "name": "",
          "type": "string"
        }
      ],
      "stateMutability": "view",
      "type": "function"
    },
    {
      "inputs": [
        {
          "internalType": "uint256",
          "name": "index",
          "type": "uint256"
        }
      ],
      "name": "tokenByIndex",
      "outputs": [
        {
          "internalType": "uint256",
          "name": "",
          "type": "uint256"
        }
      ],
      "stateMutability": "view",
      "type": "function"
    },
    {
      "inputs": [
        {
          "internalType": "address",
          "name": "owner",
          "type": "address"
        },
        {
          "internalType": "uint256",
          "name": "index",
          "type": "uint256"
        }
      ],
      "name": "tokenOfOwnerByIndex",
      "outputs": [
        {
          "internalType": "uint256",
          "name": "",
          "type": "uint256"
        }
      ],
      "stateMutability": "view",
      "type": "function"
    },
    {
      "inputs": [
        {
          "internalType": "uint256",
          "name": "id",
          "type": "uint256"
        }
      ],
      "name": "tokenURI",
      "outputs": [
        {
          "internalType": "string",
          "name": "",
          "type": "string"
        }
      ],
      "stateMutability": "view",
      "type": "function"
    },
    {
      "inputs": [],
      "name": "totalSupply",
      "outputs": [
        {
          "internalType": "uint256",
          "name": "",
          "type": "uint256"
        }
      ],
      "stateMutability": "view",
      "type": "function"
    },
    {
      "inputs": [
        {
          "internalType": "address",
          "name": "from",
          "type": "address"
        },
        {
          "internalType": "address",
          "name": "to",
          "type": "address"
        },
        {
          "internalType": "uint256",
          "name": "tokenId",
          "type": "uint256"
        }
      ],
      "name": "transferFrom",
      "outputs": [],
      "stateMutability": "nonpayable",
      "type": "function"
    },
    {
      "inputs": [
        {
          "internalType": "address",
          "name": "newOwner",
          "type": "address"
        }
      ],
      "name": "transferOwnership",
      "outputs": [],
      "stateMutability": "nonpayable",
      "type": "function"
    }
  ],
  "bytecode": "0x6080604052346200018b5762000014620001a7565b60206754686973536f636b60c01b8183015262000030620001dc565b6254485360e81b8282015282519091906001600160401b0381116200017b575b6000916200006a826200006485546200023d565b6200027a565b80601f8311600114620000ed57508190620000a1958492620000e1575b50508160011b916000199060031b1c19161790556200032e565b620000ac3362000430565b620000c0620000bb4262000211565b600c55565b620000d166038d7ea4c68000600d55565b60405161314690816200047f8239f35b01519050388062000087565b600080529194601f1986167f290decd9548b62a8d60345a988386fc84ba6bc95484008f6362f93160ef3e5639385905b82821062000162575050916001939187620000a198941062000148575b505050811b0190556200032e565b015160001960f88460031b161c191690553880806200013a565b806001869782949787015181550196019401906200011d565b6200018562000190565b62000050565b600080fd5b50634e487b7160e01b600052604160045260246000fd5b60408051919082016001600160401b03811183821017620001cc575b60405260088252565b620001d662000190565b620001c3565b60408051919082016001600160401b0381118382101762000201575b60405260038252565b6200020b62000190565b620001f8565b6312cc030019811162000227576312cc03000190565b634e487b7160e01b600052601160045260246000fd5b90600182811c921680156200026f575b60208310146200025957565b634e487b7160e01b600052602260045260246000fd5b91607f16916200024d565b601f811162000287575050565b60009081805260208220906020601f850160051c83019410620002c7575b601f0160051c01915b828110620002bb57505050565b818155600101620002ae565b9092508290620002a5565b90601f8211620002e0575050565b60019160009083825260208220906020601f850160051c8301941062000323575b601f0160051c01915b828110620003185750505050565b81815583016200030a565b909250829062000301565b80519091906001600160401b03811162000420575b6001906200035d816200035784546200023d565b620002d2565b602080601f83116001146200039b5750819293946000926200038f575b5050600019600383901b1c191690821b179055565b0151905038806200037a565b6001600052601f198316959091907fb10e2d527612073b26eecdfd717e6a320cf44b4afac2b0732d9fcbe2b7fa0cf6926000905b888210620004085750508385969710620003ee575b505050811b019055565b015160001960f88460031b161c19169055388080620003e4565b808785968294968601518155019501930190620003cf565b6200042a62000190565b62000343565b600a80546001600160a01b039283166001600160a01b031982168117909255604051919216907f8be0079c531659141344cd1fd0a4f28419497f9722a3daafe3b4186f6b6457e090600090a356fe60806040526004361015610013575b600080fd5b60003560e01c806301ffc9a7146102cf57806306fdde03146102c6578063081812fc146102bd578063095ea7b3146102b457806318160ddd146102ab57806323b872dd146102a25780632bf19156146102995780632f745c59146102905780632ff78f9e1461028757806342842e0e1461027e5780634f6ccce7146102755780635af545dc1461026c5780635e3ec0761461026357806360f426131461025a5780636352211e1461025157806366d003ac146102485780636ef0517a1461023f57806370a0823114610236578063715018a61461022d5780637165485d146102245780637d5185321461021b578063815ef883146102125780638da5cb5b1461020957806395d89b4114610200578063a035b1fe146101f7578063a22cb465146101ee578063a2d6c6da146101e5578063a4d66daf146101dc578063b88d4fde146101d3578063bbcda2d6146101ca578063c87b56dd146101c1578063e985e9c5146101b8578063eb93406b146101af578063f2fde38b146101a65763f649d9951461019e57600080fd5b61000e611750565b5061000e6116b9565b5061000e6114c5565b5061000e611467565b5061000e610f10565b5061000e610ef1565b5061000e610e68565b5061000e610d86565b5061000e610d52565b5061000e610c69565b5061000e610c4a565b5061000e610b88565b5061000e610b5e565b5061000e610aa2565b5061000e610a75565b5061000e610a57565b5061000e6109f2565b5061000e6109c6565b5061000e610999565b5061000e610969565b5061000e61094a565b5061000e61090d565b5061000e6108e0565b5061000e6108b3565b5061000e610807565b5061000e6107c0565b5061000e610793565b5061000e6106df565b5061000e6106b2565b5061000e610688565b5061000e610634565b5061000e610544565b5061000e6104e7565b5061000e6103e1565b5061000e6102ea565b6001600160e01b031981160361000e57565b503461000e57602036600319011261000e57602060043561030a816102d8565b63ffffffff60e01b1663780e9d6360e01b8114908115610330575b506040519015158152f35b6380ac58cd60e01b811491508115610362575b8115610351575b5038610325565b6301ffc9a760e01b1490503861034a565b635b5e139f60e01b81149150610343565b918091926000905b82821061039357501161038c575050565b6000910152565b9150806020918301518186015201829161037b565b906020916103c181518092818552858086019101610373565b601f01601f1916010190565b9060206103de9281815201906103a8565b90565b503461000e576000806003193601126104e457604051908080549060019180831c928082169283156104da575b60209283861085146104c65785885260208801949081156104aa5750600114610452575b61044e8761044281890382610dfe565b604051918291826103cd565b0390f35b6000805294509192917f290decd9548b62a8d60345a988386fc84ba6bc95484008f6362f93160ef3e5635b83861061049957505050910190506104428261044e3880610432565b80548587015294820194810161047d565b60ff1916855250505001915061044290508261044e3880610432565b634e487b7160e01b82526022600452602482fd5b93607f169361040e565b80fd5b503461000e57602036600319011261000e57602061050660043561197f565b6040516001600160a01b039091168152f35b600435906001600160a01b038216820361000e57565b602435906001600160a01b038216820361000e57565b503461000e57604036600319011261000e5761055e610518565b60243561056a8161189a565b916001600160a01b0380841690821681146105e55761059c9361059791331490811561059e575b50611912565b611e74565b005b6001600160a01b031660009081526005602052604090206105df91506105d89033905b9060018060a01b0316600052602052604060002090565b5460ff1690565b38610591565b60405162461bcd60e51b815260206004820152602160248201527f4552433732313a20617070726f76616c20746f2063757272656e74206f776e656044820152603960f91b6064820152608490fd5b503461000e57600036600319011261000e576020600854604051908152f35b606090600319011261000e576001600160a01b0390600435828116810361000e5791602435908116810361000e579060443590565b503461000e5761059c61069a36610653565b916106ad6106a88433611b33565b611a02565b611cd7565b503461000e57602036600319011261000e5760043560005260106020526020604060002054604051908152f35b503461000e57604036600319011261000e576106f9610518565b6024359061070681611822565b82101561073a576001600160a01b031660009081526006602090815260408083209383529281529082902054915191825290f35b60405162461bcd60e51b815260206004820152602b60248201527f455243373231456e756d657261626c653a206f776e657220696e646578206f7560448201526a74206f6620626f756e647360a81b6064820152608490fd5b503461000e57604036600319011261000e5760043560005260116020526024356040600020556000604051f35b503461000e5761059c6107d236610653565b9060405192602084018481106001600160401b038211176107fa575b60405260008452611a7b565b610802610da4565b6107ee565b503461000e57602036600319011261000e576004356008548110156108595760086000527ff3f7a9fe364faab93b216da50a3214154f22a0a2b415b23a84c8169e8b636ee30154604051908152602090f35b60405162461bcd60e51b815260206004820152602c60248201527f455243373231456e756d657261626c653a20676c6f62616c20696e646578206f60448201526b7574206f6620626f756e647360a01b6064820152608490fd5b503461000e57602036600319011261000e5760043560005260116020526020604060002054604051908152f35b503461000e57604036600319011261000e5760043560005260106020526024356040600020556000604051f35b503461000e57602036600319011261000e5761044e61092d60043561306b565b604080519384526020840192909252908201529081906060820190565b503461000e57602036600319011261000e57602061050660043561189a565b503461000e57600036600319011261000e5760206040517354179e1770a780f2f541f23cb21252de12977d3c8152f35b503461000e57604036600319011261000e57600435600052600e6020526024356040600020556000604051f35b503461000e57602036600319011261000e5760206109ea6109e5610518565b611822565b604051908152f35b503461000e576000806003193601126104e457600a546001600160a01b03811690610a1e338314611789565b6001600160a01b031916600a556040519082907f8be0079c531659141344cd1fd0a4f28419497f9722a3daafe3b4186f6b6457e08284a3f35b503461000e57600036600319011261000e5760206040516103ea8152f35b503461000e57602036600319011261000e57600435600052600e6020526020604060002054604051908152f35b503461000e57608036600319011261000e57600435610ac8610ac382611b16565b6125bc565b600090808252600f60205260408220805415610b51575b82526024356020832055808252600f60205260408220805460011015610b44575b825260443560016020842001558152600f602052610b3f610b2360408320612037565b6064359082549060031b600019811b9283911b16911916179055565b604051f35b610b4c612020565b610b00565b610b59612020565b610adf565b503461000e57600036600319011261000e57600a546040516001600160a01b039091168152602090f35b503461000e576000806003193601126104e4576040519080600190815480831c92808216928315610c40575b60209283861085146104c65785885260208801949081156104aa5750600114610be75761044e8761044281890382610dfe565b600160005294509192917fb10e2d527612073b26eecdfd717e6a320cf44b4afac2b0732d9fcbe2b7fa0cf65b838610610c2f57505050910190506104428261044e3880610432565b805485870152948201948101610c13565b93607f1693610bb4565b503461000e57600036600319011261000e576020600d54604051908152f35b503461000e57604036600319011261000e57610c83610518565b602435801515810361000e576001600160a01b03821691338314610d115781610cce610cdf9233600052600560205260406000209060018060a01b0316600052602052604060002090565b9060ff801983541691151516179055565b604051901515815233907f17307eab39ab6107e8899845ad3d59bd9653f200f220920489ca2b5937696c3190602090a3005b60405162461bcd60e51b815260206004820152601960248201527822a9219b99189d1030b8383937bb32903a379031b0b63632b960391b6044820152606490fd5b503461000e57602036600319011261000e5761044e610d72600435612b47565b6040519182916020835260208301906103a8565b503461000e57600036600319011261000e576020604051610e908152f35b50634e487b7160e01b600052604160045260246000fd5b602081019081106001600160401b03821117610dd657604052565b610dde610da4565b604052565b604081019081106001600160401b03821117610dd657604052565b90601f801991011681019081106001600160401b03821117610dd657604052565b60405190606082018281106001600160401b03821117610dd657604052565b6020906001600160401b038111610e5b575b601f01601f19160190565b610e63610da4565b610e50565b503461000e57608036600319011261000e57610e82610518565b610e8a61052e565b606435916001600160401b03831161000e573660238401121561000e57826004013591610eb683610e3e565b92610ec46040519485610dfe565b808452366024828701011161000e57602081600092602461059c9801838801378501015260443591611a7b565b503461000e57602036600319011261000e5760206109ea6004356130f3565b503461000e57602036600319011261000e5760048035610f32610ac382611b16565b610f3b8161271a565b6040805165536f636b202360d01b60208201529092918190610f619060268301906125f1565b0393610f75601f1995868101845283610dfe565b610f7d612604565b5061111c610f92610f8d85612a41565b612958565b93856110328151966000958694858a52610fab8a610dbb565b610fb48161306b565b9791969093610fc28461271a565b93610fe6610fe1610fd5610fd58461189a565b6001600160a01b031690565b61282c565b9573__$772a75894d036a7365d3d456d63c619b1e$__9985611012846000526010602052604060002090565b548c875180809e819463a81f66ed60e01b83528a83019190602083019252565b03915af4998a1561145a575b869a61143e575b508561108061105e856000526011602052604060002090565b54875163e28b34df60e01b81528781019182529d8e9290918391829160200190565b03915af49a8b15611431575b869b611411575b50845163357c470d60e21b81528481019182526020820192909252604081019b909b529984908b908190606001038173__$1a9ce43643d07b5d2d447f788b54f84bee$__5af4998a15611404575b849a6113e8575b50836110fe82600052600e602052604060002090565b548451809d81926326549a8f60e11b83528683019190602083019252565b038173__$45d2f044cbc76663f5d423dd998b62c3f2$__5af49a8b156113db575b849b6113b1575b50906111546111719493926130f3565b91519384928392635cb9c28560e01b845283019190602083019252565b038173__$74f2c8579a45ff0cd4ba0b2f14fdf61d51$__5af49889156113a4575b809961137f575b50508a51683d913730b6b2911d1160b91b6020820152998a9960298b016111bf916125f1565b701116113232b9b1b934b83a34b7b7111d1160791b81526011016111e2916125f1565b7f222c2265787465726e616c5f75726c223a2268747470733a2f2f74686973736f81526d636b732e636f6d2f746f6b656e2f60901b6020820152602e01611228916125f1565b6b1116101137bbb732b9111d1160a11b8152600c01611246916125f1565b6b11161134b6b0b3b2911d101160a11b8152600c017f646174613a696d6167652f7376672b786d6c3b6261736536342c0000000000008152601a0161128a916125f1565b61088b60f21b81526002016d2261747472696275746573223a5b60901b8152600e016112b5916125f1565b6112be90612682565b6112c7916125f1565b6112d090612682565b6112d9916125f1565b6112e290612682565b6112eb916125f1565b6112f490612682565b6112fd916125f1565b605d60f81b8152600101607d60f81b81526001010383810182526113219082610dfe565b61132a90612958565b81517f646174613a6170706c69636174696f6e2f6a736f6e3b6261736536342c000000602082015292908390603d8201611363916125f1565b0390810183526113739083610dfe565b5161044e8192826103cd565b61139c9299503d8091833e6113948183610dfe565b810190612624565b963880611199565b6113ac611f20565b611192565b611171949392919b506113d0611154913d8087833e6113948183610dfe565b9b9192939450611144565b6113e3611f20565b61113d565b6113fd919a503d8086833e6113948183610dfe565b98386110e8565b61140c611f20565b6110e1565b8692919b50611429903d8085833e6113948183610dfe565b9a9091611093565b611439611f20565b61108c565b611453919a503d8088833e6113948183610dfe565b9838611045565b611462611f20565b61103e565b503461000e57604036600319011261000e57602060ff6114b9611488610518565b61149061052e565b6001600160a01b0391821660009081526005865260408082209290931681526020919091522090565b54166040519015158152f35b506000806003193601126104e45761044e906116a9600c916114e983544210612340565b61151361150e611506600d546115018134101561237b565b6123b4565b6103e8900490565b600d55565b6115216001600b5401600b55565b600b549261152f84336124a5565b600f61153a43611c7e565b60408051602081018881529240918101919091526bffffffffffffffffffffffff1933606090811b82168184015230901b16607482015260688152611580608882610dfe565b5190209160ff83816014819660061a828460051a831b161706166115ae89600052600e602052604060002090565b5581601f6115ba610e1f565b9482818560021a828760011a831b16170616865282818560091a828760081a831b16170616602087015261161984601e1a96848660141a93898286831b1617061660408201526116148d600052600f602052604060002090565b6123fc565b82600b8186168287601b1a831b1617061661163e8c6000526010602052604060002090565b55828460161a91831b1617061661165f896000526011602052604060002090565b55600a1a831b1617061661167d846000526012602052604060002090565b558080604051347354179e1770a780f2f541f23cb21252de12977d3c5af16116a3611f2d565b50612468565b6040519081529081906020820190565b503461000e57602036600319011261000e576116d3610518565b600a546001600160a01b03906116ec9082163314611789565b8116156116fc5761059c906117d4565b60405162461bcd60e51b815260206004820152602660248201527f4f776e61626c653a206e6577206f776e657220697320746865207a65726f206160448201526564647265737360d01b6064820152608490fd5b503461000e57604036600319011261000e57600435611771610ac382611b16565b60005260126020526024356040600020556000604051f35b1561179057565b606460405162461bcd60e51b815260206004820152602060248201527f4f776e61626c653a2063616c6c6572206973206e6f7420746865206f776e65726044820152fd5b600a80546001600160a01b039283166001600160a01b031982168117909255604051919216907f8be0079c531659141344cd1fd0a4f28419497f9722a3daafe3b4186f6b6457e090600090a3565b6001600160a01b0316801561184257600052600360205260406000205490565b60405162461bcd60e51b815260206004820152602a60248201527f4552433732313a2062616c616e636520717565727920666f7220746865207a65604482015269726f206164647265737360b01b6064820152608490fd5b6000908152600260205260409020546001600160a01b031680156118bb5790565b60405162461bcd60e51b815260206004820152602960248201527f4552433732313a206f776e657220717565727920666f72206e6f6e657869737460448201526832b73a103a37b5b2b760b91b6064820152608490fd5b1561191957565b60405162461bcd60e51b815260206004820152603860248201527f4552433732313a20617070726f76652063616c6c6572206973206e6f74206f776044820152771b995c881b9bdc88185c1c1c9bdd995908199bdc88185b1b60421b6064820152608490fd5b61198881611b16565b156119a8576000908152600460205260409020546001600160a01b031690565b60405162461bcd60e51b815260206004820152602c60248201527f4552433732313a20617070726f76656420717565727920666f72206e6f6e657860448201526b34b9ba32b73a103a37b5b2b760a11b6064820152608490fd5b15611a0957565b60405162461bcd60e51b815260206004820152603160248201527f4552433732313a207472616e736665722063616c6c6572206973206e6f74206f6044820152701ddb995c881b9bdc88185c1c1c9bdd9959607a1b6064820152608490fd5b60405190611a7582610dbb565b60008252565b90611a9f939291611a8f6106a88433611b33565b611a9a838383611cd7565b611f5d565b15611aa657565b60405162461bcd60e51b815280611abf60048201611ac3565b0390fd5b60809060208152603260208201527f4552433732313a207472616e7366657220746f206e6f6e20455243373231526560408201527131b2b4bb32b91034b6b83632b6b2b73a32b960711b60608201520190565b6000908152600260205260409020546001600160a01b0316151590565b611b3c82611b16565b15611bb557611b4a8261189a565b6001600160a01b038281168282168114949091908515611b9d575b5050508215611b7357505090565b6001600160a01b0316600090815260056020526040902060ff9250611b9891906105c1565b541690565b611baa919293955061197f565b161491388080611b65565b60405162461bcd60e51b815260206004820152602c60248201527f4552433732313a206f70657261746f7220717565727920666f72206e6f6e657860448201526b34b9ba32b73a103a37b5b2b760a11b6064820152608490fd5b15611c1657565b60405162461bcd60e51b8152602060048201526024808201527f4552433732313a207472616e7366657220746f20746865207a65726f206164646044820152637265737360e01b6064820152608490fd5b50634e487b7160e01b600052601160045260246000fd5b60018110611c8e575b6000190190565b611c96611c67565b611c87565b6001906001198111611cab570190565b611cb3611c67565b0190565b6002906002198111611cab570190565b6020906020198111611cab570190565b90611ce18361189a565b6001600160a01b038381169290918216839003611dc757611d3b611d9e92821694611d0d861515611c0f565b611d1887848361208d565b611d2187611e1e565b6001600160a01b0316600090815260036020526040902090565b611d458154611c7e565b90556001600160a01b0381166000908152600360205260409020611d698154611c9b565b9055611d7f856000526002602052604060002090565b80546001600160a01b0319166001600160a01b03909216919091179055565b7fddf252ad1be2c89b69c2b068fc378daa952ba7f163c4a11628f55a4df523b3ef6000604051a4565b60405162461bcd60e51b815260206004820152602960248201527f4552433732313a207472616e73666572206f6620746f6b656e2074686174206960448201526839903737ba1037bbb760b91b6064820152608490fd5b600081815260046020526040812080546001600160a01b03191690556001600160a01b03611e4b8361189a565b167f8c5be1e5ebec7d5bd14f71427d1e84f3dd0314c0f7b2291e5b200ac8c7c3b92582604051a4565b600082815260046020526040902080546001600160a01b0319166001600160a01b0383161790556001600160a01b0380611ead8461189a565b169116907f8c5be1e5ebec7d5bd14f71427d1e84f3dd0314c0f7b2291e5b200ac8c7c3b9256000604051a4565b9081602091031261000e57516103de816102d8565b6001600160a01b0391821681529116602082015260408101919091526080606082018190526103de929101906103a8565b506040513d6000823e3d90fd5b3d15611f58573d90611f3e82610e3e565b91611f4c6040519384610dfe565b82523d6000602084013e565b606090565b92909190823b1561201757611f90926020926000604051809681958294630a85bd0160e11b9a8b85523360048601611eef565b03926001600160a01b03165af160009181611fe7575b50611fd957611fb3611f2d565b80519081611fd45760405162461bcd60e51b815280611abf60048201611ac3565b602001fd5b6001600160e01b0319161490565b61200991925060203d8111612010575b6120018183610dfe565b810190611eda565b9038611fa6565b503d611ff7565b50505050600190565b50634e487b7160e01b600052603260045260246000fd5b805460021015612053575b600052600260206000200190600090565b61205b612020565b612042565b9061206a816121ea565b6001600160a01b03821661208457612082915061225e565b565b612082916121b2565b9091906001600160a01b0380821691826120c757506120ab836121ea565b8316806120be575050612082915061225e565b03612084575050565b81851683036120d7575b506120ab565b61214b6120e382611822565b600181106121a5575b6000190161213c60009387855260076020526040852054838103612152575b5084612121896000526007602052604060002090565b556001600160a01b0316600090815260066020526040902090565b90600052602052604060002090565b55386120d1565b87865260066020526040862084875260205261219e60408720548061218d8461213c8760018060a01b03166000526006602052604060002090565b556000526007602052604060002090565b553861210b565b6121ad611c67565b6120ec565b6040906121be81611822565b9260009160018060a01b0316825260066020528282208483526020528083832055815260076020522055565b60085481600052600960205280604060002055600160401b811015612251575b6001810180600855811015612244575b60086000527ff3f7a9fe364faab93b216da50a3214154f22a0a2b415b23a84c8169e8b636ee30155565b61224c612020565b61221a565b612259610da4565b61220a565b60086122d481549260018410612333575b6000918183928352600960205260408320546122c360001997808981011015612326575b87865288816020882001015490831015612319575b87865280836020882001556000526009602052604060002090565b556000526009602052604060002090565b5581549283156123055780840193808510156122f8575b8383526020832001015555565b612300612020565b6122eb565b634e487b7160e01b82526031600452602482fd5b612321612020565b6122a8565b61232e612020565b612293565b61233b611c67565b61226f565b1561234757565b60405162461bcd60e51b815260206004820152600c60248201526b444f4e45204d494e54494e4760a01b6044820152606490fd5b1561238257565b60405162461bcd60e51b815260206004820152600a60248201526909c9ea8408a9c9eaa8e960b31b6044820152606490fd5b6103ea9080600019048211811515166123cb570290565b6123d3611c67565b0290565b6001600160fe1b0381116001166123ef575b60021b90565b6123f7611c67565b6123e9565b80549160039283835580841061243f575b50906000526020806000206000925b84841061242a575050505050565b6001838282935185550192019301929061241c565b6000838152846020822092830192015b82811061245d57505061240d565b81815560010161244f565b1561246f57565b60405162461bcd60e51b815260206004820152600e60248201526d18dbdd5b19081b9bdd081cd95b9960921b6044820152606490fd5b6001600160a01b038116908115612578576124bf83611b16565b61253357806124d18461250993612060565b6001600160a01b03811660009081526003602052604090206124f38154611c9b565b9055611d7f846000526002602052604060002090565b60007fddf252ad1be2c89b69c2b068fc378daa952ba7f163c4a11628f55a4df523b3ef81604051a4565b60405162461bcd60e51b815260206004820152601c60248201527f4552433732313a20746f6b656e20616c7265616479206d696e746564000000006044820152606490fd5b606460405162461bcd60e51b815260206004820152602060248201527f4552433732313a206d696e7420746f20746865207a65726f20616464726573736044820152fd5b156125c357565b60405162461bcd60e51b815260206004820152600660248201526508595e1a5cdd60d21b6044820152606490fd5b90611cb360209282815194859201610373565b6040519061261182610de3565b6004825263536f636b60e01b6020830152565b60208183031261000e578051906001600160401b03821161000e570181601f8201121561000e57805161265681610e3e565b926126646040519485610dfe565b8184526020828401011161000e576103de9160208085019101610373565b600b60fa1b815260010190565b60405190606082018281106001600160401b038211176126bc575b604052602a8252604082602036910137565b6126c4610da4565b6126aa565b906126d382610e3e565b6126e06040519182610dfe565b82815280926126f1601f1991610e3e565b0190602036910137565b90602091805182101561270d57010190565b612715612020565b010190565b80156127b6576000818181805b61278c5750612735816126c9565b935b6127415750505090565b61274a90611c7e565b90600a9060308282068019821161277f575b0160f81b6001600160f81b031916841a61277684876126fb565b53049081612737565b612787611c67565b61275c565b91506001600a9160001981146127a9575b01910480849291612727565b6127b1611c67565b61279d565b506040516127c381610de3565b60018152600360fc1b602082015290565b8015611c8e576000190190565b156127e857565b606460405162461bcd60e51b815260206004820152602060248201527f537472696e67733a20686578206c656e67746820696e73756666696369656e746044820152fd5b61283461268f565b908151156128ce575b6030602083015381516001908110156128c1575b90607860218401536029915b80831161287057506103de9150156127e1565b9080600f6128ad921660108110156128b4575b6f181899199a1a9b1b9c1cb0b131b232b360811b901a6128a385876126fb565b5360041c926127d4565b919061285d565b6128bc612020565b612883565b6128c9612020565b612851565b6128d6612020565b61283d565b60405190606082018281106001600160401b0382111761294b575b604052604082527f6768696a6b6c6d6e6f707172737475767778797a303132333435363738392b2f6040837f4142434445464748494a4b4c4d4e4f505152535455565758595a61626364656660208201520152565b612953610da4565b6128f6565b805115612a38576129676128db565b61298361297e6129778451611cb7565b6003900490565b6123d7565b9161299561299084611cc7565b6126c9565b92835280815182019060208501935b8282106129e6575050506003905106806001146129d5576002146129c6575090565b603d60f81b6000199091015290565b50613d3d60f01b6001199091015290565b9091936004906003809401938451600190603f9082828260121c16880101518553828282600c1c16880101518386015382828260061c16880101516002860153168501015190820153019391906129a4565b506103de611a68565b612a4a90612b47565b6103de608160405180937f3c73766720786d6c6e733d22687474703a2f2f7777772e77332e6f72672f323060208301527f30302f737667222077696474683d223130383022206865696768743d2231303860408301527f30222076696577426f783d2230203020313038302031303830223e00000000006060830152612ada815180926020607b86019101610373565b8101651e17b9bb339f60d11b607b820152036061810184520182610dfe565b6040906103de9392815281602082015201906103a8565b91612b3990612b2b6103de95936060865260608601906103a8565b9084820360208601526103a8565b9160408184039101526103a8565b612bf8612b538261306b565b9193612b69816000526011602052604060002090565b5490612b74816130f3565b9173__$d8604f29f747a182d7154cbbe3703d0759$__612b9e836000526010602052604060002090565b549260409586519763749e421b60e01b89526000898181819c612bca60049b8c83019190602083019252565b0381895af490811561305e575b8291613044575b508951809c819263132ffe9960e31b8352898b8401612af9565b0381875af4998a15613037575b899a61301b575b5087519a630f500e3b60e41b8c52898c80612c2e898b83019190602083019252565b0381885af49b8c1561300e575b8a9c612fcf575b5093612d6697938a612cef8b612cc5612d1f9b9784612db09f9c98819c73__$1a9ce43643d07b5d2d447f788b54f84bee$__958051948d858780612c986313f89b4360e31b978883528583019190602083019252565b03818c5af4968715612fc2575b8697612fa2575b5082518481529081019182529685918891829160200190565b03818a5af4958615612f95575b8496612f79575b5051968792839283528d83019190602083019252565b0381865af4938415612f6c575b8594612f50575b508b51635a8289c960e01b81529c8d94859384938c8501612b10565b03915af4978815612f43575b8698612f21575b50612d488691600052600e602052604060002090565b548751809a8192630c0d0b6560e41b83528783019190602083019252565b038173__$468c35549c0d3f0dce3a9aae9298ebcb6b$__5af4978815612f14575b8598612ef4575b50908491865180809b819463c9e3104760e01b83528783019190602083019252565b03915af4968715612ee7575b8397612ec3575b508351630722ef8960e01b81529081019182529190829081906020015b038173__$b2b9e644a8ce45a89368405a64b815a752$__5af4958615612eb6575b8096612e99575b50505195869560208701612e1b916125f1565b7f3c67207472616e73666f726d3d227472616e736c617465283138302c2031333081526214911f60e91b6020820152602301612e56916125f1565b612e5f916125f1565b612e68916125f1565b631e17b39f60e11b8152600401612e7e916125f1565b612e87916125f1565b03601f19810182526103de9082610dfe565b612eae9296503d8091833e6113948183610dfe565b933880612e08565b612ebe611f20565b612e01565b612de09392919750612ede903d8085833e6113948183610dfe565b96909192612dc3565b612eef611f20565b612dbc565b8592919850612f0c903d8085833e6113948183610dfe565b979091612d8e565b612f1c611f20565b612d87565b86919850612f3b612d48913d8085833e6113948183610dfe565b989150612d32565b612f4b611f20565b612d2b565b612f659194503d8087833e6113948183610dfe565b9238612d03565b612f74611f20565b612cfc565b612f8e9196503d8086833e6113948183610dfe565b9438612cd9565b612f9d611f20565b612cd2565b8692919750612fba903d8085833e6113948183610dfe565b969091612cac565b612fca611f20565b612ca5565b899c50938a809995928197939b989499959b3d8084833e612ff08183610dfe565b8101612ffb91612624565b9e50929650509397989296919598612c42565b613016611f20565b612c3b565b613030919a503d808b833e6113948183610dfe565b9838612c0c565b61303f611f20565b612c05565b61305891503d8084833e6113948183610dfe565b38612bde565b613066611f20565b612bd7565b613077610ac382611b16565b600091818352600f602052604083208054156130e6575b83526130cf6130ca600160208087205496868152600f82526040812080548410156130d9575b815220015493600052600f602052604060002090565b612037565b90549060031b1c90565b6130e1612020565b6130b4565b6130ee612020565b61308e565b6130ff610ac382611b16565b60005260126020526040600020549056fea264697066735822122028995ae7635030453ed2f06e6f4e4d4bdc347db97a6ac00da6386cb8cda2a1cd64736f6c634300080d0033",
  "linkReferences": {
    "contracts/SockBackground/BackgroundLibrary.sol": {
      "BackgroundLibrary": [
        {
          "length": 20,
          "start": 12278
        }
      ]
    },
    "contracts/SockBackground/BackgroundMetadataLibrary.sol": {
      "BackgroundMetadataLibrary": [
        {
          "length": 20,
          "start": 5224
        }
      ]
    },
    "contracts/SockLayoutLibrary.sol": {
      "SockLayoutLibrary": [
        {
          "length": 20,
          "start": 5443
        },
        {
          "length": 20,
          "start": 12512
        }
      ]
    },
    "contracts/SockPattern/PatternLibrary.sol": {
      "PatternLibrary": [
        {
          "length": 20,
          "start": 12899
        }
      ]
    },
    "contracts/SockPattern/PatternMetadataLibrary.sol": {
      "PatternMetadataLibrary": [
        {
          "length": 20,
          "start": 5620
        }
      ]
    },
    "contracts/SockPin/PinLibrary.sol": {
      "PinLibrary": [
        {
          "length": 20,
          "start": 12777
        }
      ]
    },
    "contracts/SockPin/PinLibraryMetadata.sol": {
      "PinMetadataLibrary": [
        {
          "length": 20,
          "start": 5535
        }
      ]
    }
  },
  "deployedLinkReferences": {
    "contracts/SockBackground/BackgroundLibrary.sol": {
      "BackgroundLibrary": [
        {
          "length": 20,
          "start": 11127
        }
      ]
    },
    "contracts/SockBackground/BackgroundMetadataLibrary.sol": {
      "BackgroundMetadataLibrary": [
        {
          "length": 20,
          "start": 4073
        }
      ]
    },
    "contracts/SockLayoutLibrary.sol": {
      "SockLayoutLibrary": [
        {
          "length": 20,
          "start": 4292
        },
        {
          "length": 20,
          "start": 11361
        }
      ]
    },
    "contracts/SockPattern/PatternLibrary.sol": {
      "PatternLibrary": [
        {
          "length": 20,
          "start": 11748
        }
      ]
    },
    "contracts/SockPattern/PatternMetadataLibrary.sol": {
      "PatternMetadataLibrary": [
        {
          "length": 20,
          "start": 4469
        }
      ]
    },
    "contracts/SockPin/PinLibrary.sol": {
      "PinLibrary": [
        {
          "length": 20,
          "start": 11626
        }
      ]
    },
    "contracts/SockPin/PinLibraryMetadata.sol": {
      "PinMetadataLibrary": [
        {
          "length": 20,
          "start": 4384
        }
      ]
    }
  }
}