{
  "_format": "hh-sol-artifact-1",
  "contractName": "PinMetadataLibrary",
  "sourceName": "contracts/SockPin/PinLibraryMetadata.sol",
  "abi": [
    {
      "inputs": [
        {
          "internalType": "uint256",
          "name": "currentPin",
          "type": "uint256"
        }
      ],
      "name": "GetPinMetadata",
      "outputs": [
        {
          "internalType": "string",
          "name": "",
          "type": "string"
        }
      ],
      "stateMutability": "pure",
      "type": "function"
    },
    {
      "inputs": [
        {
          "internalType": "uint256",
          "name": "currentPin",
          "type": "uint256"
        }
      ],
      "name": "GetPinText",
      "outputs": [
        {
          "internalType": "string",
          "name": "",
          "type": "string"
        }
      ],
      "stateMutability": "pure",
      "type": "function"
    }
  ],
  "bytecode": "0x6080806040523461001a5761079c9081610020823930815050f35b600080fdfe6080604052600436101561001257600080fd5b60003560e01c80630c5231271461005657634ca9351e1461003257600080fd5b6100526100466100413661006a565b610186565b604051918291826100b6565b0390f35b6100526100466100653661006a565b610675565b602090600319011261007c5760043590565b600080fd5b918091926000905b8282106100a157501161009a575050565b6000910152565b91508060209183015181860152018291610089565b604091602082526100d68151809281602086015260208686019101610081565b601f01601f1916010190565b6040810190811067ffffffffffffffff8211176100fe57604052565b634e487b7160e01b600052604160045260246000fd5b90601f8019910116810190811067ffffffffffffffff8211176100fe57604052565b60405190610143826100e2565b601e82527f7b2274726169745f74797065223a2250696e222c202276616c7565223a2200006020830152565b9061018260209282815194859201610081565b0190565b61018e610136565b90806101d657506101d36101af916101c5604051938492602084019061016f565b694c69676874696e67227d60b01b8152600a0190565b03601f198101835282610114565b90565b6001810361020c57506101d36101f9916101c5604051938492602084019061016f565b66416c69656e227d60c81b815260070190565b6002810361022f57506101d36101f9916101c5604051938492602084019061016f565b6003810361026557506101d3610252916101c5604051938492602084019061016f565b66436c6f7564227d60c81b815260070190565b6004810361029b57506101d3610288916101c5604051938492602084019061016f565b664865617274227d60c81b815260070190565b600581036102d257506101d36102be916101c5604051938492602084019061016f565b67466c6f776572227d60c01b815260080190565b6006810361030757506101d36102f5916101c5604051938492602084019061016f565b6553746172227d60d01b815260060190565b6007810361033d57506101d361032a916101c5604051938492602084019061016f565b66536b756c6c227d60c81b815260070190565b6008810361037257506101d3610360916101c5604051938492602084019061016f565b6546726f67227d60d01b815260060190565b600981036103a757506101d3610395916101c5604051938492602084019061016f565b6542656172227d60d01b815260060190565b600a81036103de57506101d36103ca916101c5604051938492602084019061016f565b674368696c6c69227d60c01b815260080190565b600b810361041457506101d3610401916101c5604051938492602084019061016f565b66536861726b227d60c81b815260070190565b600c810361044a57506101d3610437916101c5604051938492602084019061016f565b66446576696c227d60c81b815260070190565b600d0361047d576101d361046b916101c5604051938492602084019061016f565b6546697265227d60d01b815260060190565b6101d3610497916101c5604051938492602084019061016f565b654e6f6e65227d60d01b815260060190565b604051906104b6826100e2565b60028252614e6f60f01b6020830152565b604051906104d4826100e2565b60048252634669726560e01b6020830152565b604051906104f4826100e2565b600582526411195d9a5b60da1b6020830152565b60405190610515826100e2565b6005825264536861726b60d81b6020830152565b60405190610536826100e2565b60068252654368696c6c6960d01b6020830152565b60405190610558826100e2565b60048252632132b0b960e11b6020830152565b60405190610578826100e2565b600482526346726f6760e01b6020830152565b60405190610598826100e2565b600582526414dadd5b1b60da1b6020830152565b604051906105b9826100e2565b600482526329ba30b960e11b6020830152565b604051906105d9826100e2565b6006825265233637bbb2b960d11b6020830152565b604051906105fb826100e2565b60058252641219585c9d60da1b6020830152565b6040519061061c826100e2565b600582526410db1bdd5960da1b6020830152565b6040519061063d826100e2565b600582526420b634b2b760d91b6020830152565b6040519061065e826100e2565b60088252674c69676874696e6760c01b6020830152565b8061068357506101d3610651565b6001810361069457506101d3610630565b600281036106a557506101d3610630565b600381036106b657506101d361060f565b600481036106c757506101d36105ee565b600581036106d857506101d36105cc565b600681036106e957506101d36105ac565b600781036106fa57506101d361058b565b6008810361070b57506101d361056b565b6009810361071c57506101d361054b565b600a810361072d57506101d3610529565b600b810361073e57506101d3610508565b600c810361074f57506101d36104e7565b600d0361075e576101d36104c7565b6101d36104a956fea2646970667358221220fd487883f5b89fcbb37f98b9b0517549674d1b7528742e919510bcde05b2d03164736f6c634300080d0033",
  "linkReferences": {},
  "deployedLinkReferences": {}
}