{
  "_format": "hh-sol-artifact-1",
  "contractName": "LightingPattern",
  "sourceName": "contracts/SockPattern/Patterns/LightingPattern.sol",
  "abi": [
    {
      "inputs": [],
      "name": "pattern",
      "outputs": [
        {
          "internalType": "string",
          "name": "",
          "type": "string"
        }
      ],
      "stateMutability": "pure",
      "type": "function"
    }
  ],
  "bytecode": "0x6080806040523461001a5761092e9081610020823930815050f35b600080fdfe608080604052600436101561001357600080fd5b60003560e01c63a96f1c691461002857600080fd5b60003660031901126108645780610854816108466108316108186105086107616104336105086106aa6104336105086105f36104336108609f61053c6104336105086104516104336103fa6103de6103b561017060c48a7f20202020203c67207472616e73666f726d3d227472616e736c6174652832333060206105089d015267161019989814911f60c11b60408201527f2020202020202020203c6d61736b2069643d226d61736b305f3130395f31333260488201527f22207374796c653d226d61736b2d747970653a616c70686122206d61736b556e60688201527f6974733d227573657253706163654f6e5573652220783d2236302220793d223960888201527f35222077696474683d2235373622206865696768743d22343137223e0000000060a8820152017104040404040404040404040404078e0c2e8d60731b815260120190565b7f2020202020202020202020202020202020643d224d3431322e3539392035313181527f2e313233433432372e303833203430372e373839203530342e3432203339332e60208201527f373431203534312e323738203339392e3633344c3539382e313138203237342e60408201527f39394c3633352e313037203139332e383738433531382e373039203230352e3260608201527f3136203434332e323135203133332e323132203432302e3031382039352e373960808201527f33314c3430372e373933203132322e3630324c3335332e313036203234322e3560a08201527f3234433334302e373839203236392e353333203331342e353239203238372e3560c08201527f3032203238342e383932203238392e324c3135372e353132203239362e34393760e08201527f4c3131352e303139203239382e3933314c37342e36373835203330312e3234326101008201527f4337332e38323836203330312e32392037332e34203330322e3239312037332e6101208201527f39373535203330322e393138433130362e343231203333382e323832203134376101408201527f2e363534203432322e3739312036302e37353133203438382e3039374336352e6101608201527f35323033203439302e3932203132312e383534203439352e333133203139332e6101808201527f313637203439392e363938433236332e343334203530342e303138203334382e6101a08201527f323434203530382e333239203431322e353939203531312e3132335a220000006101c08201526101dd0190565b7f202020202020202020202020202020202066696c6c3d22626c61636b22202f3e815260200190565b6f1010101010101010101e17b6b0b9b59f60811b815260100190565b7f2020202020202020203c67206d61736b3d2275726c28236d61736b305f3130398152662f98999914911f60c91b602082015260270190565b7104040404040404040404040404078e0c2e8d60731b815260120190565b7f2020202020202020202020202020202020643d224d3438312e3432312031383381527f2e3839384c3436322e333536203137382e3639354c3434342e3739312032303460208201527f2e3137334c3435332e3036203230362e34334c3433392e333738203232392e3460408201527f33364c3437322e3632203230312e3637374c3436342e313232203139392e33356060820152721c261a1c18971a191890189c19971c1c9c2d1160691b608082015260930190565b7f202020202020202020202020202020202066696c6c3d22234646463036362220815261179f60f11b602082015260220190565b7f2020202020202020202020202020202020643d224d3336342e3432312032373781527f2e3839384c3334352e333536203237322e3639354c3332372e3739312032393860208201527f2e3137334c3333362e3036203330302e34334c3332322e333738203332332e3460408201527f33364c3335352e3632203239352e3637374c3334372e313232203239332e33356060820152721c26199b1a171a191890191b9b971c1c9c2d1160691b608082015260930190565b7f2020202020202020202020202020202020643d224d3238312e3432312034323581527f2e3839384c3236322e333536203432302e3639354c3234342e3739312034343660208201527f2e3137334c3235332e3036203434382e34334c3233392e333738203437312e3460408201527f33364c3237322e3632203434332e3637374c3236342e313232203434312e33356060820152721c26191c18971a1918901a191a971c1c9c2d1160691b608082015260930190565b7f2020202020202020202020202020202020643d224d3136382e3432312033333081527f2e3839384c3134392e333536203332352e3639354c3133312e3739312033353160208201527f2e3137334c3134302e3036203335332e34334c3132362e333738203337362e3460408201527f33364c3135392e3632203334382e3637374c3135312e313232203334362e33356060820152721c26189b1c171a191890199998171c1c9c2d1160691b608082015260930190565b7f2020202020202020202020202020202020643d224d3531302e3432312033333081527f2e3839384c3439312e333536203332352e3639354c3437332e3739312033353160208201527f2e3137334c3438322e3036203335332e34334c3436382e333738203337362e3460408201527f33364c3530312e3632203334382e3637374c3439332e313232203334362e33356060820152721c261a9898171a191890199998171c1c9c2d1160691b608082015260930190565b6c1010101010101010101e17b39f60991b8152600d0190565b6810101010101e17b39f60b91b815260090190565b03601f1981018352826108c0565b60405191829182610869565b0390f35b600080fd5b919091602080825283519081818401526000945b8286106108aa57505080604093941161089d575b601f01601f1916010190565b6000838284010152610891565b858101820151848701604001529481019461087d565b90601f8019910116810190811067ffffffffffffffff8211176108e257604052565b634e487b7160e01b600052604160045260246000fdfea2646970667358221220465a21103d56779d97a611f95c304184b46e30aeb5b6e99bfb9f776270b1955d64736f6c634300080d0033",
  "linkReferences": {},
  "deployedLinkReferences": {}
}