{
  "address": "0x4A41fD2c68A76c8F1463196cF912c42551389652",
  "abi": [
    {
      "inputs": [
        {
          "internalType": "uint256",
          "name": "colorInt",
          "type": "uint256"
        }
      ],
      "name": "GetColor",
      "outputs": [
        {
          "internalType": "string",
          "name": "",
          "type": "string"
        }
      ],
      "stateMutability": "pure",
      "type": "function"
    },
    {
      "inputs": [
        {
          "internalType": "string",
          "name": "towAndHeelColor",
          "type": "string"
        },
        {
          "internalType": "string",
          "name": "cuffColor",
          "type": "string"
        },
        {
          "internalType": "string",
          "name": "color",
          "type": "string"
        }
      ],
      "name": "GetLayout",
      "outputs": [
        {
          "internalType": "string",
          "name": "",
          "type": "string"
        }
      ],
      "stateMutability": "pure",
      "type": "function"
    }
  ],
  "transactionHash": "0x49a0e137a58e8d0e0e1a527fd9ef7a3029e4ddc2dc71f3e7aac6ade3e77f576e",
  "args": [],
  "solcInputHash": "da6348f8bd2610997144571f4735f8a2",
  "bytecode": "0x6080806040523461001a57610c0c9081610020823930815050f35b600080fdfe60806040526004361015610013575b600080fd5b6000803560e01c9081635a8289c91461003e5750639fc4da181461003657600080fd5b61000e6108e7565b60603660031901126107b45767ffffffffffffffff906004358281116107bb5761006c903690600401610821565b916024358181116107b757610085903690600401610821565b916044359182116107b4575061009f903690600401610821565b906040518091602082016100e4906024907f3c67207472616e73666f726d3d227472616e736c617465282d313430202d31308152631814911f60e11b60208201520190565b67040404078e0c2e8d60c31b81526008017f2020202020202020643d224d3738352e39203237352e363236433732352e303981527f37203234372e383938203636392e323132203233392e383832203636312e303760208201527f37203235372e3732314c3631312e343935203336362e343439433633352e323460408201527f31203430342e373535203731322e353234203437382e343635203833312e363860608201527f31203436362e3835394c3838312e323633203335382e3133433838392e33393860808201527f203334302e323932203834362e373032203330332e333533203738352e39203260a0820152671b9a971b191b2d1160c11b60c082015260c80164010101010160dd1b8152600501681010103334b6361e9160b91b815260090161021391610b89565b61021c90610ba0565b0391601f1992838101835261023190836107ff565b60405180926020820161024391610b89565b630101010160e51b8152600401660404078e0c2e8d60cb1b81526007017f202020202020643d224d3838312e343937203335382e323337433837332e333681527f32203337362e303736203831372e343737203336382e3036203735362e36373460208201527f203334302e333332433639352e383731203331322e363035203635332e31373660408201527f203237352e363636203636312e333131203235372e383237433636392e34343560608201527f203233392e393839203732352e3333203234382e303035203738362e3133332060808201527f3237352e373332433834362e393336203330332e3436203838392e363332203360a0820152771a1817199c9c101c1c18971a1c9b90199a9c1719199bad1160411b60c082015260d8017f20202020202020202020202066696c6c3d22626c61636b22202f3e00000000008152601b01660404078e0c2e8d60cb1b81526007017f202020202020643d224d3136382e353039203636372e323633433137352e383381527f32203630362e383537203233302e343231203538322e313039203235362e382060208201527f3537372e323836433239302e323036203631322e343836203333342e3434362060408201527f3639392e3835203234342e313533203736372e373033433233322e303338203760608201527f36302e353239203135392e333534203734322e373731203136382e35303920366080820152671b1b97191b19ad1160c11b60a082015260a80164010101010160dd1b815260050166103334b6361e9160c91b81526007016104929086610b89565b7f2220207374726f6b653d22626c61636b22207374726f6b652d77696474683d2281526901c1110179f10101010160b51b6020820152602a010383810183526104db90836107ff565b604051938492602084016104ee91610b89565b6504078e0c2e8d60d31b81526006017f202020643d224d3630342e3334203739312e323735433733372e30383120373981527f372e303337203733362e303639203637372e313433203733362e30363920363760208201527f372e313433433639382e333338203637312e313131203631392e3136382036386040820152751a971a1c99101b181a17199a101b9c9897191b9aad1160511b6060820152607601681010103334b6361e9160b91b81526009016105a991610b89565b6105b290610ba0565b6504078e0c2e8d60d31b81526006017f20202020643d224d3235362e353932203537372e37344c3437342e373038203581527f36342e363131433530342e323536203536322e383332203533302e343037203560208201527f34342e383832203534322e363839203531372e3934394c3631312e373238203360408201527f36362e353535433633352e343735203430342e383631203731322e373537203460608201527f37382e353731203833312e393134203436362e3936354c3733352e383631203660808201527f37372e353937433639382e3133203637312e353635203631382e39362036383560a08201527f2e393436203630342e313333203739312e373239433437312e3339322037383560c08201527f2e393637203235332e363338203737332e383936203234332e3934362037363860e08201527f2e313537433333342e323338203730302e333035203238392e3939392036313261010082015274171c9a1890191a9b171a9c99101a9b9b971b9a2d1160591b6101208201526101350166103334b6361e9160c91b815260070161075191610b89565b7f22207374726f6b653d22626c61636b22207374726f6b652d77696474683d223881526401110179f160dd1b6020820152602501631e17b39f60e11b81526004010390810182526107a290826107ff565b6040516107b08192826108bb565b0390f35b80fd5b8280fd5b5080fd5b50634e487b7160e01b600052604160045260246000fd5b6040810190811067ffffffffffffffff8211176107f257604052565b6107fa6107bf565b604052565b90601f8019910116810190811067ffffffffffffffff8211176107f257604052565b81601f8201121561000e5780359067ffffffffffffffff8211610879575b60405192610857601f8401601f1916602001856107ff565b8284526020838301011161000e57816000926020809301838601378301015290565b6108816107bf565b61083f565b918091926000905b8282106108a657501161089f575050565b6000910152565b9150806020918301518186015201829161088e565b604091602082526108db8151809281602086015260208686019101610886565b601f01601f1916010190565b50602036600319011261000e576004358061091457506107b0610908610b66565b604051918291826108bb565b6001810361092d57506107b0610928610b43565b610908565b6002810361094157506107b0610928610b20565b6003810361095557506107b0610928610afd565b6004810361096957506107b0610928610ada565b6005810361097d57506107b0610928610ab7565b6006810361099157506107b0610928610a94565b600781036109a557506107b0610928610a71565b600881036109b957506107b0610928610a4e565b600981036109cd57506107b0610928610a2b565b600a036109df576107b0610928610a08565b6107b0610928604051906109f2826107d6565b60078252660233030303030360cc1b6020830152565b60405190610a15826107d6565b600782526611a3232323232360c91b6020830152565b60405190610a38826107d6565b60078252662344394439443960c81b6020830152565b60405190610a5b826107d6565b600782526611a1a31c18a32360c91b6020830152565b60405190610a7e826107d6565b60078252662333453342443360c81b6020830152565b60405190610aa1826107d6565b6007825266119c9c2198a32360c91b6020830152565b60405190610ac4826107d6565b6007825266119b9820a299a360c91b6020830152565b60405190610ae7826107d6565b60078252662342344538343760c81b6020830152565b60405190610b0a826107d6565b60078252662346444544354560c81b6020830152565b60405190610b2d826107d6565b60078252662346463841303160c81b6020830152565b60405190610b50826107d6565b600782526608d191104c918d60ca1b6020830152565b60405190610b73826107d6565b60078252662345423435343560c81b6020830152565b90610b9c60209282815194859201610886565b0190565b7f22207374726f6b653d22626c61636b22207374726f6b652d77696474683d22388152631110179f60e11b60208201526024019056fea2646970667358221220c71d8d445d456f2c0a55086e4a5f863e208f8840d57e4c5c027b2c213e37960b64736f6c634300080d0033",
  "devdoc": {
    "kind": "dev",
    "methods": {},
    "version": 1
  },
  "userdoc": {
    "kind": "user",
    "methods": {},
    "version": 1
  },
  "storageLayout": {
    "storage": [],
    "types": null
  }
}