{
  "address": "0x777108BC79E62E7f4bC11075A01c227caE757cc7",
  "abi": [
    {
      "inputs": [
        {
          "internalType": "uint256",
          "name": "currentPin",
          "type": "uint256"
        }
      ],
      "name": "GetPin",
      "outputs": [
        {
          "internalType": "string",
          "name": "",
          "type": "string"
        }
      ],
      "stateMutability": "pure",
      "type": "function"
    }
  ],
  "transactionHash": "0x8fed176c3d8a4170e6fa5a51abc23f783a8d226a3312362eb804729b289b3946",
  "args": [],
  "solcInputHash": "da6348f8bd2610997144571f4735f8a2",
  "bytecode": "0x6080806040523461001b57615eeb908162000021823930815050f35b600080fdfe604060808152600436101561001357600080fd5b60003560e01c63c0d0b6501461002857600080fd5b6020908160031936011261009957610041600435610b99565b91815192818492835281519182828501526000915b8383106100815750508110610074575b601f01601f19168101030190f35b6000838284010152610066565b81830181015187840187015286945091820191610056565b600080fd5b90601f8019910116810190811067ffffffffffffffff8211176100c057604052565b634e487b7160e01b600052604160045260246000fd5b604051906020820182811067ffffffffffffffff8211176100c05760405260008252565b7f3c67207472616e73666f726d3d227472616e736c617465283537322c2032343081526214911f60e91b602082015260230190565b7f20202020203c7061746820643d224d37382e313332312033352e35333037433781527f362e393638372033352e313733382036302e343630312033302e31363620353960208201527f2e323931392032392e393138374c36302e3339392032322e3436344336302e3360408201527f39392031332e303735312035322e3738373920352e34363339392034332e333960608201527f3920352e34363339394333342e3031303220352e34363339392032362e33393960808201527f2031332e303735322032362e3339392032322e3436344332362e33393920323760a08201527f2e3036392032382e32332033312e323436332033312e323033372033342e333060c08201527f37374332322e363039382033392e313933352031352e37392034372e3234353960e08201527f2031322e363630352035372e3434373143382e343438372037312e31373634206101008201527f31312e393533382038352e343331332032302e363939352039352e35333834436101208201527f32362e30383633203130302e3638362034302e34303336203131312e323437206101408201527f35342e35373835203131322e3330384335362e35313234203131322e393031206101608201527f35382e34353637203131332e3334312036302e33393835203131332e363334436101808201527f37392e37323538203131362e3535332039382e37393834203130342e393531206101a08201527f3130342e3730392038352e36383534433130362e3937372037382e32393031206101c08201527f3130372e3030372037302e37343232203130352e3138352036332e37373233436101e08201527f3130352e3932332036332e38373033203130362e3637372036332e39323039206102008201527f3130372e3434332036332e39323039433131362e3833322036332e39323039206102208201527f3132342e3434332035362e33303937203132342e3434332034362e39323039436102408201527f3132342e3434332033372e35333231203131362e3833322032392e39323039206102608201527f3130372e3434332032392e393230394339392e363634332032392e39323039206102808201527f39332e313036312033352e313434392039312e303835312034322e32373538436102a08201527f38372e333234322033392e333331372038322e393730332033372e30313439206102c08201527f37382e313332312033352e353330375a222066696c6c3d2223464441324634226102e08201527f207374726f6b653d22626c61636b22207374726f6b652d77696474683d22382261030082015261179f60f11b6103208201526103220190565b7f20202020203c7061746820643d224d35362e383430362036362e39343238433581527f332e3334372037352e333835332035362e3232392038332e373332372036322e60208201527f303930352038362e313538324336372e3935322038382e353833382037352e3860408201527f3839372038342e373133382037392e333833342037362e323731324338322e3860608201527f37372036372e383238372037392e3939352035392e343831332037342e31333360808201527f352035372e303535384336382e3237322035342e363330322036302e3333343260a08201527f2035382e353030322035362e383430362036362e393432385a222066696c6c3d60c08201527f22776869746522207374726f6b653d22626c61636b22207374726f6b652d776960e082015268323a341e911a11179f60b91b6101008201526101090190565b7f20202020203c7061746820643d224d32372e373332322035342e38393739433281527f342e323338362036332e333430342032372e313230362037312e36383737203360208201527f322e393832312037342e313133334333382e383433362037362e35333839203460408201527f362e373831332037322e363638392035302e3237352036342e3232363343353360608201527f2e373638362035352e373833382035302e383836362034372e3433363420343560808201527f2e303235312034352e303130394333392e313633362034322e3538353320333160a08201527f2e323235382034362e343535332032372e373332322035342e383937395a222060c0820152600080516020615e9683398151915260e08201526d35b296bbb4b23a341e911a11179f60911b61010082015261010e0190565b7f20202020203c7061746820643d224d38302e343031362037362e37373133433781527f372e313934322038342e3532322037302e37312038392e313937392036352e3960208201527f3138362038372e323135324336322e313231362038352e363433392036302e3560408201527f3237322038302e333632362036312e363235322037342e333830384c36382e3260608201527f3638312037352e303337374c36332e303530352036392e353931324336362e3260808201527f3537382036312e383430342037322e373432312035372e313634352037372e3560a08201527f3333342035392e313437334338322e333234382036312e31332038332e36303860c08201527f392036392e303230352038302e343031362037362e373731335a222066696c6c60e0820152691e91313630b1b591179f60b11b61010082015261010a0190565b7f20202020203c7061746820643d224d35312e303539382036332e35353435433481527f372e383532342037312e333035322034312e333638322037352e39383131203360208201527f362e353736382037332e393938344333322e373739382037322e34323731203360408201527f312e313835342036372e313435382033322e323833342036312e3136344c333860608201527f2e393236332036312e383230394c33332e373038372035362e3337343443333660808201527f2e3931362034382e363233372034332e343030332034332e393437372034382e60a08201527f313931372034352e393330354335322e3938332034372e393133322035342e3260c08201527f3637312035352e383033372035312e303539382036332e353534355a2220666960e08201526b36361e91313630b1b591179f60a11b61010082015261010c0190565b7f20202020203c636972636c652063783d2233382e37303032222063793d22383681527f2e373834352220723d22312e393936363422207472616e73666f726d3d22726f60208201527f746174652831372e303534382033382e373030322038362e373834352922206660408201526c34b6361e91313630b1b591179f60991b6060820152606d0190565b7f20202020203c636972636c652063783d2234352e30363335222063793d22383881527f2e373336362220723d22312e393936363422207472616e73666f726d3d22726f60208201527f746174652831372e303534382034352e303633352038382e373336362922206660408201526c34b6361e91313630b1b591179f60991b6060820152606d0190565b7f3c67207472616e73666f726d3d227472616e736c617465283536302c2032343081526214911f60e91b602082015260230190565b7f3c67207472616e73666f726d3d227472616e736c617465283539302c2032353081526214911f60e91b602082015260230190565b80610cf25750604051610cef81610ce1610bfa610be9602084016023907f3c67207472616e73666f726d3d227472616e736c617465283539302c2032353481526214911f60e91b60208201520190565b64078e0c2e8d60db1b815260050190565b7f20202020643d224d38382e383432362032302e323639334c35392e303739352081527f342e393431314c32312e303038362034302e393832394c33332e39313739203460208201527f372e363331324c332e31353133362038302e393432354c36382e30303431203460408201527f362e363336344c35342e373336332033392e383033334c38382e38343236203260608201527f302e323639335a222066696c6c3d222346464630363622207374726f6b653d2260808201527f626c61636b22207374726f6b652d77696474683d2238222f3e3c2f673e00000060a082015260bd0190565b03601f19810183528261009e565b90565b600181036112445750604051610cef81610ce16112346111a961111e611099611012610f7c610ee9610d2660208a01610b64565b7f20202020203c7061746820643d224d32392e373038312039332e35333933433481527f302e323039362039382e363538382035322e373637362039352e32363333203660208201527f332e303830362038392e313736324337332e353236312038332e30313039203860408201527f322e393134342037332e333938332038372e353530382036332e38383737433960608201527f362e393839332034342e353236372038382e393435362032312e31383031203660808201527f392e353834362031312e373431364335302e3232333620322e3330333039203260a08201527f362e3837372031302e333436392031372e343338352032392e3730373943313260c08201527f2e383032312033392e323138352031312e303132322035322e3533353320313260e08201527f2e353839332036342e353631364331342e313436342037362e343335342031396101008201527f2e323036372038382e343139392032392e373038312039332e353339335a22206101208201527f66696c6c3d222342344538343722207374726f6b653d22626c61636b222073746101408201526f3937b5b296bbb4b23a341e911c11179f60811b6101608201526101700190565b7f20202020203c656c6c697073652063783d2233372e37383033222063793d223481527f332e36383732222072783d2231322e35222072793d22392e3522207472616e7360208201527f666f726d3d22726f746174652837342e323532352033372e373830332034332e6040820152741b1c1b991491103334b6361e91313630b1b591179f60591b606082015260750190565b7f20202020203c656c6c697073652072783d2231322e35222072793d22392e352281527f207472616e73666f726d3d226d6174726978282d302e39323533383220302e3360208201527f373930333620302e33373930333620302e3932353338322036342e37343635206040820152771a9b171c19991c1491103334b6361e91313630b1b591179f60411b606082015260780190565b7f20202020203c636972636c652063783d2233382e31313238222063793d22333981527f2e373836352220723d223222207472616e73666f726d3d22726f74617465283260208201527f352e393839332033382e313132382033392e3738363529222066696c6c3d2223604082015268221ca21ca21c91179f60b91b606082015260690190565b7f20202020203c636972636c652063783d2236332e32383037222063793d22353281527f2e3035362220723d223222207472616e73666f726d3d22726f7461746528323560208201527f2e393839332036332e323830372035322e30353629222066696c6c3d22234439604082015266221ca21c91179f60c91b606082015260670190565b7f20202020203c636972636c652063783d2234312e31383535222063793d22363581527f2e313835312220723d22312e373439303622207472616e73666f726d3d22726f60208201527f746174652831372e303534382034312e313835352036352e313835312922206660408201526c34b6361e91313630b1b591179f60991b6060820152606d0190565b7f20202020203c636972636c652063783d2234362e37353938222063793d22363681527f2e383935312220723d22312e373439303622207472616e73666f726d3d22726f60208201527f746174652831372e303534382034362e373539382036362e383935312922206660408201526c34b6361e91313630b1b591179f60991b6060820152606d0190565b631e17b39f60e11b815260040190565b6002810361178c5750604051610cef81610ce161123461170561167e6115fd61157a6114e861145961144b61129061127e60208c01610b64565b6501e3830ba34160d51b815260060190565b7f202020643d224d32392e373038312039332e353339334334302e32303936203981527f382e363538382035322e373637362039352e323633332036332e30383036203860208201527f392e313736324337332e353236312038332e303130392038322e39313434203760408201527f332e333938332038372e353530382036332e383837374339362e39383933203460608201527f342e353236372038382e393435362032312e313830312036392e35383436203160808201527f312e373431364335302e3232333620322e33303330392032362e38373720313060a08201527f2e333436392031372e343338352032392e373037394331322e3830323120333960c08201527f2e323138352031312e303132322035322e353335332031322e3538393320363460e08201527f2e353631364331342e313436342037362e343335342031392e323036372038386101008201527f2e343139392032392e373038312039332e353339335a2220202066696c6c3d226101208201527f2342344538343722207374726f6b653d22626c61636b22207374726f6b652d776101408201526734b23a341e911c1160c11b6101608201526101680190565b61179f60f11b815260020190565b7f3c656c6c697073652063783d2233372e37383033222063793d2234332e36383781527f32222072783d2231322e35222072793d22392e3522207472616e73666f726d3d60208201527f22726f746174652837342e323532352033372e373830332034332e363837322960408201527011103334b6361e91313630b1b59110179f60791b606082015260710190565b7f3c656c6c697073652072783d2231322e35222072793d22392e3522207472616e81527f73666f726d3d226d6174726978282d302e39323533383220302e33373930333660208201527f20302e33373930333620302e3932353338322036342e373436352035362e3833604082015273191c1491103334b6361e91313630b1b59110179f60611b606082015260740190565b7f3c636972636c652063783d2233382e31313238222063793d2233392e3738363581527f2220723d223222207472616e73666f726d3d22726f746174652832352e39383960208201527f332033382e313132382033392e3738363529222066696c6c3d222344394439446040820152641c9110179f60d91b606082015260650190565b7f3c636972636c652063783d2236332e32383037222063793d2235322e3035362281527f20723d223222207472616e73666f726d3d22726f746174652832352e3938393360208201527f2036332e323830372035322e30353629222066696c6c3d22234439443944392260408201526210179f60e91b606082015260630190565b7f3c636972636c652063783d2234312e31383535222063793d2236352e3138353181527f2220723d22312e373439303622207472616e73666f726d3d22726f746174652860208201527f31372e303534382034312e313835352036352e3138353129222066696c6c3d22604082015268313630b1b59110179f60b91b606082015260690190565b7f3c636972636c652063783d2234362e37353938222063793d2236362e3839353181527f2220723d22312e373439303622207472616e73666f726d3d22726f746174652860208201527f31372e303534382034362e373539382036362e3839353129222066696c6c3d22604082015268313630b1b59110179f60b91b606082015260690190565b60038103611ae25750604051610cef81610ce16112346117df602084016023907f3c67207472616e73666f726d3d227472616e736c617465283536302c2032363081526214911f60e91b60208201520190565b7f2020203c7061746820643d224d3130362e3732382033332e393132334c31303581527f2e3138312033372e373238324c3130392e30342033392e31363435433131382e60208201527f3932332034322e38343238203132342e3938372035332e34303435203132322e60408201527f3738362036342e32393235433132302e3335312037362e33343137203130382e60608201527f37362038342e303738332039362e393738392038312e363937314c32322e343160808201527f39372036362e363237314331302e363338352036342e3234353820322e39363260a08201527f322035322e3631343820352e33393736332034302e3536353643372e3833333060c08201527f352032382e353136332031392e3432342032302e373739372033312e3230353260e08201527f2032332e313630394c33312e323038312032332e313631354c33352e303639206101008201527f32332e393431394c33352e393038362032302e303933344333382e31383938206101208201527f392e36333639322034382e3331373520322e39363938392035382e35393939206101408201527f352e30343832324336332e3230383820352e39373937372036372e30393036206101608201527f382e35303434332036392e383130382031312e393630334c37322e35333438206101808201527f31352e343230394c37352e373138312031322e333737354338302e31343735206101a08201527f382e31343238322038362e3433303620362e30393539382039322e37383636206101c08201527f372e3338303637433130332e31363920392e3437393136203130392e393433206101e08201527f31392e37333235203130372e3739342033302e33363437433130372e353434206102008201527f33312e363034203130372e3138342033322e37383838203130362e37323820336102208201527f332e393132335a222066696c6c3d22776869746522207374726f6b653d22626c6102408201527730b1b5911039ba3937b5b296bbb4b23a341e911c1110179f60411b6102608201526102780190565b60048103611cea5750604051610cef81610ce1611234611b0460208401610b2f565b7f20203c7061746820643d224d39362e353839372035302e39373537433130302e81527f3836342033372e3735332039332e383037372032332e393830392038302e393660208201527f38352031392e383330384337302e363031312031362e343739362035392e353260408201527f31332032302e373839392035332e333936342032392e343733334335332e353160608201527f30312031382e383438322034362e3936393620392e313135352033362e36303260808201527f3120352e37363432394332332e3736303420312e36313333312031302e30383460a08201527f3120382e333536323420352e38303833322032312e3538333943332e3635303860c08201527f362032382e3235383420342e37383530332033332e3833333220372e3433323360e08201527f342034302e323632344c33332e3038342039322e333836334c38342e333437356101008201527f2036352e313234364339302e323630392036312e343632362039342e343333396101208201527f2035372e363435312039362e353839372035302e393735375a222066696c6c3d6101408201527f222346423441344122207374726f6b653d22626c61636b22207374726f6b652d6101608201526b3bb4b23a341e911c1110179f60a11b61018082015261018c0190565b600581036124d05750604051610cef81610ce1611234612423611d40602085016023907f3c67207472616e73666f726d3d227472616e736c617465283536302c2032333081526214911f60e91b60208201520190565b7f3c7061746820643d224d36322e32323437203130332e3532384336312e34383681527f33203130322e3530372036302e38333336203130312e3336372036302e32353760208201527f39203130302e3135314335392e36393231203130312e3336332035392e30343460408201527f34203130322e3530322035382e33303234203130332e3532374c35382e33303260608201527f33203130332e3532384335302e38373536203131332e37392033362e3535363460808201527f203131362e3037322032362e33323439203130382e3630394331362e3130323960a08201527f203130312e3135322031332e3834342038362e383030322032312e323633362060c08201527f37362e3534374332312e393837362037352e353436352032322e38363432203760e08201527f342e363137382032332e383433362037332e373537354332322e3439393420376101008201527f332e353432332032312e323231382037332e323436382032302e3034303520376101208201527f322e3836313443382e30313234372036382e3933373620312e343531363820356101408201527f352e3938303920352e33353030382034332e393334344c352e333530303920346101608201527f332e3933343443392e32353037362033312e383831342032322e3135383420326101808201527f352e323633332033342e313933352032392e313839344333352e3338373320326101a08201527f392e353738392033362e353933332033302e313338352033372e3738393420336101c08201527f302e383231314333372e353038352032392e353131332033372e3334373220326101e08201527f382e323134352033372e333437322032362e393631334333372e3334373220316102008201527f342e323935322034372e3537383220332e39393939332036302e3233323720336102208201527f2e39393939334337322e3838373320332e39393939332038332e3131383320316102408201527f342e323935322038332e313138332032362e393631334338332e3131383320326102608201527f382e323037342038322e393538372032392e343936362038322e3638303820336102808201527f302e373938384338332e383633382033302e313330352038352e3036323820326102a08201527f392e353739372038362e323539312032392e313839344c38372e3439393720336102c08201527f322e393932324c38362e323539322032392e313839344339382e3239343520326102e08201527f352e32363333203131312e3230322033312e38383134203131352e31303320346103008201527f332e393334344c3131312e3239372034352e3136364c3131352e3130332034336103208201527f2e39333434433131392e3030312035352e39383039203131322e34342036382e6103408201527f39333736203130302e3431322037322e383631344339392e323438382037332e6103608201527f3234312039372e393933382037332e353033362039362e363836392037332e366103808201527f3732394339372e3635382037342e353736372039382e353331322037352e35336103a08201527f35372039392e3236332037362e35343731433130362e3638332038362e3830306103c08201527f32203130342e343234203130312e3135322039342e32303139203130382e36306103e08201527f394338332e39373033203131362e3037322036392e36353131203131332e37396104008201527f312036322e32323437203130332e3532385a4d36322e32323437203130332e356104208201527f32384c36352e34363532203130312e3138334c36322e32323437203130332e356104408201527f32385a4d36312e353737322036332e3436364336312e333439392036332e35396104608201527f32342036312e313236372036332e373331332036302e393039322036332e38386104808201527f33384c36302e373430342036332e373830374336302e323431362036332e34376104a08201527f36312035392e373034372036332e323539392035392e313639382036332e31306104c08201527f35374335392e343234322036322e333435352035392e353432352036312e35376104e08201527f36382035392e353734342036302e383431364335392e373834372036302e38366105008201527f392036302e303034362036302e383834392036302e323332372036302e3838346105208201527f394336302e353832372036302e383834392036302e393133342036302e3834376105408201527f362036312e323139332036302e373838344336312e323137312036312e3639386105608201527f342036312e333234362036322e353938382036312e353737322036332e343636610580820152612d1160f11b6105a08201526105a20190565b7f2066696c6c3d22776869746522207374726f6b653d22626c61636b222073747281527f6f6b652d77696474683d223822202f3e3c636972636c652063783d2235392e3760208201527f323636222063793d2236322e352220723d2232332e35222066696c6c3d22234660408201527f444544354522207374726f6b653d22626c61636b22207374726f6b652d7769646060820152683a341e911c1110179f60b91b608082015260890190565b600681036126da5750604051610cef81610ce16112346124f260208401610b64565b7f2020203c7061746820643d224d34362e3232363620372e39343735354c35382e81527f323837362032382e363535314c35392e313734382033302e313738334c36302e60208201527f383937352033302e353531334c38342e333138372033352e363233314c36382e60408201527f333531372035332e343932394c36372e313737322035342e383037334c36372e60608201527f333534382035362e3536314c36392e373638382038302e343033314c34372e3860808201527f3339362037302e373339364c34362e323236362037302e303238384c34342e3660a08201527f3133362037302e373339364c32322e363834332038302e343033314c32352e3060c08201527f3938332035362e3536314c32352e323735392035342e383037334c32342e313060e08201527f31342035332e343932394c382e31333434322033352e363233314c33312e35356101008201527f35362033302e353531334c33332e323738332033302e313738334c33342e31366101208201527f35352032382e363535314c34362e3232363620372e39343735355a222066696c6101408201527f6c3d222346444544354522207374726f6b653d22626c61636b22207374726f6b6101608201526d3296bbb4b23a341e911c1110179f60911b61018082015261018e0190565b6007810361309c5750604051610cef81610ce1611234613011612f86612e3c612cf2612ba8612a5a61273f60208a016023907f3c67207472616e73666f726d3d227472616e736c617465283537302c2032353081526214911f60e91b60208201520190565b7f20202020203c7061746820643d224d35382e303931352039332e38303436433681527f302e303235332039342e333937382036312e393639362039342e38333736203660208201527f332e393131342039352e313330384d36332e393131342039352e31333038433860408201527f332e323338372039382e303439203130322e3331312038362e3434373720313060608201527f382e3232322036372e31383137433131342e3732362034352e3938303220313060808201527f322e3832372032332e353235312038312e3634352031372e3032374338302e3460a08201527f3831362031362e363730312036332e3937332031312e363632342036322e383060c08201527f34382031312e343135314334322e3730343220372e31353938342032322e333260e08201527f30332031382e393036342031362e313733342033382e393433354331312e39366101008201527f31362035322e363732372031352e343636372036362e393237362032342e32316101208201527f32342037372e303334384c31382e343831382038382e313530374332302e37376101408201527f352039302e353535392032342e343538372039332e363635342032392e3133346101608201527f332039362e353432384d36332e393131342039352e313330384c36332e3938356101808201527f34203130332e3936374335362e39383031203130352e3338392035302e3230356101a08201527f203130342e3739332034342e30353832203130332e3131344d32392e313334336101c08201527f2039362e353432384c33322e333932392038352e393230394d32392e313334336101e08201527f2039362e353432384333332e333838312039392e313630372033382e343632386102008201527f203130312e3538362034342e30353832203130332e3131344d34342e303538326102208201527f203130332e3131344c34372e3232352039322e3739313522207374726f6b653d6102408201527f22626c61636b22207374726f6b652d77696474683d2238222066696c6c3d22236102608201526823222323212191179f60b91b6102808201526102890190565b7f20202020203c7061746820643d224d36302e333534332034382e34333939433581527f362e383630372035362e383832342035392e373432372036352e32323937203660208201527f352e363034322036372e363535334337312e343635372037302e30383039203760408201527f392e343033342036362e323130382038322e3839372035372e3736383343383660608201527f2e333930372034392e333235382038332e353038362034302e3937383420373760808201527f2e363437312033382e353532394337312e373835362033362e3132373320363360a08201527f2e383437392033392e393937332036302e333534332034382e343339395a222060c08201527f7374726f6b653d22626c61636b22207374726f6b652d77696474683d2234222060e08201526f3334b6361e9111a3222323212191179f60811b6101008201526101100190565b7f20202020203c7061746820643d224d33312e323434392033362e33393443323781527f2e373531332034342e383336352033302e363333332035332e3138333820333660208201527f2e343934382035352e363039344334322e333536332035382e3033352035302e60408201527f3239342035342e313634392035332e373837372034352e373232344335372e3260608201527f3831332033372e323739392035342e333939332032382e393332352034382e3560808201527f3337372032362e3530374334322e363736322032342e303831342033342e373360a08201527f38352032372e393531342033312e323434392033362e3339345a22207374726f60c08201527f6b653d22626c61636b22207374726f6b652d77696474683d2234222066696c6c60e08201526b1e9111a3222323212191179f60a11b61010082015261010c0190565b7f20202020203c7061746820643d224d38332e393134332035382e32363734433881527f302e373036392036362e303138312037342e323232372037302e36393420363960208201527f2e343331332036382e373131334336352e363334332036372e31342036342e3060408201527f3339392036312e383538372036352e313337392035352e383736394c37312e3760608201527f3830382035362e353333384c36362e353633322035312e303837334336392e3760808201527f3730352034332e333336352037362e323534382033382e363630362038312e3060a08201527f3436312034302e363433344338352e383337352034322e363236312038372e3160c08201527f3231362035302e353136362038332e393134332035382e323637345a2220666960e08201526b36361e91313630b1b591179f60a11b61010082015261010c0190565b7f20202020203c7061746820643d224d35342e353732352034352e30353036433581527f312e333635312035322e383031332034342e383830392035372e34373732203460208201527f302e303839352035352e343934354333362e323932352035332e39323332203360408201527f342e363938312034382e363431392033352e373936312034322e363630314c3460608201527f322e3433392034332e3331374c33372e323231342033372e383730354334302e60808201527f343238372033302e313139372034362e3931332032352e343433382035312e3760a08201527f3034332032372e343236364335362e343935372032392e343039332035372e3760c08201527f3739382033372e323939382035342e353732352034352e303530365a2220666960e08201526b36361e91313630b1b591179f60a11b61010082015261010c0190565b7f20202020203c636972636c652063783d2234322e32313239222063793d22363881527f2e323830362220723d22312e393936363422207472616e73666f726d3d22726f60208201527f746174652831372e303534382034322e323132392036382e323830362922206660408201526c34b6361e91313630b1b591179f60991b6060820152606d0190565b7f20202020203c636972636c652063783d2234382e35373632222063793d22373081527f2e323332372220723d22312e393936363422207472616e73666f726d3d22726f60208201527f746174652831372e303534382034382e353736322037302e323332372922206660408201526c34b6361e91313630b1b591179f60991b6060820152606d0190565b600881036135e55750604051610cef81610ce16112346135366134876133a56130c760208701610b2f565b7f20202020203c7061746820643d224d34352e3932383920352e3236333236433381527f342e3736313520312e37353135352032322e38383720382e303232312031392e60208201527f333731352031392e323031354331382e303333392032332e343535332031382e60408201527f303936332032372e383230362031392e323939392033312e373835374331312e60608201527f323233352033382e3930303420332e313231372035302e3337323620352e313160808201527f3434382036332e33353543372e33333432312037372e3831362032312e35393660a08201527f332039312e343130312035342e36323738203130312e3635314338372e35363860c08201527f38203131322e313533203130372e303231203130392e313435203131372e303860e08201527f372039382e35323139433132362e31322038382e39383934203132362e3030396101008201527f2037342e39323134203132332e3435332036342e34363635433132362e3637386101208201527f2036312e39303739203132392e3230332035382e33383235203133302e3533326101408201527f2035342e31353639433133342e3034372034322e39373735203132372e3839396101608201527f2033312e30333934203131362e3733312032372e35323737433130372e3337386101808201527f2032342e353836342039372e353238312032382e353037362039322e353039366101a08201527f2033362e343237394338312e313830382032382e343034372036382e383238206101c08201527f32362e333030342036302e373031322032362e333339334336312e30373939206101e08201527f31372e303033372035352e3235343220382e31393536382034352e39323839206102008201527f352e32363332365a222066696c6c3d222342344538343722207374726f6b653d6102208201527911313630b1b5911039ba3937b5b296bbb4b23a341e911c11179f60311b61024082015261025a0190565b7f20202020203c7061746820643d224d32342e383830382035322e32343339433281527f312e323436392035392e393537382032322e313532382037342e39373535203560208201527f362e333833312038362e333937324339392e38333733203130302e383937203160408201527f30322e3631342038322e39313138203130362e3536352037392e35303239222060608201527f7374726f6b653d22626c61636b22207374726f6b652d77696474683d2238222060808201527739ba3937b5b296b634b732b1b0b81e913937bab73211179f60411b60a082015260b80190565b7f20202020203c636972636c652063783d2233392e33353137222063793d22323681527f2e323330362220723d2231302e30343822207472616e73666f726d3d22726f7460208201527f61746528362e333934362033392e333531372032362e3233303629222066696c60408201527f6c3d22776869746522207374726f6b653d22626c61636b22207374726f6b652d60608201526a3bb4b23a341e911c11179f60a91b6080820152608b0190565b7f20202020203c636972636c652063783d223131302e313336222063793d22343781527f2e363434362220723d2231302e30343822207472616e73666f726d3d22726f7460208201527f61746528362e33393436203131302e3133362034372e3634343629222066696c60408201527f6c3d22776869746522207374726f6b653d22626c61636b22207374726f6b652d60608201526a3bb4b23a341e911c11179f60a91b6080820152608b0190565b6009810361369b5750604051806135fe602082016100fa565b6136079061012f565b61361090610506565b6136199061064d565b61362290610787565b61362b906108cf565b61363490610a19565b61363d90610aa4565b6136469061012f565b61364f90610506565b6136589061064d565b61366190610787565b61366a906108cf565b61367390610a19565b61367c90610aa4565b631e17b39f60e11b815260040103601f1981018252610cef908261009e565b600a8103613bcb5750604051610cef81610ce16112346139e76138766136f4602086016023907f3c67207472616e73666f726d3d227472616e736c617465283537302c2032323881526214911f60e91b60208201520190565b7f20202020203c7061746820643d224d36382e383534352035392e35323738433481527f352e3336382039362e343635392031372e3432362039312e3038373720362e3360208201527f393037382038332e373831334331372e33373635203132322e36342039302e3660408201527f363837203133362e3737203130302e3331392039382e30353631433130312e3160608201527f34392039342e37323438203130312e3539362039312e36363337203130312e3760808201527f31342038382e38353332433130322e3338372037322e383432322039322e343060a08201527f39392036342e393636372038322e313331372036312e363230394337372e343460c08201527f30392036302e3039342037322e363837332035392e353130352036382e38353460e08201527f352035392e353237385a222066696c6c3d222345423435343522207374726f6b6101008201527f653d22626c61636b22207374726f6b652d77696474683d2234222f3e0000000061012082015261013c0190565b7f20202020203c7061746820643d224d3130322e3339352039302e31353838433981527f382e363835342036382e303334352038322e373436392036302e31333732203660208201527f372e373035392035382e353331344337352e313931372035352e37383435203860408201527f362e313139332035342e313831342039332e393139392035382e36333931433160608201527f30312e3734362035362e33303434203131362e3137312034382e31333135203160808201527f31312e3236322033342e313137324c3132302e3837312033362e36373836433160a08201527f32312e3534312034312e38383631203131372e3835362035342e31363633203960c08201527f372e373534352036312e36323639433130322e35362036362e3635313420313060e08201527f352037352e34393331203130322e3339352039302e313538385a222066696c6c6101008201526b1e9111a11a229c1a1b91179f60a11b61012082015261012c0190565b7f20202020203c7061746820643d224d39332e393139392035382e36333931433881527f362e313139332035342e313831342037352e313931372035352e37383435203660208201527f372e373035392035382e353331344338322e373436392036302e31333732203960408201527f382e363835342036382e30333435203130322e3339352039302e31353838433160608201527f30352037352e34393331203130322e35362036362e363531342039372e37353460808201527f352036312e363236394d39332e393139392035382e36333931433130312e373460a08201527f362035362e33303434203131362e3137312034382e31333135203131312e323660c08201527f322033342e313137324c3132302e3837312033362e36373836433132312e353460e08201527f312034312e38383631203131372e3835362035342e313636332039372e3735346101008201527f352036312e363236394d39332e393139392035382e363339314339352e3330396101208201527f372035392e343333332039362e363030332036302e34322039372e37353435206101408201527f36312e3632363922207374726f6b653d22626c61636b22207374726f6b652d776101608201526934b23a341e911a11179f60b11b61018082015261018a0190565b600b810361475f5750604051610cef81610ce161123461471661426c613f22613c27602087016023907f3c67207472616e73666f726d3d227472616e736c617465283537302c2032363081526214911f60e91b60208201520190565b7f20202020203c7061746820643d224d39392e3038352032392e3435313743383381527f2e383937322032382e363838382036312e3038352036342e343531322033322e60208201527f3538352036302e3435313243362e31383437362035352e3635313520382e393160408201527f38352034392e3935313820352e30383534312034302e3935313743322e30383560608201527f31352033362e39353137202d332e37313335342033332e333532312031372e3060808201527f3836352032302e393532324332322e393135382031372e3437372032392e323460a08201527f37382031352e343339322033352e3538352031342e343035314333332e35383560c08201527f20352e34353234362035322e303835202d322e30343837322035362e3538352060e08201527f342e34353137324335332e3431383320362e34383539372034382e31383520316101008201527f312e313934322035322e3538352031332e373533314336322e343030312031346101208201527f2e343737342037302e393835332031362e383635332037362e303836352031386101408201527f2e393532314338342e353836352032312e36313838203130322e3438362032356101608201527f2e33353231203130362e3038362031382e39353231433131302e3538362031306101808201527f2e39353231203132352e3538362031332e34353231203132312e3038362031376101a08201527f2e34353231433131362e3538362032312e34353231203132342e3538362035346101c08201527f2e39353231203132312e3038362035322e39353231433131382e3238362035316101e08201527f2e33353231203131352e3136372034332e36363637203131342e3520343143316102008201527f31352033362e35203131302033302039392e3038352032392e343531375a22206102208201527f66696c6c3d222344394439443922207374726f6b653d22626c61636b222073746102408201526f3937b5b296bbb4b23a341e911991179f60811b6102608201526102700190565b7f20202020203c7061746820643d224d3130362e3038362031382e39353231433181527f31302e3538362031302e39353231203132352e3538362031332e34353231203160208201527f32312e3038362031372e34353231433131382e3538382032372e34353320313260408201527f352e3038352035312e34353132203132312e3038362035322e3935313243313160608201527f372e3838382035342e31353132203131342e3735332034322e3435313220313160808201527f332e3538352033362e34353132433131312e3735322033312e3238343820393260a08201527f2e303938382033302e303030382039302e352033324338382e3530313520333460c08201527f2e3439392035382e343731332033362e343030322036332e352033304337342e60e08201527f352031362034392e363636322033302e363636372034332032394333382e33336101008201527f33332033312033322e312033362e312032362e352033342e354332302e3920336101208201527f322e3920382e37353139322033372e3435313520352e30383534312034302e396101408201527f35313743322e30383531352033362e39353137202d332e37313335342033332e6101608201527f333532312031372e303836352032302e393532324332322e393135382031372e6101808201527f3437372032392e323437382031352e343339322033352e3538352031342e34306101a08201527f35314333332e35383520352e34353234362035322e303835202d322e303438376101c08201527f322035362e35383520342e34353137324335332e3431383320362e34383539376101e08201527f2034382e3138352031312e313934322035322e3538352031332e3735333143366102008201527f322e343030312031342e343737342037302e393835332031362e3836353320376102208201527f362e303836352031382e393532314338342e353836352032312e3631383820316102408201527f30322e3438362032352e33353231203130362e3038362031382e393532315a226102608201527f2066696c6c3d222339333936394622207374726f6b653d22626c61636b222073610280820152703a3937b5b296bbb4b23a341e911991179f60791b6102a08201526102b10190565b7f20202020203c7061746820643d224d392e36383234372034392e37353935433981527f2e35393335372034392e3730353120392e35353337382034392e36363731203960208201527f2e353338392034392e363530374c392e35333336342034392e363334394c362e60408201527f36373438352034312e3035383543362e39373134362034302e3539353320372e60608201527f34383136312033392e3936393420382e32363231342033392e3235313143392e60808201527f35393231322033382e303237312031312e393231392033372e3034323620313560a08201527f2e343536362033362e303431314c31352e363133322033352e393936374c313560c08201527f2e373734332033352e393531394331372e363134312033352e3434303120313960e08201527f2e373234382033342e393332322032322e313133392033342e333830324832376101008201527f2e3038354832372e313136354c32372e3134382033342e333738324332392e376101208201527f33382033342e323134382033332e323438322033332e353036342033372e39306101408201527f39322033312e3930394333392e36322033312e333232372034312e34383836206101608201527f33302e363135372034332e353236362032392e373730334334342e37343931206101808201527f33332e323732332034342e343839372033372e313033392034322e34313936206101a08201527f34302e343231384334302e383435382034322e393434322033382e31383834206101c08201527f34352e323331322033342e3230382034362e3835314333322e3134382034372e6101e08201527f363839332032392e373334312034382e333438332032362e393337342034382e6102008201527f373635354332362e343630312034382e383336362032352e393731372034382e6102208201527f393030382032352e343732312034382e393537364332302e343130382034392e6102408201527f353332372031372e3431362034392e393631352031352e353436382035302e326102608201527f3239324331352e333233342035302e323631322031352e313136312035302e326102808201527f3930392031342e393233332035302e333138324331332e303438382035302e356102a08201527f3834312031322e373237352035302e353838342031322e333434362035302e346102c08201527f3835354331322e313733372035302e343339352031312e393231332035302e336102e08201527f3931372031312e363738382035302e333435384331312e363130332035302e336103008201527f3332382031312e353432372035302e33322031312e343737392035302e3330376103208201527f344331312e313437372035302e323433332031302e373935372035302e3136396103408201527f312031302e343634382035302e303733334331302e313235382034392e3937356103608201527f3120392e38363031342034392e3836383420392e36383234372034392e3735396103808201527f355a222066696c6c3d22776869746522207374726f6b653d22626c61636b22206103a08201527139ba3937b5b296bbb4b23a341e911911179f60711b6103c08201526103d20190565b7f20202020203c636972636c652063783d2232392e35222063793d2232342e352281527610391e9119971a91103334b6361e91313630b1b591179f60491b602082015260370190565b600c8103615b665750604051610cef81610ce1611234615add615a526159ad6159126157c861567e61554461540a6151a2614b9161479f60208e016100fa565b7f20202020203c7061746820643d224d38322e383430332036372e33383633433881527f322e383430332038392e313537342036352e31393133203130362e383036203460208201527f332e34323032203130362e3830364332312e363439203130362e38303620342060408201527f38392e3135373420342036372e3338363343342035352e3530313420392e323560608201527f3935352034342e383434392031372e353738312033372e363137354331342e3960808201527f3934392033352e363035382031312e393033392033312e353236342031302e3960a08201527f3235362032352e3737363143392e39383230392032302e323239372031312e3060c08201527f3034322031332e313238392031362e3334333520342e38323939334331362e3860e08201527f30383520342e31303730392031372e3930333420342e33303535362031382e316101008201527f333420352e31333335384331392e3333363820392e3435332032312e333836336101208201527f2031352e323335312032342e313035372032302e303832314332362e363438346101408201527f2032342e363134322032392e373736382032382e333238362033332e333436316101608201527f2032392e323635314333362e353631382032382e343137352033392e393338336101808201527f2032372e393636312034332e343230322032372e393636314335362e333137206101a08201527f32372e393636312036372e373637332033342e313539342037342e39353932206101c08201527f34332e373334324337372e343833362034342e333630362038312e37303538206101e08201527f34342e343339362038362e333434342034322e373232344338392e30353720346102008201527f312e373138332039312e3931322034302e303939392039342e363533312033376102208201527f2e363137354339362e343737372033352e3936352039382e323531392033332e6102408201527f393239382039392e392033312e343338433130302e3430322033302e363739346102608201527f203130312e3536392033302e3837203130312e3639332033312e3737314331306102808201527f322e3639372033392e30363036203130312e3539382035302e323130382039326102a08201527f2e393134342035362e393431314339302e323130372035392e303336362038366102c08201527f2e373731382036302e373033372038322e343332312036312e363932334338326102e08201527f2e373031312036332e353531342038322e383430332036352e343532362038326103008201527f2e383430332036372e333836335a222066696c6c3d2223464234413441222f3e6103208201526103400190565b7f20202020203c7061746820643d224d31372e353738312033372e36313735433981527f2e32353935352034342e3834343920342035352e3530313420342036372e333860208201527f363343342038392e313537342032312e363439203130362e3830362034332e3460408201527f323032203130362e3830364336352e31393133203130362e3830362038322e3860608201527f3430332038392e313537342038322e383430332036372e333836334338322e3860808201527f3430332036352e343532362038322e373031312036332e353531342038322e3460a08201527f3332312036312e363932334d31372e353738312033372e363137354331342e3960c08201527f3934392033352e363035382031312e393033392033312e353236342031302e3960e08201527f3235362032352e373736314d31372e353738312033372e363137354331372e356101008201527f3738312033372e363137352032312e323532352033342e383333322032342e316101208201527f3035372033332e323232314332372e3431382033312e333531382033332e33346101408201527f36312032392e323635312033332e333436312032392e323635314d33332e33346101608201527f36312032392e323635314333362e353631382032382e343137352033392e39336101808201527f38332032372e393636312034332e343230322032372e393636314335362e33316101a08201527f372032372e393636312036372e373637332033342e313539342037342e3935396101c08201527f322034332e373334324d33332e333436312032392e323635314332392e3737366101e08201527f382032382e333238362032362e363438342032342e363134322032342e3130356102008201527f372032302e303832314d37342e393539322034332e373334324337372e3438336102208201527f362034342e333630362038312e373035382034342e343339362038362e3334346102408201527f342034322e373232344d37342e393539322034332e373334324337372e3333346102608201527f2034372e303932322038322e313533342035352e3338352038322e34333231206102808201527f36312e363932334d38322e343332312036312e363932334338362e37373138206102a08201527f36302e373033372039302e323130372035392e303336362039322e39313434206102c08201527f35362e393431314d38362e333434342034322e373232344338362e39323834206102e08201527f34362e333136332038392e30362035342e313931342039322e393134342035366103008201527f2e393431314d38362e333434342034322e373232344338392e3035372034312e6103208201527f373138332039312e3931322034302e303939392039342e363533312033372e366103408201527f3137354339362e343737372033352e3936352039382e323531392033332e39326103608201527f39382039392e392033312e343338433130302e3430322033302e3637393420316103808201527f30312e3536392033302e3837203130312e3639332033312e373731433130322e6103a08201527f3639372033392e30363036203130312e3539382035302e323130382039322e396103c08201527f3134342035362e393431314d31302e393235362032352e3737363143392e39386103e08201527f3230392032302e323239372031312e303034322031332e313238392031362e336104008201527f34333520342e38323939334331362e3830383520342e31303730392031372e396104208201527f30333420342e33303535362031382e31333420352e31333335384331392e33336104408201527f363820392e3435332032312e333836332031352e323335312032342e313035376104608201527f2032302e303832314d31302e393235362032352e373736314331342e313336396104808201527f2032362e363532312032312e323638362032362e373339372032342e313035376104a08201527f2032302e30383231222066696c6c3d222346423441344122207374726f6b653d6104c08201527911313630b1b5911039ba3937b5b296bbb4b23a341e911c11179f60311b6104e08201526104fa0190565b7f20202020203c7061746820643d224d34352e393630382038392e33323632433481527f382e313432332038382e393234312035302e333831342038382e32363532203560208201527f322e363530372038372e323930364335332e333934392038362e39373131203560408201527f342e323330362038372e353832392035342e31312038382e333833384c35332e60608201527f3031312039352e363830344335322e383739392039362e353530382035312e3760808201527f3639342039362e383339342035312e3233312039362e313433314c34352e393660a08201527f30382038392e333236325a4d34352e393630382038392e333236324333392e3060c08201527f3737352039302e353934392033322e373638312038392e333036352032372e3860e08201527f3935312038372e333037324d32372e383935312038372e333037324332352e316101008201527f3835352038362e313935352032322e393139392038342e383633392032312e326101208201527f3436382038332e363239394332302e363832342038332e323133362031392e386101408201527f3535372038332e343338372031392e363232312038342e314c31362e393137346101608201527f2039312e373538364331362e363036322039322e363339382031372e353636326101808201527f2039332e343238332031382e333730322039322e393531394c32372e383935316101a08201527f2038372e333037325a222066696c6c3d22776869746522207374726f6b653d226101c082015278313630b1b5911039ba3937b5b296bbb4b23a341e911a11179f60391b6101e08201526101f90190565b7f20202020203c7061746820643d224d34362e393237382036302e36353631433481527f332e383938392036372e393735362034362e343239332037352e31313131203560208201527f312e333932342037372e313634394335362e333535352037392e32313837203660408201527f332e313838312037352e393537372036362e3231372036382e3633383243363960608201527f2e323435392036312e333138372036362e373135352035342e3138333120363160808201527f2e373532342035322e313239334335362e373839332035302e3037353620343960a08201527f2e393536372035332e333336362034362e393237382036302e363536315a222060c0820152600080516020615e9683398151915260e08201526d35b296bbb4b23a341e911a11179f60911b61010082015261010e0190565b7f20202020203c7061746820643d224d32312e343238382035302e31303433433181527f382e333939392035372e343233382032302e393330332036342e35353934203260208201527f352e383933342036362e363133314333302e383536342036382e36363639203360408201527f372e363839312036352e343035392034302e3731382035382e3038363443343360608201527f2e373436392035302e373636392034312e323136342034332e3633313420333660808201527f2e323533342034312e353737364333312e323930332033392e3532333820323460a08201527f2e343537372034322e373834382032312e343238382035302e313034335a222060c0820152600080516020615e9683398151915260e08201526d35b296bbb4b23a341e911a11179f60911b61010082015261010e0190565b7f20202020203c7061746820643d224d36372e333338352036392e31373137433681527f342e353238382037352e393631342035382e383438362038302e30353735203560208201527f342e363531332037382e333230364335312e333235322037362e39343432203460408201527f392e393238342037322e333137372035302e383930332036372e303737374c3560608201527f362e373039352036372e363533314c35322e313338392036322e38383243353460808201527f2e393438352035362e303932332036302e363238372035312e3939363220363460a08201527f2e3832362035332e3733334336392e303233322035352e343639392037302e3160c08201527f3438312036322e333832312036372e333338352036392e313731375a2220666960e08201526b36361e91313630b1b591179f60a11b61010082015261010c0190565b7f20202020203c7061746820643d224d34312e363334342035372e35393336433381527f382e383234372036342e333833332033332e313434352036382e34373934203260208201527f382e393437322036362e373432354332352e363231312036352e33363631203260408201527f342e323234332036302e373339362032352e313836312035352e343939354c3360608201527f312e303035342035362e3037354c32362e343334382035312e3330333843323960808201527f2e323434342034342e353134322033342e393234362034302e3431382033392e60a08201527f313231392034322e313534394334332e333139312034332e383931382034342e60c08201527f3434342035302e383033392034312e363334342035372e353933365a2220666960e08201526b36361e91313630b1b591179f60a11b61010082015261010c0190565b7f20202020203c656c6c697073652063783d2232372e31323333222063793d223781527f362e37353439222072783d22352e3537373535222072793d22312e333737373160208201527f22207472616e73666f726d3d22726f7461746528312e30393836342032372e3160408201527f3233332037362e3735343929222066696c6c3d22626c61636b222f3e000000006060820152607c0190565b7f20202020203c656c6c697073652072783d22352e3537373535222072793d223181527f2e333737373122207472616e73666f726d3d226d6174726978282d302e38393260208201527f323034202d302e343531363333202d302e34353136333320302e38393232303460408201527f2034302e323538392038302e3737303729222066696c6c3d22626c61636b222f6060820152601f60f91b608082015260810190565b7f20202020203c636972636c652063783d2233332e33343038222063793d22373381527f2e303735372220723d22312e373439303622207472616e73666f726d3d22726f60208201527f746174652831372e303534382033332e333430382037332e303735372922206660408201526c34b6361e91313630b1b591179f60991b6060820152606d0190565b7f20202020203c636972636c652063783d2233382e393135222063793d2237342e81527f373835372220723d22312e373439303622207472616e73666f726d3d22726f7460208201527f6174652831372e303534382033382e3931352037342e3738353729222066696c60408201526a361e91313630b1b591179f60a91b6060820152606b0190565b600d03615e8d57604051610cef81610ce1611234615d0b615b89602085016100fa565b7f20202020203c7061746820643d224d34342e393734312032312e39343032433181527f322e343538382033362e3334363120372e36343431312036302e30323531203160208201527f332e373938332038312e313837354332322e323338372039392e31333338203460408201527f332e37393835203130352e3539382035322e30363232203130352e363139433160608201527f30332e3339203130332e333037203130392e3331382035372e3937303520383760808201527f2e373536372032302e363938384338312e393739392034322e3231303820373060a08201527f2e363330382035392e313430362035322e363037392035332e3037333743333860c08201527f2e313839362034382e323230312034312e353131312033302e3239353720343460e08201527f2e393734312032312e393430325a222066696c6c3d22234646384130312220736101008201527f74726f6b653d22626c61636b22207374726f6b652d77696474683d2238222f3e6101208201526101400190565b7f20202020203c7061746820643d224d34302e313331372036322e35373638433281527f322e313237342036382e383134342032302e313033372038302e35313639203260208201527f342e323233352039312e323837354332392e35343336203130302e353137203460408201527f312e39353931203130342e3339342034362e36343436203130342e363531433760608201527f352e36373437203130352e3032342037372e3638342038322e35322036342e3360808201527f3439332036332e323331314336312e373135352037332e383230392035352e3760a08201527f3836312038312e393532322034352e333837362037382e333739374333372e3060c08201527f3638382037352e353231382033382e343137352036362e363533362034302e3160e08201527f3331372036322e353736385a222066696c6c3d222346423441344122207374726101008201527f6f6b653d22626c61636b22207374726f6b652d77696474683d2234222f3e000061012082015261013e0190565b610cef6100d656fe66696c6c3d22776869746522207374726f6b653d22626c61636b22207374726fa26469706673582212201aeb33f652c50b38534b1ddd1beeadbb55a30fa9b7b986cf98cd77125fb435df64736f6c634300080d0033",
  "devdoc": {
    "kind": "dev",
    "methods": {},
    "version": 1
  },
  "userdoc": {
    "kind": "user",
    "methods": {},
    "version": 1
  },
  "storageLayout": {
    "storage": [],
    "types": null
  }
}