{
  "address": "0xDA7991CB363e76C33cE5dBa42c6ea28B4e8A5ECc",
  "abi": [
    {
      "inputs": [
        {
          "internalType": "uint256",
          "name": "colorInt",
          "type": "uint256"
        }
      ],
      "name": "GetColor",
      "outputs": [
        {
          "internalType": "string",
          "name": "",
          "type": "string"
        }
      ],
      "stateMutability": "pure",
      "type": "function"
    },
    {
      "inputs": [
        {
          "internalType": "uint256",
          "name": "colorInt",
          "type": "uint256"
        }
      ],
      "name": "GetColorName",
      "outputs": [
        {
          "internalType": "string",
          "name": "",
          "type": "string"
        }
      ],
      "stateMutability": "pure",
      "type": "function"
    },
    {
      "inputs": [
        {
          "internalType": "string",
          "name": "towAndHeelColor",
          "type": "string"
        },
        {
          "internalType": "string",
          "name": "cuffColor",
          "type": "string"
        },
        {
          "internalType": "string",
          "name": "color",
          "type": "string"
        }
      ],
      "name": "GetLayout",
      "outputs": [
        {
          "internalType": "string",
          "name": "",
          "type": "string"
        }
      ],
      "stateMutability": "pure",
      "type": "function"
    },
    {
      "inputs": [
        {
          "internalType": "uint256",
          "name": "towAndHeelColor",
          "type": "uint256"
        },
        {
          "internalType": "uint256",
          "name": "cuffColor",
          "type": "uint256"
        },
        {
          "internalType": "uint256",
          "name": "color",
          "type": "uint256"
        }
      ],
      "name": "GetLayoutMetadata",
      "outputs": [
        {
          "internalType": "string",
          "name": "",
          "type": "string"
        }
      ],
      "stateMutability": "pure",
      "type": "function"
    }
  ],
  "transactionHash": "0x7189fb4c425ebdc3a611af4f3dd2a897218afb128de4d8df9fa9500579a318df",
  "args": [],
  "solcInputHash": "85e067feac1cff56b87e612e32077d0a",
  "bytecode": "0x6080806040523461001a57610fee9081610020823930815050f35b600080fdfe60406080815260048036101561001457600080fd5b600091823560e01c92836357734f6b146107d95783635a8289c9146100695750505080639fc4da18146100605763d5f11c3414610053575b3880600080fd5b61005b610a2e565b61004c565b5061005b61092b565b60603660031901126107ce5767ffffffffffffffff9280358481116107d55761009590369083016108c1565b936024358181116107d1576100ad90369084016108c1565b926044359182116107ce57506100c5913691016108c1565b82517f3c67207472616e73666f726d3d227472616e736c617465282d313430202d31306020820152631814911f60e11b6040820152909181906044820167040404078e0c2e8d60c31b81526008017f2020202020202020643d224d3738352e39203237352e363236433732352e303981527f37203234372e383938203636392e323132203233392e383832203636312e303760208201527f37203235372e3732314c3631312e343935203336362e343439433633352e323460408201527f31203430342e373535203731322e353234203437382e343635203833312e363860608201527f31203436362e3835394c3838312e323633203335382e3133433838392e33393860808201527f203334302e323932203834362e373032203330332e333533203738352e39203260a0820152671b9a971b191b2d1160c11b60c082015260c80164010101010160dd1b8152600501681010103334b6361e9160b91b815260090161023191610f6b565b61023a90610f82565b0391601f1992838101835261024f908361089f565b835180926020820161026091610f6b565b630101010160e51b8152600401660404078e0c2e8d60cb1b81526007017f202020202020643d224d3838312e343937203335382e323337433837332e333681527f32203337362e303736203831372e343737203336382e3036203735362e36373460208201527f203334302e333332433639352e383731203331322e363035203635332e31373660408201527f203237352e363636203636312e333131203235372e383237433636392e34343560608201527f203233392e393839203732352e3333203234382e303035203738362e3133332060808201527f3237352e373332433834362e393336203330332e3436203838392e363332203360a0820152771a1817199c9c101c1c18971a1c9b90199a9c1719199bad1160411b60c082015260d8017f20202020202020202020202066696c6c3d22626c61636b22202f3e00000000008152601b01660404078e0c2e8d60cb1b81526007017f202020202020643d224d3136382e353039203636372e323633433137352e383381527f32203630362e383537203233302e343231203538322e313039203235362e382060208201527f3537372e323836433239302e323036203631322e343836203333342e3434362060408201527f3639392e3835203234342e313533203736372e373033433233322e303338203760608201527f36302e353239203135392e333534203734322e373731203136382e35303920366080820152671b1b97191b19ad1160c11b60a082015260a80164010101010160dd1b815260050166103334b6361e9160c91b81526007016104af9087610f6b565b7f2220207374726f6b653d22626c61636b22207374726f6b652d77696474683d2281526901c1110179f10101010160b51b6020820152602a010383810183526104f8908361089f565b83519485926020840161050a91610f6b565b6504078e0c2e8d60d31b81526006017f202020643d224d3630342e3334203739312e323735433733372e30383120373981527f372e303337203733362e303639203637372e313433203733362e30363920363760208201527f372e313433433639382e333338203637312e313131203631392e3136382036386040820152751a971a1c99101b181a17199a101b9c9897191b9aad1160511b6060820152607601681010103334b6361e9160b91b81526009016105c591610f6b565b6105ce90610f82565b6504078e0c2e8d60d31b81526006017f20202020643d224d3235362e353932203537372e37344c3437342e373038203581527f36342e363131433530342e323536203536322e383332203533302e343037203560208201527f34342e383832203534322e363839203531372e3934394c3631312e373238203360408201527f36362e353535433633352e343735203430342e383631203731322e373537203460608201527f37382e353731203833312e393134203436362e3936354c3733352e383631203660808201527f37372e353937433639382e3133203637312e353635203631382e39362036383560a08201527f2e393436203630342e313333203739312e373239433437312e3339322037383560c08201527f2e393637203235332e363338203737332e383936203234332e3934362037363860e08201527f2e313537433333342e323338203730302e333035203238392e3939392036313261010082015274171c9a1890191a9b171a9c99101a9b9b971b9a2d1160591b6101208201526101350166103334b6361e9160c91b815260070161076d91610f6b565b7f22207374726f6b653d22626c61636b22207374726f6b652d77696474683d223881526401110179f160dd1b6020820152602501631e17b39f60e11b81526004010390810183526107be908361089f565b516107ca819282610833565b0390f35b80fd5b8380fd5b8280fd5b60203660031901126107ce57506107f36107ca9235610eaa565b905191829182610833565b918091926000905b82821061081e575011610817575050565b6000910152565b91508060209183015181860152018291610806565b6040916020825261085381518092816020860152602086860191016107fe565b601f01601f1916010190565b50634e487b7160e01b600052604160045260246000fd5b6040810190811067ffffffffffffffff82111761089257604052565b61089a61085f565b604052565b90601f8019910116810190811067ffffffffffffffff82111761089257604052565b81601f820112156109195780359067ffffffffffffffff821161091e575b604051926108f7601f8401601f19166020018561089f565b8284526020838301011161091957816000926020809301838601378301015290565b600080fd5b61092661085f565b6108df565b506020366003190112610919576004358061095857506107ca61094c610cf4565b60405191829182610833565b6001810361097157506107ca61096c610cd1565b61094c565b6002810361098557506107ca61096c610cae565b6003810361099957506107ca61096c610c8b565b600481036109ad57506107ca61096c610c68565b600581036109c157506107ca61096c610c45565b600681036109d557506107ca61096c610c22565b600781036109e957506107ca61096c610bff565b600881036109fd57506107ca61096c610bdc565b60098103610a1157506107ca61096c610bb9565b600a03610a23576107ca61096c610b96565b6107ca61096c610b73565b506060366003190112610919576107ca610ac361094c610a4f600435610eaa565b610b65610b57610a60602435610eaa565b610b51610b1e610b0f610a74604435610eaa565b93606e60456040519b8c809b7f7b2274726169745f74797065223a2022546f7720436f6c6f72222c202276616c6020830152643ab2911d1160d91b6040830152602081519485930191016107fe565b62089f4b60ea1b6045918b01918201527f7b2274726169745f74797065223a20224375666620436f6c6f72222c20227661604882015265363ab2911d1160d11b60688201520190610f6b565b62089f4b60ea1b815260030190565b7f7b2274726169745f74797065223a2022436f6c6f72222c202276616c7565223a8152601160f91b602082015260210190565b90610f6b565b61227d60f01b815260020190565b03601f19810183528261089f565b60405190610b8082610876565b60078252660233030303030360cc1b6020830152565b60405190610ba382610876565b600782526611a3232323232360c91b6020830152565b60405190610bc682610876565b60078252662344394439443960c81b6020830152565b60405190610be982610876565b600782526611a1a31c18a32360c91b6020830152565b60405190610c0c82610876565b60078252662333453342443360c81b6020830152565b60405190610c2f82610876565b6007825266119c9c2198a32360c91b6020830152565b60405190610c5282610876565b6007825266119b9820a299a360c91b6020830152565b60405190610c7582610876565b60078252662342344538343760c81b6020830152565b60405190610c9882610876565b60078252662346444544354560c81b6020830152565b60405190610cbb82610876565b60078252662346463841303160c81b6020830152565b60405190610cde82610876565b600782526608d191104c918d60ca1b6020830152565b60405190610d0182610876565b60078252662345423435343560c81b6020830152565b60405190610d2482610876565b6005825264426c61636b60d81b6020830152565b60405190610d4582610876565b6005825264576869746560d81b6020830152565b60405190610d6682610876565b60048252634772617960e01b6020830152565b60405190610d8682610876565b6006825265507572706c6560d01b6020830152565b60405190610da882610876565b60098252684461726b20426c756560b81b6020830152565b60405190610dcd82610876565b6004825263426c756560e01b6020830152565b60405190610ded82610876565b600a8252692230b9359023b932b2b760b11b6020830152565b60405190610e1382610876565b600582526423b932b2b760d91b6020830152565b60405190610e3482610876565b600682526559656c6c6f7760d01b6020830152565b60405190610e5682610876565b60068252654f72616e676560d01b6020830152565b60405190610e7882610876565b600482526350696e6b60e01b6020830152565b60405190610e9882610876565b600382526214995960ea1b6020830152565b80610ebb5750610eb8610e8b565b90565b60018103610ecc5750610eb8610e6b565b60028103610edd5750610eb8610e49565b60038103610eee5750610eb8610e27565b60048103610eff5750610eb8610e06565b60058103610f105750610eb8610de0565b60068103610f215750610eb8610dc0565b60078103610f325750610eb8610d9b565b60088103610f435750610eb8610d79565b60098103610f545750610eb8610d59565b600a03610f6357610eb8610d38565b610eb8610d17565b90610f7e602092828151948592016107fe565b0190565b7f22207374726f6b653d22626c61636b22207374726f6b652d77696474683d22388152631110179f60e11b60208201526024019056fea2646970667358221220b9001420901bf80fb129c02e971d3e852c8ada923edba1beff275f3d70c9128664736f6c634300080d0033",
  "devdoc": {
    "kind": "dev",
    "methods": {},
    "version": 1
  },
  "userdoc": {
    "kind": "user",
    "methods": {},
    "version": 1
  },
  "storageLayout": {
    "storage": [],
    "types": null
  }
}