{
  "address": "0x79B04FFa6968FC3016B34D83e490b7fb7262d111",
  "abi": [
    {
      "inputs": [
        {
          "internalType": "uint256",
          "name": "backgroundType",
          "type": "uint256"
        }
      ],
      "name": "BackClip",
      "outputs": [
        {
          "internalType": "string",
          "name": "",
          "type": "string"
        }
      ],
      "stateMutability": "pure",
      "type": "function"
    },
    {
      "inputs": [
        {
          "internalType": "uint256",
          "name": "backgroundType",
          "type": "uint256"
        }
      ],
      "name": "FrontClip",
      "outputs": [
        {
          "internalType": "string",
          "name": "",
          "type": "string"
        }
      ],
      "stateMutability": "pure",
      "type": "function"
    },
    {
      "inputs": [
        {
          "internalType": "uint256",
          "name": "backgroundType",
          "type": "uint256"
        },
        {
          "internalType": "string",
          "name": "backgroundColor",
          "type": "string"
        }
      ],
      "name": "GetBackground",
      "outputs": [
        {
          "internalType": "string",
          "name": "",
          "type": "string"
        }
      ],
      "stateMutability": "pure",
      "type": "function"
    },
    {
      "inputs": [
        {
          "internalType": "uint256",
          "name": "colorInt",
          "type": "uint256"
        }
      ],
      "name": "GetBackgroundColor",
      "outputs": [
        {
          "internalType": "string",
          "name": "",
          "type": "string"
        }
      ],
      "stateMutability": "pure",
      "type": "function"
    }
  ],
  "transactionHash": "0x36e76592ccf30f8d2fa285e9fbcca976a8f06ebe16f584542e08e917f8fd756d",
  "args": [],
  "solcInputHash": "da6348f8bd2610997144571f4735f8a2",
  "bytecode": "0x6080806040523461001a57614fde9081610020823930815050f35b600080fdfe60806040526004361015610013575b600080fd5b60003560e01c8063749e421b14610063578063997ff4c81461005a578063c9e31047146100515763f500e3b01461004957600080fd5b61000e6102d3565b5061000e6102b8565b5061000e610243565b602036600319011261000e5760043580610093575061008f61008361047e565b6040519182918261018a565b0390f35b600181036100ac575061008f6100a761045b565b610083565b600281036100c0575061008f6100a7610438565b600381036100d4575061008f6100a7610415565b600481036100e8575061008f6100a76103f2565b600581036100fc575061008f6100a76103cf565b60068103610110575061008f6100a76103ac565b60078103610124575061008f6100a7610389565b60088103610138575061008f6100a7610366565b60090361014a5761008f6100a7610343565b61008f6100a7610320565b918091926000905b82821061017557501161016e575050565b6000910152565b9150806020918301518186015201829161015d565b604091602082526101aa8151809281602086015260208686019101610155565b601f01601f1916010190565b50634e487b7160e01b600052604160045260246000fd5b6040810190811067ffffffffffffffff8211176101e957604052565b6101f16101b6565b604052565b90601f8019910116810190811067ffffffffffffffff8211176101e957604052565b60209067ffffffffffffffff8111610236575b601f01601f19160190565b61023e6101b6565b61022b565b50604036600319011261000e5760243567ffffffffffffffff811161000e573660238201121561000e5780600401359061027c82610218565b61028960405191826101f6565b828152366024848401011161000e57600060208461008f956024610083960183860137830101526004356114d8565b50602036600319011261000e5761008f610083600435614b71565b50602036600319011261000e5761008f610083600435614a10565b604051906020820182811067ffffffffffffffff821117610313575b60405260008252565b61031b6101b6565b61030a565b6040519061032d826101cd565b60078252660466470647064760cb1b6020830152565b60405190610350826101cd565b600782526611a29c2199232360c91b6020830152565b60405190610373826101cd565b60078252662341354243463760c81b6020830152565b60405190610396826101cd565b600782526611a21b229a232360c91b6020830152565b604051906103b9826101cd565b600782526611a09aa31ba19b60c91b6020830152565b604051906103dc826101cd565b60078252662346444646424360c81b6020830152565b604051906103ff826101cd565b600782526608d190d111908d60ca1b6020830152565b60405190610422826101cd565b60078252662346464436463160c81b6020830152565b60405190610445826101cd565b60078252660234644423042360cc1b6020830152565b60405190610468826101cd565b60078252662344434443444360c81b6020830152565b6040519061048b826101cd565b60078252662346354635463560c81b6020830152565b906104b460209282815194859201610155565b0190565b600080516020614de983398151915281527518981c1811103334b6361e91119c9c2198a32311179f60511b602082015260360190565b7f20202020203c7061746820643d224d3439372e393836203432332e333531433481527f37382e383132203433342e3633203438302e373731203434392e31393820343860208201527f382e3736203435352e303733433437382e373135203439312e3733203531352e60408201527f373233203438382e383039203533302e3837203438322e373637433534362e3960608201527f3232203530342e393232203536382e333939203439312e393938203537372e3160808201527f3331203438322e373637433631352e393233203439332e363433203633342e3260a08201527f3339203436382e383336203633352e373235203435352e303733433634322e3860c08201527f3539203433342e353239203631382e3139203432352e333635203630372e373860e08201527f36203432332e333531433539312e373334203338382e333035203536342e33316101008201527f32203430382e373438203535322e363037203432332e333531433532392e34326101208201527f31203338382e333035203530362e353332203430382e373438203439372e39386101408201527f36203432332e3335315a222066696c6c3d227768697465222f3e00000000000061016082015261017a0190565b7f20202020203c7061746820643d224d373232203933352e35433732342e34203981527f31332e31203735322e333333203932302e3520373636203932374c373833203960208201527f36322e35433736312e363637203936322e383333203731392e36203935372e3960408201527f20373232203933352e355a222066696c6c3d22626c61636b222f3e00000000006060820152607b0190565b7f20202020203c7061746820643d224d3738332031303134433737312e3820313081527f31302e38203738332e363637203939322e36363720373931203937382e35483860208201527f30332e35433830312e333333203939352e333333203739342e3220313031372e60408201527f322037383320313031345a222066696c6c3d22626c61636b222f3e00000000006060820152607b0190565b7f20202020203c7061746820643d224d3835362031303134433834362e3420313081527f31322e34203834312e333333203938392e36363720383430203937382e354c3860208201527f34382e35203937332e3543383535203938372e363637203836352e362031303160408201527f352e362038353620313031345a222066696c6c3d22626c61636b222f3e0000006060820152607d0190565b7f20202020203c7061746820643d224d3239372e383634203935332e373331433281527f39342e353431203932322e3936203235352e383634203933332e31323620323360208201527f362e393432203934322e3035354c3231332e343034203939302e38323143323460408201527f322e393432203939312e323739203330312e313837203938342e35303320323960608201527f372e383634203935332e3733315a222066696c6c3d22626c61636b222f3e00006080820152609e0190565b7f20202020203c7061746820643d224d3231332e34303420313036312e3537433281527f32382e39313120313035372e3137203231322e34383120313033322e3236203260208201527f30322e33323720313031322e38483138352e303139433138382e30313920313060408201527f33352e3933203139372e38393620313036352e3936203231332e3430342031306060820152751b18971a9bad11103334b6361e91313630b1b591179f60511b608082015260960190565b7f20202020203c7061746820643d224d3131322e33323920313036312e3537433181527f32352e36323120313035392e3337203133322e36333620313032382e3134203160208201527f33342e34383220313031322e384c3132322e37313320313030352e393343313160408201527f332e37313320313032352e33392039392e3033363520313036332e373720313160608201527f322e33323920313036312e35375a222066696c6c3d22626c61636b222f3e00006080820152609e0190565b7f20202020203c7061746820643d224d3837312e303636203937362e393634433881527f37322e363636203936322e313735203839312e323936203936372e303620393060208201527f302e3431203937312e3335324c3931312e373438203939342e3739433839372e60408201527f3532203939352e3031203836392e343635203939312e373533203837312e303660608201527f36203937362e3936345a222066696c6c3d22626c61636b222f3e0000000000006080820152609a0190565b7f20202020203c7061746820643d224d3931312e37343820313032382e3739433981527f30342e32373820313032362e3638203931322e31393320313031342e3731203960208201527f31372e30383320313030352e3335483932352e3432433932332e39373520313060408201527f31362e3437203931392e32313820313033302e39203931312e373438203130326060820152741c171b9cad11103334b6361e91313630b1b591179f60591b608082015260950190565b7f20202020203c7061746820643d224d3936302e34333320313032382e3739433981527f35342e30333120313032372e3734203935302e36353220313031322e3733203960208201527f34392e37363320313030352e33354c3935352e34333120313030322e3035433960408201527f35392e37363620313031312e3431203936362e38333620313032392e3835203960608201527f36302e34333320313032382e37395a222066696c6c3d22626c61636b222f3e006080820152609f0190565b7f20202020203c7061746820643d224d3437362e393331203839332e343436433481527f37352e323631203837372e393431203435352e383232203838332e303633203460208201527f34362e333131203838372e3536324c3433342e3438203931322e31333543343460408201527f392e333237203931322e333636203437382e363032203930382e39353120343760608201527f362e393331203839332e3434365a222066696c6c3d22626c61636b222f3e00006080820152609e0190565b7f20202020203c7061746820643d224d3433342e3438203934372e37383243343481527f322e323735203934352e353637203433342e303136203933332e30313620343260208201527f382e393133203932332e3231483432302e323134433432312e3732322039333460408201527f2e383631203432362e363836203934392e393937203433342e3438203934372e6060820152731b9c192d11103334b6361e91313630b1b591179f60611b608082015260940190565b7f20202020203c7061746820643d224d3338332e363738203934372e373832433381527f39302e333539203934362e363735203339332e383835203933302e393339203360208201527f39342e383133203932332e32314c3338382e383938203931392e37343943333860408201527f342e333734203932392e353535203337362e393937203934382e38392033383360608201527f2e363738203934372e3738325a222066696c6c3d22626c61636b222f3e0000006080820152609d0190565b7f20202020203c7061746820643d224d3839362e333637203133372e393839433881527f38312e323134203132382e303733203839302e303533203131352e323635203860208201527f39362e333637203131302e313031433838382e3432382037372e38373439203960408201527f31302e3338352038302e34343234203932322e3335362038352e37353434433960608201527f33352e3034332036362e32373732203935322e3031372037372e36333839203960808201527f35382e3931382038352e37353434433938392e3537372037362e31393238203960a08201527f39392e3832352039382e303031342031303031203131302e313031433130303660c08201527f2e3634203132382e313631203939312e333638203133362e323138203938332e60e08201527f313435203133372e393839433937302e343539203136382e373938203935332e6101008201527f3735203135302e383236203934342e35203133372e393839433932362e3137356101208201527f203136382e373938203930332e313231203135302e383236203839362e333637610140820152781018999b971c9c1cad11103334b6361e913bb434ba3291179f60391b6101608201526101790190565b7f20202020203c7061746820643d224d36332e39343439203237342e383435433581527f332e31373831203238312e3136362035392e34353837203238392e333331203660208201527f332e39343439203239322e3632334335382e33303433203331332e313637203760408201527f332e39303535203331312e35332038322e34313131203330382e31343443393160608201527f2e34323531203332302e353631203130332e343836203331332e33313820313060808201527f382e333839203330382e313434433133302e313733203331342e32342031333760a08201527f2e323838203330302e333337203133382e313233203239322e3632334331343260c08201527f2e313239203238312e3131203133312e343436203237352e393734203132352e60e08201527f363033203237342e383435433131362e353839203235352e323034203130312e6101008201527f3139203236362e3636312039342e36313736203237342e3834354338312e35396101208201527f3734203235352e3230342036382e373434203236362e3636312036332e3934346101408201527f39203237342e3834355a222066696c6c3d227768697465222f3e00000000000061016082015261017a0190565b7f20202020203c7061746820643d224d3935302e393435203436302e383435433981527f34302e313738203436372e313636203934362e343539203437352e333331203960208201527f35302e393435203437382e363233433934352e333034203439392e313637203960408201527f36302e393035203439372e3533203936392e343131203439342e31343443393760608201527f382e343235203530362e353631203939302e343836203439392e33313820393960808201527f352e333839203439342e31343443313031372e3137203530302e32342031303260a08201527f342e3239203438362e33333720313032352e3132203437382e3632334331303260c08201527f392e3133203436372e313120313031382e3435203436312e393734203130313260e08201527f2e36203436302e38343543313030332e3539203434312e323034203938382e316101008201527f39203435322e363631203938312e363138203436302e383435433936382e35396101208201527f37203434312e323034203935352e373434203435322e363631203935302e39346101408201527f35203436302e3834355a222066696c6c3d227768697465222f3e00000000000061016082015261017a0190565b6810101010101e17b39f60b91b815260090190565b6a10101010101e3232b3399f60a91b8152600b0190565b600a8103611b8f575050604080517f20202020203c6720636c69702d706174683d2275726c2823636c6970305f31306020820152681a2f98991c1894911f60b91b918101919091528060498101600080516020614de983398151915281527518981c1811103334b6361e9111a321a223211a11179f60511b60208201526036017f20202020203c7265637420783d222d32342220793d223930222077696474683d81527f223131323822206865696768743d22323035222066696c6c3d2223464344464260208201527f3422207374726f6b653d222344324231374622207374726f6b652d77696474686040820152651e911a11179f60d11b60608201526066017f20202020203c7265637420783d222d3239372220793d223732392220776964748152600080516020614f898339815191526020820152600080516020614dc98339815191526040820152673a341e911a11179f60c11b60608201526068017f20202020203c7265637420783d223833362220793d22373330222077696474688152600080516020614f498339815191526020820152600080516020614e89833981519152604082015266341e911a11179f60c91b60608201526067017f20202020203c7265637420783d223238392220793d22333034222077696474688152600080516020614f498339815191526020820152600080516020614e89833981519152604082015266341e911a11179f60c91b60608201526067017f20202020203c7265637420783d222d3834382220793d223330342220776964748152600080516020614f898339815191526020820152600080516020614dc98339815191526040820152673a341e911a11179f60c11b60608201526068017f20202020203c7265637420783d222d32342220793d22393433222077696474688152600080516020614f498339815191526020820152600080516020614e89833981519152604082015266341e911a11179f60c91b60608201526067017f20202020203c7265637420783d222d32312220793d22353137222077696474688152600080516020614f498339815191526020820152600080516020614e89833981519152604082015266341e911a11179f60c91b60608201526067017f20202020203c636972636c652063783d223235302e35222063793d223333302e8152600080516020614f698339815191526020820152603b017f20202020203c636972636c652063783d223332332e35222063793d223333302e8152600080516020614f698339815191526020820152603b017f20202020203c636972636c652063783d223836332e35222063793d223735352e8152600080516020614f698339815191526020820152603b017f20202020203c636972636c652063783d223739382e35222063793d223735352e8152600080516020614f698339815191526020820152603b017f20202020203c636972636c652063783d22313035392e35222063793d2231313581527f2e352220723d22392e35222066696c6c3d2223433542303933222f3e000000006020820152603c017f20202020203c636972636c652063783d223235302e35222063793d223438352e8152600080516020614f698339815191526020820152603b017f20202020203c636972636c652063783d223332332e35222063793d223438352e8152600080516020614f698339815191526020820152603b017f20202020203c636972636c652063783d223836332e35222063793d223931302e8152600080516020614f698339815191526020820152603b017f20202020203c636972636c652063783d223739382e35222063793d223931302e8152600080516020614f698339815191526020820152603b017f20202020203c636972636c652063783d22313035392e35222063793d2232373081527f2e352220723d22392e35222066696c6c3d2223433542303933222f3e000000006020820152603c017f20202020203c7265637420783d222d32342220793d222d3132342220776964748152600080516020614f898339815191526020820152600080516020614dc98339815191526040820152673a341e911a11179f60c11b6060820152606801611adf906114ac565b611ae8906114c1565b7f20202020203c636c6970506174682069643d22636c6970305f3130345f31323881526218911f60e91b60208201526023015b600080516020614de983398151915281527318981c1811103334b6361e913bb434ba3291179f60611b60208201526034016f10101010101e17b1b634b82830ba341f60811b81526010016b10101010101e17b232b3399f60a11b8152600c0103601f1981018252611b8c90826101f6565b90565b600f81036121d6575050604080517f20202020203c6720636c69702d706174683d2275726c2823636c6970305f31306020820152681a2f98991b1894911f60b91b918101919091528060498101600080516020614de983398151915281527518981c1811103334b6361e91119c189c189c1891179f60511b60208201526036017f20202020203c7265637420783d222d32342220793d223930222077696474683d81527f223131323822206865696768743d22323035222066696c6c3d2223383138313860208201527f3122207374726f6b653d222344434443444322207374726f6b652d77696474686040820152651e911a11179f60d11b60608201526066017f20202020203c7265637420783d222d3239372220793d223732392220776964748152600080516020614ea98339815191526020820152600080516020614e298339815191526040820152673a341e911a11179f60c11b60608201526068017f20202020203c7265637420783d223833362220793d22373330222077696474688152600080516020614ec98339815191526020820152600080516020614d49833981519152604082015266341e911a11179f60c91b60608201526067017f20202020203c7265637420783d223238392220793d22333034222077696474688152600080516020614ec98339815191526020820152600080516020614d49833981519152604082015266341e911a11179f60c91b60608201526067017f20202020203c7265637420783d222d3834382220793d223330342220776964748152600080516020614ea98339815191526020820152600080516020614e298339815191526040820152673a341e911a11179f60c11b60608201526068017f20202020203c7265637420783d222d32342220793d22393433222077696474688152600080516020614ec98339815191526020820152600080516020614d49833981519152604082015266341e911a11179f60c91b60608201526067017f20202020203c7265637420783d222d32312220793d22353137222077696474688152600080516020614ec98339815191526020820152600080516020614d49833981519152604082015266341e911a11179f60c91b60608201526067017f20202020203c636972636c652063783d223235302e35222063793d223333302e8152600080516020614da98339815191526020820152603b017f20202020203c636972636c652063783d223332332e35222063793d223333302e8152600080516020614da98339815191526020820152603b017f20202020203c636972636c652063783d223836332e35222063793d223735352e8152600080516020614da98339815191526020820152603b017f20202020203c636972636c652063783d223739382e35222063793d223735352e8152600080516020614da98339815191526020820152603b017f20202020203c636972636c652063783d22313035392e35222063793d2231313581527f2e352220723d22392e35222066696c6c3d2223443645344646222f3e000000006020820152603c017f20202020203c636972636c652063783d223235302e35222063793d223438352e8152600080516020614da98339815191526020820152603b017f20202020203c636972636c652063783d223332332e35222063793d223438352e8152600080516020614da98339815191526020820152603b017f20202020203c636972636c652063783d223836332e35222063793d223931302e8152600080516020614da98339815191526020820152603b017f20202020203c636972636c652063783d223739382e35222063793d223931302e8152600080516020614da98339815191526020820152603b017f20202020203c636972636c652063783d22313035392e35222063793d2232373081527f2e352220723d22392e35222066696c6c3d2223443645344646222f3e000000006020820152603c017f20202020203c7265637420783d222d31332220793d222d3132332220776964748152600080516020614ea98339815191526020820152600080516020614e298339815191526040820152673a341e911a11179f60c11b6060820152606801612196906114ac565b61219f906114c1565b7f20202020203c636c6970506174682069643d22636c6970305f3130345f31323681526218911f60e91b6020820152602301611b1b565b60148103612b54575050604080517f20202020203c6720636c69702d706174683d2275726c2823636c6970305f33336020820152652f9b9c14911f60d11b918101919091528060468101600080516020614de983398151915281527518981c1811103334b6361e9111a221a221a22191179f60511b60208201526036017f20202020203c7265637420783d223130362220793d223939222077696474683d8152600080516020614d6983398151915260208201526a1111a31aa31aa31a91179f60a91b6040820152604b017f20202020203c7265637420783d22313030382220793d223939222077696474688152600080516020614e4983398151915260208201526b1e9111a31aa31aa31a91179f60a11b6040820152604c017f20202020203c7265637420783d223430382220793d223939222077696474683d81527f2232363422206865696768743d22323633222072783d223132222066696c6c3d60208201526a1111a31aa31aa31a91179f60a91b6040820152604b017f20202020203c7265637420783d222d3139332220793d223939222077696474688152600080516020614f0983398151915260208201526b1e9111a31aa31aa31a91179f60a11b6040820152604c017f20202020203c7265637420783d223731312220793d223939222077696474683d8152600080516020614d6983398151915260208201526a1111a31aa31aa31a91179f60a91b6040820152604b017f20202020203c7265637420783d223131302220793d223939222077696474683d8152600080516020614d6983398151915260208201526a1111a31aa31aa31a91179f60a91b6040820152604b017f20202020203c7265637420783d223130362220793d22343038222077696474688152600080516020614e4983398151915260208201526b1e9111a31aa31aa31a91179f60a11b6040820152604c017f20202020203c7265637420783d22313030382220793d223430382220776964748152600080516020614d8983398151915260208201526c361e9111a31aa31aa31a91179f60991b6040820152604d017f20202020203c7265637420783d223430382220793d22343038222077696474688152600080516020614f0983398151915260208201526b1e9111a31aa31aa31a91179f60a11b6040820152604c017f20202020203c7265637420783d222d3139332220793d223430382220776964748152600080516020614f2983398151915260208201526c361e9111a31aa31aa31a91179f60991b6040820152604d017f20202020203c7265637420783d223731312220793d22343038222077696474688152600080516020614e4983398151915260208201526b1e9111a31aa31aa31a91179f60a11b6040820152604c017f20202020203c7265637420783d223131302220793d22343038222077696474688152600080516020614e4983398151915260208201526b1e9111a31aa31aa31a91179f60a11b6040820152604c017f20202020203c7265637420783d223130362220793d22373137222077696474688152600080516020614e4983398151915260208201526b1e9111a31aa31aa31a91179f60a11b6040820152604c017f20202020203c7265637420783d223130362220793d222d3231312220776964748152600080516020614d8983398151915260208201526c361e9111a31aa31aa31a91179f60991b6040820152604d017f20202020203c7265637420783d222d3139312220793d222d32313122207769648152600080516020614e0983398151915260208201526d36361e9111a31aa31aa31a91179f60911b6040820152604e017f20202020203c7265637420783d22313030382220793d222d32313122207769648152600080516020614e0983398151915260208201526d36361e9111a31aa31aa31a91179f60911b6040820152604e017f20202020203c7265637420783d22313030382220793d223731372220776964748152600080516020614d8983398151915260208201526c361e9111a31aa31aa31a91179f60991b6040820152604d017f20202020203c7265637420783d223430382220793d22373137222077696474688152600080516020614f0983398151915260208201526b1e9111a31aa31aa31a91179f60a11b6040820152604c017f20202020203c7265637420783d223430382220793d22313032302220776964748152600080516020614f2983398151915260208201526c361e9111a31aa31aa31a91179f60991b6040820152604d017f20202020203c7265637420783d223430382220793d222d3231312220776964748152600080516020614f2983398151915260208201526c361e9111a31aa31aa31a91179f60991b6040820152604d017f20202020203c7265637420783d222d3139332220793d223731372220776964748152600080516020614f2983398151915260208201526c361e9111a31aa31aa31a91179f60991b6040820152604d017f20202020203c7265637420783d223731312220793d22373137222077696474688152600080516020614e4983398151915260208201526b1e9111a31aa31aa31a91179f60a11b6040820152604c017f20202020203c7265637420783d223731312220793d22313032302220776964748152600080516020614d8983398151915260208201526c361e9111a31aa31aa31a91179f60991b6040820152604d017f20202020203c7265637420783d22313031332220793d223130323022207769648152600080516020614e0983398151915260208201526d36361e9111a31aa31aa31a91179f60911b6040820152604e017f20202020203c7265637420783d223731312220793d222d3231312220776964748152600080516020614d8983398151915260208201526c361e9111a31aa31aa31a91179f60991b6040820152604d017f20202020203c7265637420783d223131302220793d22373137222077696474688152600080516020614e4983398151915260208201526b1e9111a31aa31aa31a91179f60a11b6040820152604c017f20202020203c7265637420783d223131302220793d22313032302220776964748152600080516020614d8983398151915260208201526c361e9111a31aa31aa31a91179f60991b6040820152604d017f20202020203c7265637420783d222d3139322220793d223130323022207769648152600080516020614e0983398151915260208201526d36361e9111a31aa31aa31a91179f60911b6040820152604e01612b20906114ac565b612b29906114c1565b7f20202020203c636c6970506174682069643d22636c6970305f33335f3738223e8152602001611b1b565b60198103613a9e575050604080517f20202020203c6720636c69702d706174683d2275726c2823636c6970305f34336020820152661baf999814911f60c91b9181019190915280612ba7604782016104b8565b7f20202020203c7061746820643d224d3138362e353638203338392e3832334c2d81527f38332e34373439203831362e3439432d39352e33343132203833352e3233392060208201527f2d38392e37353533203836302e323038202d36392e32373338203836382e373460408201527f32433133372e383631203935352e3035203537382e363232203835362e33313460608201527f203738342e303238203738392e353833433830372e333438203738322e30303760808201527f203831372e333434203735352e3132203830352e353331203733332e3633354c60a08201527f3730322e353134203534362e323732433638372e343332203531382e3834312060c08201527f3634382e313037203531382e353834203633322e363637203534352e3831354c60e08201527f3533352e353435203731372e313033433532302e3733203734332e32333120346101008201527f38332e343737203734342e333138203436372e313633203731392e3039384c326101208201527f35332e393533203338392e343839433233382e303939203336342e39373920326101408201527f30322e313739203336352e313537203138362e353638203338392e3832335a226101608201526e103334b6361e913bb434ba3291179f60891b61018082015261018f017f20202020203c7061746820643d224d313031382e3234203333332e3735314c3181527f3332332e3831203838372e33303643313333332e3631203930352e303637203160208201527f3332382e3734203932372e35363520313331302e3735203933362e393435433160408201527f3038332e383920313035352e3235203537382e343734203932332e333439203360608201527f35332e393732203833382e313139433333322e353731203832392e393934203360808201527f32332e333032203830352e333137203333332e32203738342e3637364c34353560a08201527f2e343334203532392e373736433436392e383534203439392e3730372035313260c08201527f2e353735203439392e343438203532372e333537203532392e33344c3633382e60e08201527f383637203735342e3833433635332e313038203738332e363238203639332e376101008201527f3734203738342e373334203730392e353631203735362e3735334c3934382e336101208201527f3836203333332e343237433936332e373732203330362e31353520313030332e6101408201527f3131203330362e33333720313031382e3234203333332e3735315a222066696c6101608201526a361e913bb434ba3291179f60a91b61018082015261018b01612f78906104ee565b7f20202020203c7061746820643d224d3430372e313934203830302e363133433281527f36332e313239203639352e3237342035342e32303038203731382e303731202d60208201527f3231203735312e39373256313039304831303831563638382e3130314339373960408201527f2e373534203638382e313031203933342e31203736332e313039203932332e3960608201527f3239203830302e363133433836322e343031203731342e313431203736372e3360808201527f3538203638302e3234203631302e323836203638382e313031433438342e363260a08201527f39203639342e3339203432322e353335203736352e373239203430372e31393460c08201527f203830302e3631335a222066696c6c3d22776869746522207374726f6b653d2260e08201527f2339384331464622207374726f6b652d77696474683d2238222f3e000000000061010082015261011b016130d9906106be565b6130e290610759565b6130eb906107f4565b6130f49061088f565b6130fd90610950565b61310690610a0a565b7f20202020203c7061746820643d224d373733203931392e35433735352e38203981527f33302e37203736352e383333203934352e31363720373733203935314337363360208201527f2e393839203938372e34203738382e393132203938342e35203830322e35203960408201527f37382e35433831362e3920313030302e35203833362e313637203938372e363660608201527f3720383434203937382e35433837382e38203938392e33203839302e3136372060808201527f3936342e363637203839312e3520393531433839372e39203933302e3620383860a08201527f302e383333203932312e35203837312e35203931392e35433835372e3120383860c08201527f342e37203833322e352039303520383232203931392e35433830312e3220383860e08201527f342e37203738302e3636372039303520373733203931392e355a222066696c6c6101008201527f3d22776869746522207374726f6b653d22626c61636b22207374726f6b652d776101208201526934b23a341e911c11179f60b11b61014082015261014a017f20202020203c7061746820643d224d3233372e303634203935342e313135433281527f35362e3837203936372e303035203234352e333137203938332e36353520323360208201527f372e303634203939302e333639433234372e343420313033322e32362032313860408201527f2e37343220313032382e3932203230332e30393620313032322e30324331383660608201527f2e35313420313034372e3334203136342e33323920313033322e35372031353560808201527f2e33303920313032322e3032433131352e32333820313033342e34352031303260a08201527f2e31343920313030362e31203130302e363134203939302e3336394339332e3260c08201527f343433203936362e3839203131322e383936203935362e343137203132332e3660e08201527f3433203935342e313135433134302e323235203931342e303633203136382e356101008201527f3531203933372e343236203138302e363432203935342e313135433230342e356101208201527f3933203931342e303633203232382e323336203933372e343236203233372e306101408201527f3634203935342e3131355a222066696c6c3d22776869746522207374726f6b65610160820152600080516020614e6983398151915261018082015261019b017f20202020203c7061746820643d224d3337302e3036342037332e31313436433381527f38392e3836392038362e303035203339312e323532203130322e36353520333860208201527f33203130392e333639433339332e333735203135312e323632203335312e373460408201527f31203134372e393235203333362e303935203134312e303139433331392e353160608201527f34203136362e333339203239372e333239203135312e353639203238382e333060808201527f39203134312e303139433234382e323337203135332e343439203233352e313460a08201527f39203132352e303938203233332e363133203130392e333639433232362e323460c08201527f342038352e38383939203234352e3839362037352e34313635203235362e363460e08201527f332037332e31313436433237332e3232342033332e30363235203330302e34306101008201527f392034352e33313134203331322e352036312e39393938433333362e343520326101208201527f312e39343736203336312e3233362035362e34323632203337302e303634203761014082015276199718989a1b2d11103334b6361e913bb434ba3291179f60491b6101608201526101770161364b90610acb565b61365490610b8c565b61365d90610c45565b61366690610d06565b61366f90610dc7565b61367890610e7f565b61368190610f40565b61368a9061110c565b613693906112dc565b7f20202020203c7061746820643d224d3434352e383632203839332e343243343581527f352e313637203839392e343933203434392e373339203930372e33333820343460208201527f352e383632203931302e353031433435302e373337203933302e32333920343360408201527f372e323535203932382e363637203432392e393034203932352e34313343343260608201527f322e313134203933372e333433203431312e363932203933302e33383420343060808201527f372e343534203932352e343133433338382e363238203933312e32363920333860a08201527f322e343739203931372e393132203338312e373538203931302e35303143333760c08201527f382e323936203839392e343339203338372e353238203839342e35303420333960e08201527f322e353737203839332e3432433430302e333637203837342e353439203431336101008201527f2e363735203838352e353537203431392e333535203839332e3432433433302e6101208201527f363037203837342e353439203434312e373135203838352e353537203434352e6101408201527f383632203839332e34325a222066696c6c3d22776869746522207374726f6b65610160820152600080516020614e6983398151915261018082015261019b017f20202020203c7061746820643d224d3935372e383632203937362e343243393681527f372e313637203938322e343933203936312e373339203939302e33333820393560208201527f372e383632203939332e353031433936322e37333720313031332e323420393460408201527f392e32353520313031312e3637203934312e39303420313030382e343143393360608201527f342e31313420313032302e3334203932332e36393220313031332e333820393160808201527f392e34353420313030382e3431433930302e36323820313031342e323720383960a08201527f342e34373920313030302e3931203839332e373538203939332e35303143383960c08201527f302e323936203938322e343339203839392e353238203937372e35303420393060e08201527f342e353737203937362e3432433931322e333637203935372e353439203932356101008201527f2e363735203936382e353537203933312e333535203937362e3432433934322e6101208201527f363037203935372e353439203935332e373135203936382e353537203935372e6101408201527f383632203937362e34325a222066696c6c3d22776869746522207374726f6b65610160820152600080516020614e6983398151915261018082015261019b01613a60906114ac565b613a69906114c1565b7f20202020203c636c6970506174682069643d22636c6970305f3433375f3330228152601f60f91b6020820152602101611b1b565b601e0361498b5750604080517f20202020203c6720636c69702d706174683d2275726c2823636c6970305f33336020820152652f9a9994911f60d11b9181019190915280613aee604682016104b8565b7f20202020203c7061746820643d224d3138362e353638203338392e3832334c2d81527f38332e34373439203831362e3439432d39352e33343132203833352e3233392060208201527f2d38392e37353533203836302e323038202d36392e32373338203836382e373460408201527f32433133372e383631203935352e3035203537382e363232203835362e33313460608201527f203738342e303238203738392e353833433830372e333438203738322e30303760808201527f203831372e333434203735352e3132203830352e353331203733332e3633354c60a08201527f3730322e353134203534362e323732433638372e343332203531382e3834312060c08201527f3634382e313037203531382e353834203633322e363637203534352e3831354c60e08201527f3533352e353435203731372e313033433532302e3733203734332e32333120346101008201527f38332e343737203734342e333138203436372e313633203731392e3039384c326101208201527f35332e393533203338392e343839433233382e303939203336342e39373920326101408201527f30322e313739203336352e313537203138362e353638203338392e3832335a2261016082015270103334b6361e91119b9820a299a311179f60791b610180820152610191017f20202020203c7061746820643d224d313031382e3234203333332e3735314c3181527f3332332e3831203838372e33303643313333332e3631203930352e303637203160208201527f3332382e3734203932372e35363520313331302e3735203933362e393435433160408201527f3038332e383920313035352e3235203537382e343734203932332e333439203360608201527f35332e393732203833382e313139433333322e353731203832392e393934203360808201527f32332e333032203830352e333137203333332e32203738342e3637364c34353560a08201527f2e343334203532392e373736433436392e383534203439392e3730372035313260c08201527f2e353735203439392e343438203532372e333537203532392e33344c3633382e60e08201527f383637203735342e3833433635332e313038203738332e363238203639332e376101008201527f3734203738342e373334203730392e353631203735362e3735334c3934382e336101208201527f3836203333332e343237433936332e373732203330362e31353520313030332e6101408201527f3131203330362e33333720313031382e3234203333332e3735315a222066696c6101608201526c361e91119b9820a299a311179f60991b61018082015261018d01613ec3906104ee565b7f20202020203c7061746820643d224d3430372e313934203830302e363133433281527f36332e313239203639352e3237342035342e32303038203731382e303731202d60208201527f3231203735312e39373256313039304831303831563638382e3130314339373960408201527f2e373534203638382e313031203933342e31203736332e313039203932332e3960608201527f3239203830302e363133433836322e343031203731342e313431203736372e3360808201527f3538203638302e3234203631302e323836203638382e313031433438342e363260a08201527f39203639342e3339203432322e353335203736352e373239203430372e31393460c08201527f203830302e3631335a222066696c6c3d2223333837363037222f3e000000000060e082015260fb01613ffc906106be565b61400590610759565b61400e906107f4565b6140179061088f565b61402090610950565b61402990610a0a565b7f20202020203c7061746820643d224d373733203931392e35433735352e38203981527f33302e37203736352e383333203934352e31363720373733203935314337363360208201527f2e393839203938372e34203738382e393132203938342e35203830322e35203960408201527f37382e35433831362e3920313030302e35203833362e313637203938372e363660608201527f3720383434203937382e35433837382e38203938392e33203839302e3136372060808201527f3936342e363637203839312e3520393531433839372e39203933302e3620383860a08201527f302e383333203932312e35203837312e35203931392e35433835372e3120383860c08201527f342e37203833322e352039303520383232203931392e35433830312e3220383860e08201527f342e37203738302e3636372039303520373733203931392e355a222066696c6c610100820152691e913bb434ba3291179f60b11b61012082015261012a017f20202020203c7061746820643d224d3233372e303634203935342e313135433281527f35362e3837203936372e303035203234352e333137203938332e36353520323360208201527f372e303634203939302e333639433234372e343420313033322e32362032313860408201527f2e37343220313032382e3932203230332e30393620313032322e30324331383660608201527f2e35313420313034372e3334203136342e33323920313033322e35372031353560808201527f2e33303920313032322e3032433131352e32333820313033342e34352031303260a08201527f2e31343920313030362e31203130302e363134203939302e3336394339332e3260c08201527f343433203936362e3839203131322e383936203935362e343137203132332e3660e08201527f3433203935342e313135433134302e323235203931342e303633203136382e356101008201527f3531203933372e343236203138302e363432203935342e313135433230342e356101208201527f3933203931342e303633203232382e323336203933372e343236203233372e306101408201527f3634203935342e3131355a222066696c6c3d22776869746522207374726f6b65610160820152600080516020614ee983398151915261018082015261019b017f20202020203c7061746820643d224d3337302e3036342037332e31313439433381527f38392e3836392038362e30303532203339312e323532203130322e363535203360208201527f3833203130392e333639433339332e333735203135312e323633203335312e3760408201527f3431203134372e393235203333362e303935203134312e303139433331392e3560608201527f3134203136362e3334203239372e333239203135312e353639203238382e333060808201527f39203134312e303139433234382e323337203135332e343439203233352e313460a08201527f39203132352e303938203233332e363133203130392e333639433232362e323460c08201527f342038352e38393032203234352e3839362037352e34313637203235362e363460e08201527f332037332e31313439433237332e3232342033332e30363237203330302e34306101008201527f392034352e33313136203331322e35203632433333362e34352032312e3934376101208201527f39203336312e3233362035362e34323635203337302e3036342037332e313134610140820152711cad11103334b6361e913bb434ba3291179f60711b6101608201526101720161454290610acb565b61454b90610b8c565b61455490610c45565b61455d90610d06565b61456690610dc7565b61456f90610e7f565b61457890610f40565b6145819061110c565b61458a906112dc565b7f20202020203c7061746820643d224d3434352e383632203839332e343243343581527f352e313637203839392e343933203434392e373339203930372e33333820343460208201527f352e383632203931302e353031433435302e373337203933302e32333920343360408201527f372e323535203932382e363637203432392e393034203932352e34313343343260608201527f322e313134203933372e333433203431312e363932203933302e33383420343060808201527f372e343534203932352e343133433338382e363238203933312e32363920333860a08201527f322e343739203931372e393132203338312e373538203931302e35303143333760c08201527f382e323936203839392e343339203338372e353238203839342e35303420333960e08201527f322e353737203839332e3432433430302e333637203837342e353439203431336101008201527f2e363735203838352e353537203431392e333535203839332e3432433433302e6101208201527f363037203837342e353439203434312e373135203838352e353537203434352e6101408201527f383632203839332e34325a222066696c6c3d22776869746522207374726f6b65610160820152600080516020614ee983398151915261018082015261019b017f20202020203c7061746820643d224d3935372e383632203937362e343243393681527f372e313637203938322e343933203936312e373339203939302e33333820393560208201527f372e383632203939332e353031433936322e37333720313031332e323420393460408201527f392e32353520313031312e3637203934312e39303420313030382e343143393360608201527f342e31313420313032302e3334203932332e36393220313031332e333820393160808201527f392e34353420313030382e3431433930302e36323820313031342e323720383960a08201527f342e34373920313030302e3931203839332e373538203939332e35303143383960c08201527f302e323936203938322e343339203839392e353238203937372e35303420393060e08201527f342e353737203937362e3432433931322e333637203935372e353439203932356101008201527f2e363735203936382e353537203933312e333535203937362e3432433934322e6101208201527f363037203935372e353439203935332e373135203936382e353537203935372e6101408201527f383632203937362e34325a222066696c6c3d22776869746522207374726f6b65610160820152600080516020614ee983398151915261018082015261019b01614957906114ac565b614960906114c1565b7f20202020203c636c6970506174682069643d22636c6970305f33335f3533223e8152602001611b1b565b611b8c6149e691614a026149f36040519485936149e0602086016028907f3c726563742077696474683d223130383022206865696768743d22313038302281526710103334b6361e9160c11b60208201520190565b906104a1565b601160f91b815260010190565b6210179f60e91b815260030190565b03601f1981018352826101f6565b60198114908115614b66575b50614a2957611b8c6102ee565b6040517f20202020203c7061746820636c6173733d226261636b436c697022207472616e60208201527f73666f726d3d227472616e736c617465282d3139302c202d313029220000000060408201527f202020202020202020643d224d3736312e363432203139312e3432334c373834605c8201527f2e3830332032342e323331374c3835382e3732312032302e373536374c383035607c8201527f2e333238203230342e3134324c3736312e363432203139312e3432335a222066609c8201527f696c6c3d222346444132463422207374726f6b653d22626c61636b220000000060bc8201527f2020202020202020207374726f6b652d77696474683d223822202f3e0000000060d882015260d48152610100810181811067ffffffffffffffff821117614b59575b60405290565b614b616101b6565b614b53565b601e91501438614a1c565b60198114908115614d3d575b50614b8a57611b8c6102ee565b604080517f20202020203c67207472616e73666f726d3d227472616e736c617465282d322c6020820152661018991814911f60c91b918101919091527f2020202020202020203c7061746820643d224d322033392e303834354332323860478201527f2e313637203130372e393138203736312e38203231322e39383420313038372060678201527f38322e35383435222066696c6c2d6f7061636974793d223022207374726f6b6560878201527f3d22626c61636b22207374726f6b652d77696474683d223822202f3e0000000060a78201527f2020202020202020203c7061746820643d224d3734362e393933203139322e3560c38201527f324c3734372e3538352032332e373333354c3832302e3337352031302e34303360e38201527f364c3739312e393838203139392e3238324c3734362e393933203139322e3532610103820152702d11103334b6361e9111a3222099231a1160791b6101238201527f202020202020202020202020207374726f6b653d22626c61636b22207374726f6101348201526e35b296bbb4b23a341e911c1110179f60891b610154820152611b8c81614a0261016382016114ac565b601e91501438614b7d56fe383122207374726f6b653d222344434443444322207374726f6b652d776964742232363322206865696768743d22323633222072783d223132222066696c6c3d683d2232363322206865696768743d22323633222072783d223132222066696c352220723d22392e35222066696c6c3d2223443645344646222f3e000000000046423422207374726f6b653d222344324231374622207374726f6b652d77696420202020203c726563742077696474683d223130383022206865696768743d2274683d2232363322206865696768743d22323633222072783d2231322220666931383122207374726f6b653d222344434443444322207374726f6b652d7769643d2232363322206865696768743d22323633222072783d223132222066696c6c3d22626c61636b22207374726f6b652d77696474683d2238222f3e0000000000423422207374726f6b653d222344324231374622207374726f6b652d77696474683d223131323822206865696768743d22323035222066696c6c3d22233831383d223131323822206865696768743d22323035222066696c6c3d2223383138313d22776869746522207374726f6b652d77696474683d2238222f3e00000000003d2232363422206865696768743d22323633222072783d223132222066696c6c683d2232363422206865696768743d22323633222072783d223132222066696c3d223131323822206865696768743d22323035222066696c6c3d222346434446352220723d22392e35222066696c6c3d2223433542303933222f3e0000000000683d223131323822206865696768743d22323035222066696c6c3d2223464344a2646970667358221220c544f92919b38d021a9ea87c922ce2fc3fd547bba555dde2973f007725c0d17464736f6c634300080d0033",
  "devdoc": {
    "kind": "dev",
    "methods": {},
    "version": 1
  },
  "userdoc": {
    "kind": "user",
    "methods": {},
    "version": 1
  },
  "storageLayout": {
    "storage": [],
    "types": null
  }
}