{
  "address": "0x07B6009e05Ce1F3FbfBb33b677BB646Daa4504a5",
  "abi": [
    {
      "inputs": [],
      "name": "GetStyle",
      "outputs": [
        {
          "internalType": "string",
          "name": "",
          "type": "string"
        }
      ],
      "stateMutability": "pure",
      "type": "function"
    },
    {
      "inputs": [],
      "name": "HideBackClipStyle",
      "outputs": [
        {
          "internalType": "string",
          "name": "",
          "type": "string"
        }
      ],
      "stateMutability": "pure",
      "type": "function"
    },
    {
      "inputs": [],
      "name": "ShowBackClipStyle",
      "outputs": [
        {
          "internalType": "string",
          "name": "",
          "type": "string"
        }
      ],
      "stateMutability": "pure",
      "type": "function"
    }
  ],
  "transactionHash": "0x7a1993423cf8092dc6d94d0f9a78596424c79a4cc55b9e1ee087bf4e7a20313d",
  "args": [],
  "solcInputHash": "da6348f8bd2610997144571f4735f8a2",
  "bytecode": "0x6080806040523461001a576103149081610020823930815050f35b600080fdfe608080604052600436101561001357600080fd5b6000803560e01c918263160b1e2f1461013c575081632051ceb914610051575063b63e645114610044575b38600080fd5b61004c6101b1565b61003e565b80600319360112610139576101356040516a10101010101e3232b3399f60a91b60208201526f1010101010101010101e39ba3cb6329f60811b602b82015277202020202020202020202020202e6261636b436c6970207b60401b603b8201527f20202020202020202020202020202020206f7061636974793a20313b0000000060538201526d202020202020202020202020207d60901b606f820152701010101010101010101e17b9ba3cb6329f60791b607d8201526b10101010101e17b232b3399f60a11b608e820152607a8152610129816102c2565b6040519182918261015a565b0390f35b80fd5b816003193601126101565761013591815261012981610290565b5080fd5b919091602080825283519081818401526000945b82861061019b57505080604093941161018e575b601f01601f1916010190565b6000838284010152610182565b858101820151848701604001529481019461016e565b50600036600319011261028b576101356040516a10101010101e3232b3399f60a91b60208201526f1010101010101010101e39ba3cb6329f60811b602b82015277202020202020202020202020202e6261636b436c6970207b60401b603b8201527f20202020202020202020202020202020206f7061636974793a20303b0000000060538201526d202020202020202020202020207d60901b606f820152701010101010101010101e17b9ba3cb6329f60791b607d8201526b10101010101e17b232b3399f60a11b608e820152607a8152610129816102c2565b600080fd5b6020810190811067ffffffffffffffff8211176102ac57604052565b634e487b7160e01b600052604160045260246000fd5b60a0810190811067ffffffffffffffff8211176102ac5760405256fea2646970667358221220ede9a2e9641347e35c55d3121b36540e713706e3efe18b2f607a45d7d64164ac64736f6c634300080d0033",
  "devdoc": {
    "kind": "dev",
    "methods": {},
    "version": 1
  },
  "userdoc": {
    "kind": "user",
    "methods": {},
    "version": 1
  },
  "storageLayout": {
    "storage": [],
    "types": null
  }
}