{
  "address": "0x3dd4b25C28640CA79c09A0d6e84a07425095Eddf",
  "abi": [
    {
      "inputs": [],
      "stateMutability": "nonpayable",
      "type": "constructor"
    },
    {
      "anonymous": false,
      "inputs": [
        {
          "indexed": true,
          "internalType": "address",
          "name": "owner",
          "type": "address"
        },
        {
          "indexed": true,
          "internalType": "address",
          "name": "approved",
          "type": "address"
        },
        {
          "indexed": true,
          "internalType": "uint256",
          "name": "tokenId",
          "type": "uint256"
        }
      ],
      "name": "Approval",
      "type": "event"
    },
    {
      "anonymous": false,
      "inputs": [
        {
          "indexed": true,
          "internalType": "address",
          "name": "owner",
          "type": "address"
        },
        {
          "indexed": true,
          "internalType": "address",
          "name": "operator",
          "type": "address"
        },
        {
          "indexed": false,
          "internalType": "bool",
          "name": "approved",
          "type": "bool"
        }
      ],
      "name": "ApprovalForAll",
      "type": "event"
    },
    {
      "anonymous": false,
      "inputs": [
        {
          "indexed": true,
          "internalType": "address",
          "name": "previousOwner",
          "type": "address"
        },
        {
          "indexed": true,
          "internalType": "address",
          "name": "newOwner",
          "type": "address"
        }
      ],
      "name": "OwnershipTransferred",
      "type": "event"
    },
    {
      "anonymous": false,
      "inputs": [
        {
          "indexed": true,
          "internalType": "address",
          "name": "from",
          "type": "address"
        },
        {
          "indexed": true,
          "internalType": "address",
          "name": "to",
          "type": "address"
        },
        {
          "indexed": true,
          "internalType": "uint256",
          "name": "tokenId",
          "type": "uint256"
        }
      ],
      "name": "Transfer",
      "type": "event"
    },
    {
      "inputs": [
        {
          "internalType": "address",
          "name": "to",
          "type": "address"
        },
        {
          "internalType": "uint256",
          "name": "tokenId",
          "type": "uint256"
        }
      ],
      "name": "approve",
      "outputs": [],
      "stateMutability": "nonpayable",
      "type": "function"
    },
    {
      "inputs": [
        {
          "internalType": "address",
          "name": "owner",
          "type": "address"
        }
      ],
      "name": "balanceOf",
      "outputs": [
        {
          "internalType": "uint256",
          "name": "",
          "type": "uint256"
        }
      ],
      "stateMutability": "view",
      "type": "function"
    },
    {
      "inputs": [],
      "name": "curve",
      "outputs": [
        {
          "internalType": "uint256",
          "name": "",
          "type": "uint256"
        }
      ],
      "stateMutability": "view",
      "type": "function"
    },
    {
      "inputs": [
        {
          "internalType": "uint256",
          "name": "tokenId",
          "type": "uint256"
        }
      ],
      "name": "getApproved",
      "outputs": [
        {
          "internalType": "address",
          "name": "",
          "type": "address"
        }
      ],
      "stateMutability": "view",
      "type": "function"
    },
    {
      "inputs": [
        {
          "internalType": "address",
          "name": "owner",
          "type": "address"
        },
        {
          "internalType": "address",
          "name": "operator",
          "type": "address"
        }
      ],
      "name": "isApprovedForAll",
      "outputs": [
        {
          "internalType": "bool",
          "name": "",
          "type": "bool"
        }
      ],
      "stateMutability": "view",
      "type": "function"
    },
    {
      "inputs": [],
      "name": "limit",
      "outputs": [
        {
          "internalType": "uint256",
          "name": "",
          "type": "uint256"
        }
      ],
      "stateMutability": "view",
      "type": "function"
    },
    {
      "inputs": [],
      "name": "mintItem",
      "outputs": [
        {
          "internalType": "uint256",
          "name": "",
          "type": "uint256"
        }
      ],
      "stateMutability": "payable",
      "type": "function"
    },
    {
      "inputs": [],
      "name": "name",
      "outputs": [
        {
          "internalType": "string",
          "name": "",
          "type": "string"
        }
      ],
      "stateMutability": "view",
      "type": "function"
    },
    {
      "inputs": [],
      "name": "owner",
      "outputs": [
        {
          "internalType": "address",
          "name": "",
          "type": "address"
        }
      ],
      "stateMutability": "view",
      "type": "function"
    },
    {
      "inputs": [
        {
          "internalType": "uint256",
          "name": "tokenId",
          "type": "uint256"
        }
      ],
      "name": "ownerOf",
      "outputs": [
        {
          "internalType": "address",
          "name": "",
          "type": "address"
        }
      ],
      "stateMutability": "view",
      "type": "function"
    },
    {
      "inputs": [],
      "name": "price",
      "outputs": [
        {
          "internalType": "uint256",
          "name": "",
          "type": "uint256"
        }
      ],
      "stateMutability": "view",
      "type": "function"
    },
    {
      "inputs": [],
      "name": "recipient",
      "outputs": [
        {
          "internalType": "address payable",
          "name": "",
          "type": "address"
        }
      ],
      "stateMutability": "view",
      "type": "function"
    },
    {
      "inputs": [
        {
          "internalType": "uint256",
          "name": "id",
          "type": "uint256"
        }
      ],
      "name": "renderTokenById",
      "outputs": [
        {
          "internalType": "string",
          "name": "",
          "type": "string"
        }
      ],
      "stateMutability": "view",
      "type": "function"
    },
    {
      "inputs": [],
      "name": "renounceOwnership",
      "outputs": [],
      "stateMutability": "nonpayable",
      "type": "function"
    },
    {
      "inputs": [
        {
          "internalType": "address",
          "name": "from",
          "type": "address"
        },
        {
          "internalType": "address",
          "name": "to",
          "type": "address"
        },
        {
          "internalType": "uint256",
          "name": "tokenId",
          "type": "uint256"
        }
      ],
      "name": "safeTransferFrom",
      "outputs": [],
      "stateMutability": "nonpayable",
      "type": "function"
    },
    {
      "inputs": [
        {
          "internalType": "address",
          "name": "from",
          "type": "address"
        },
        {
          "internalType": "address",
          "name": "to",
          "type": "address"
        },
        {
          "internalType": "uint256",
          "name": "tokenId",
          "type": "uint256"
        },
        {
          "internalType": "bytes",
          "name": "_data",
          "type": "bytes"
        }
      ],
      "name": "safeTransferFrom",
      "outputs": [],
      "stateMutability": "nonpayable",
      "type": "function"
    },
    {
      "inputs": [
        {
          "internalType": "address",
          "name": "operator",
          "type": "address"
        },
        {
          "internalType": "bool",
          "name": "approved",
          "type": "bool"
        }
      ],
      "name": "setApprovalForAll",
      "outputs": [],
      "stateMutability": "nonpayable",
      "type": "function"
    },
    {
      "inputs": [
        {
          "internalType": "bytes4",
          "name": "interfaceId",
          "type": "bytes4"
        }
      ],
      "name": "supportsInterface",
      "outputs": [
        {
          "internalType": "bool",
          "name": "",
          "type": "bool"
        }
      ],
      "stateMutability": "view",
      "type": "function"
    },
    {
      "inputs": [],
      "name": "symbol",
      "outputs": [
        {
          "internalType": "string",
          "name": "",
          "type": "string"
        }
      ],
      "stateMutability": "view",
      "type": "function"
    },
    {
      "inputs": [
        {
          "internalType": "uint256",
          "name": "index",
          "type": "uint256"
        }
      ],
      "name": "tokenByIndex",
      "outputs": [
        {
          "internalType": "uint256",
          "name": "",
          "type": "uint256"
        }
      ],
      "stateMutability": "view",
      "type": "function"
    },
    {
      "inputs": [
        {
          "internalType": "address",
          "name": "owner",
          "type": "address"
        },
        {
          "internalType": "uint256",
          "name": "index",
          "type": "uint256"
        }
      ],
      "name": "tokenOfOwnerByIndex",
      "outputs": [
        {
          "internalType": "uint256",
          "name": "",
          "type": "uint256"
        }
      ],
      "stateMutability": "view",
      "type": "function"
    },
    {
      "inputs": [
        {
          "internalType": "uint256",
          "name": "id",
          "type": "uint256"
        }
      ],
      "name": "tokenURI",
      "outputs": [
        {
          "internalType": "string",
          "name": "",
          "type": "string"
        }
      ],
      "stateMutability": "view",
      "type": "function"
    },
    {
      "inputs": [],
      "name": "totalSupply",
      "outputs": [
        {
          "internalType": "uint256",
          "name": "",
          "type": "uint256"
        }
      ],
      "stateMutability": "view",
      "type": "function"
    },
    {
      "inputs": [
        {
          "internalType": "address",
          "name": "from",
          "type": "address"
        },
        {
          "internalType": "address",
          "name": "to",
          "type": "address"
        },
        {
          "internalType": "uint256",
          "name": "tokenId",
          "type": "uint256"
        }
      ],
      "name": "transferFrom",
      "outputs": [],
      "stateMutability": "nonpayable",
      "type": "function"
    },
    {
      "inputs": [
        {
          "internalType": "address",
          "name": "newOwner",
          "type": "address"
        }
      ],
      "name": "transferOwnership",
      "outputs": [],
      "stateMutability": "nonpayable",
      "type": "function"
    }
  ],
  "transactionHash": "0xedea6bad070ce0a3be77f30d64fd2469725dd8add2e58ee3be93af5b4347fb1d",
  "args": [],
  "solcInputHash": "e367f7a616e6f77df90e062ab14d8d09",
  "bytecode": "0x6080604052346200018b5762000014620001a7565b60206754686973536f636b60c01b8183015262000030620001dc565b6254485360e81b8282015282519091906001600160401b0381116200017b575b6000916200006a826200006485546200023d565b6200027a565b80601f8311600114620000ed57508190620000a1958492620000e1575b50508160011b916000199060031b1c19161790556200032e565b620000ac3362000430565b620000c0620000bb4262000211565b600c55565b620000d166038d7ea4c68000600d55565b60405161327d90816200047f8239f35b01519050388062000087565b600080529194601f1986167f290decd9548b62a8d60345a988386fc84ba6bc95484008f6362f93160ef3e5639385905b82821062000162575050916001939187620000a198941062000148575b505050811b0190556200032e565b015160001960f88460031b161c191690553880806200013a565b806001869782949787015181550196019401906200011d565b6200018562000190565b62000050565b600080fd5b50634e487b7160e01b600052604160045260246000fd5b60408051919082016001600160401b03811183821017620001cc575b60405260088252565b620001d662000190565b620001c3565b60408051919082016001600160401b0381118382101762000201575b60405260038252565b6200020b62000190565b620001f8565b6312cc030019811162000227576312cc03000190565b634e487b7160e01b600052601160045260246000fd5b90600182811c921680156200026f575b60208310146200025957565b634e487b7160e01b600052602260045260246000fd5b91607f16916200024d565b601f811162000287575050565b60009081805260208220906020601f850160051c83019410620002c7575b601f0160051c01915b828110620002bb57505050565b818155600101620002ae565b9092508290620002a5565b90601f8211620002e0575050565b60019160009083825260208220906020601f850160051c8301941062000323575b601f0160051c01915b828110620003185750505050565b81815583016200030a565b909250829062000301565b80519091906001600160401b03811162000420575b6001906200035d816200035784546200023d565b620002d2565b602080601f83116001146200039b5750819293946000926200038f575b5050600019600383901b1c191690821b179055565b0151905038806200037a565b6001600052601f198316959091907fb10e2d527612073b26eecdfd717e6a320cf44b4afac2b0732d9fcbe2b7fa0cf6926000905b888210620004085750508385969710620003ee575b505050811b019055565b015160001960f88460031b161c19169055388080620003e4565b808785968294968601518155019501930190620003cf565b6200042a62000190565b62000343565b600a80546001600160a01b039283166001600160a01b031982168117909255604051919216907f8be0079c531659141344cd1fd0a4f28419497f9722a3daafe3b4186f6b6457e090600090a356fe60806040526004361015610013575b600080fd5b60003560e01c806301ffc9a71461020757806306fdde03146101fe578063081812fc146101f5578063095ea7b3146101ec57806318160ddd146101e357806323b872dd146101da5780632f745c59146101d157806342842e0e146101c85780634f6ccce7146101bf5780636352211e146101b657806366d003ac146101ad57806370a08231146101a4578063715018a61461019b5780637165485d146101925780638da5cb5b1461018957806395d89b4114610180578063a035b1fe14610177578063a22cb4651461016e578063a2d6c6da14610165578063a4d66daf1461015c578063b88d4fde14610153578063c87b56dd1461014a578063e985e9c514610141578063eb93406b146101385763f2fde38b1461013057600080fd5b61000e611822565b5061000e611630565b5061000e6115d2565b5061000e610c07565b5061000e610b7e565b5061000e610ab7565b5061000e610a83565b5061000e61099a565b5061000e61097b565b5061000e6108b9565b5061000e61088f565b5061000e610871565b5061000e61080c565b5061000e6107e0565b5061000e6107b0565b5061000e610791565b5061000e6106e5565b5061000e61069e565b5061000e6105ea565b5061000e6105c0565b5061000e61056c565b5061000e61047c565b5061000e61041f565b5061000e610319565b5061000e610222565b6001600160e01b031981160361000e57565b503461000e57602036600319011261000e57602060043561024281610210565b63ffffffff60e01b1663780e9d6360e01b8114908115610268575b506040519015158152f35b6380ac58cd60e01b81149150811561029a575b8115610289575b503861025d565b6301ffc9a760e01b14905038610282565b635b5e139f60e01b8114915061027b565b918091926000905b8282106102cb5750116102c4575050565b6000910152565b915080602091830151818601520182916102b3565b906020916102f9815180928185528580860191016102ab565b601f01601f1916010190565b9060206103169281815201906102e0565b90565b503461000e5760008060031936011261041c57604051908080549060019180831c92808216928315610412575b60209283861085146103fe5785885260208801949081156103e2575060011461038a575b6103868761037a81890382610b14565b60405191829182610305565b0390f35b6000805294509192917f290decd9548b62a8d60345a988386fc84ba6bc95484008f6362f93160ef3e5635b8386106103d1575050509101905061037a82610386388061036a565b8054858701529482019481016103b5565b60ff1916855250505001915061037a905082610386388061036a565b634e487b7160e01b82526022600452602482fd5b93607f1693610346565b80fd5b503461000e57602036600319011261000e57602061043e600435611aaf565b6040516001600160a01b039091168152f35b600435906001600160a01b038216820361000e57565b602435906001600160a01b038216820361000e57565b503461000e57604036600319011261000e57610496610450565b6024356104a2816119ca565b916001600160a01b03808416908216811461051d576104d4936104cf9133149081156104d6575b50611a42565b611fc2565b005b6001600160a01b0316600090815260056020526040902061051791506105109033905b9060018060a01b0316600052602052604060002090565b5460ff1690565b386104c9565b60405162461bcd60e51b815260206004820152602160248201527f4552433732313a20617070726f76616c20746f2063757272656e74206f776e656044820152603960f91b6064820152608490fd5b503461000e57600036600319011261000e576020600854604051908152f35b606090600319011261000e576001600160a01b0390600435828116810361000e5791602435908116810361000e579060443590565b503461000e576104d46105d23661058b565b916105e56105e08433611c81565b611b32565b611e25565b503461000e57604036600319011261000e57610604610450565b6024359061061181611952565b821015610645576001600160a01b031660009081526006602090815260408083209383529281529082902054915191825290f35b60405162461bcd60e51b815260206004820152602b60248201527f455243373231456e756d657261626c653a206f776e657220696e646578206f7560448201526a74206f6620626f756e647360a81b6064820152608490fd5b503461000e576104d46106b03661058b565b9060405192602084018481106001600160401b038211176106d8575b60405260008452611bc9565b6106e0610ad5565b6106cc565b503461000e57602036600319011261000e576004356008548110156107375760086000527ff3f7a9fe364faab93b216da50a3214154f22a0a2b415b23a84c8169e8b636ee30154604051908152602090f35b60405162461bcd60e51b815260206004820152602c60248201527f455243373231456e756d657261626c653a20676c6f62616c20696e646578206f60448201526b7574206f6620626f756e647360a01b6064820152608490fd5b503461000e57602036600319011261000e57602061043e6004356119ca565b503461000e57600036600319011261000e5760206040517354179e1770a780f2f541f23cb21252de12977d3c8152f35b503461000e57602036600319011261000e5760206108046107ff610450565b611952565b604051908152f35b503461000e5760008060031936011261041c57600a546001600160a01b038116906108383383146118b9565b6001600160a01b031916600a556040519082907f8be0079c531659141344cd1fd0a4f28419497f9722a3daafe3b4186f6b6457e08284a3f35b503461000e57600036600319011261000e5760206040516103ea8152f35b503461000e57600036600319011261000e57600a546040516001600160a01b039091168152602090f35b503461000e5760008060031936011261041c576040519080600190815480831c92808216928315610971575b60209283861085146103fe5785885260208801949081156103e25750600114610918576103868761037a81890382610b14565b600160005294509192917fb10e2d527612073b26eecdfd717e6a320cf44b4afac2b0732d9fcbe2b7fa0cf65b838610610960575050509101905061037a82610386388061036a565b805485870152948201948101610944565b93607f16936108e5565b503461000e57600036600319011261000e576020600d54604051908152f35b503461000e57604036600319011261000e576109b4610450565b602435801515810361000e576001600160a01b03821691338314610a4257816109ff610a109233600052600560205260406000209060018060a01b0316600052602052604060002090565b9060ff801983541691151516179055565b604051901515815233907f17307eab39ab6107e8899845ad3d59bd9653f200f220920489ca2b5937696c3190602090a3005b60405162461bcd60e51b815260206004820152601960248201527822a9219b99189d1030b8383937bb32903a379031b0b63632b960391b6044820152606490fd5b503461000e57602036600319011261000e57610386610aa3600435612c6c565b6040519182916020835260208301906102e0565b503461000e57600036600319011261000e576020604051610e908152f35b50634e487b7160e01b600052604160045260246000fd5b604081019081106001600160401b03821117610b0757604052565b610b0f610ad5565b604052565b90601f801991011681019081106001600160401b03821117610b0757604052565b60405190606082018281106001600160401b03821117610b0757604052565b6020906001600160401b038111610b71575b601f01601f19160190565b610b79610ad5565b610b66565b503461000e57608036600319011261000e57610b98610450565b610ba0610466565b606435916001600160401b03831161000e573660238401121561000e57826004013591610bcc83610b54565b92610bda6040519485610b14565b808452366024828701011161000e5760208160009260246104d49801838801378501015260443591611bc9565b503461000e57602036600319011261000e57610c2c610c27600435611c64565b6126e1565b610d33610c5f610c6d610c4060043561283f565b60405165536f636b202360d01b60208201529283916026830190612716565b03601f198101835282610b14565b610c75612729565b50610c89610c84600435612b66565b612a7d565b610c94600435613190565b9092610cd16000610cb16004356000526011602052604060002090565b5460405180938192630353b07760e01b8352600483019190602083019252565b0381735a91980Bec7bE5c2A9ef352AB3320acE93671daD5af49081156115c5575b6000916115aa575b506000610d136004356000526011602052604060002090565b5460405180998192631e5833e960e11b8352600483019190602083019252565b0381735a91980Bec7bE5c2A9ef352AB3320acE93671daD5af496871561159d575b600097611580575b50610d986000610d78600435600052600e602052604060002090565b5460405180938192636aabd94360e11b8352600483019190602083019252565b038173AC328Cd835BD716f74eA57159308C64d4B9C61625af4908115611573575b600091611558575b50610dfd6000610ddd600435600052600e602052604060002090565b5460405180938192630c52312760e01b8352600483019190602083019252565b038173Adcd149C6d927a3ec0993F3E4b316614535c59485af490811561154b575b600091611530575b506040516357734f6b60e01b81526004810187905260008160248173DA7991CB363e76C33cE5dBa42c6ea28B4e8A5ECc5af4908115611523575b600091611508575b506040516357734f6b60e01b8152600481018990529160008360248173DA7991CB363e76C33cE5dBa42c6ea28B4e8A5ECc5af49283156114fb575b6000936114de575b506040516357734f6b60e01b8152600481018890529360008560248173DA7991CB363e76C33cE5dBa42c6ea28B4e8A5ECc5af49485156114d1575b6000956114b4575b506040516e02a3434b99029b7b1b5b9903430b99608d1b60208201529b8c96602f8801610f1a91612716565b6c0103130b1b5b3b937bab732161609d1b8152600d01610f3991612716565b720103130b1b5b3b937bab7321031b7b637b9161606d1b8152601301610f5e91612716565b690103830ba3a32b93716160b51b8152600a01610f7a91612716565b66010103834b717160cd1b815260070167020b732103430b9960c51b8152600801610fa491612716565b610fad906127a7565b610fb691612716565b610fbf906127a7565b610fc891612716565b6620636f6c6f727360c81b815260070103601f1981018752610fea9087610b14565b610ff560043561283f565b6110006004356119ca565b611012906001600160a01b0316612951565b9160043561102a906000526010602052604060002090565b5460405163a81f66ed60e01b8152600481019190915292735a91980Bec7bE5c2A9ef352AB3320acE93671daD846024815a93600094f49283159761116b976110b6966111c19a6114a7575b60009661148a575b5060006110966004356000526011602052604060002090565b546040518099819263e28b34df60e01b8352600483019190602083019252565b0381735a91980Bec7bE5c2A9ef352AB3320acE93671daD5af496871561147d575b60009761145c575b5060405163357c470d60e21b815260048101919091526024810191909152604481019690965260008660648173DA7991CB363e76C33cE5dBa42c6ea28B4e8A5ECc5af495861561144f575b600096611432575b50600061114b600435600052600e602052604060002090565b54604051809981926326549a8f60e11b8352600483019190602083019252565b038173Adcd149C6d927a3ec0993F3E4b316614535c59485af4968715611425575b600097611408575b5060006111a260043561322a565b604051809a8192635cb9c28560e01b8352600483019190602083019252565b038173AC328Cd835BD716f74eA57159308C64d4B9C61625af49788156113fb575b6000986113d6575b50604051683d913730b6b2911d1160b91b6020820152998a9960298b0161121091612716565b701116113232b9b1b934b83a34b7b7111d1160791b815260110161123391612716565b7f222c2265787465726e616c5f75726c223a2268747470733a2f2f74686973736f81526d636b732e636f6d2f746f6b656e2f60901b6020820152602e0161127991612716565b6b1116101137bbb732b9111d1160a11b8152600c0161129791612716565b6b11161134b6b0b3b2911d101160a11b8152600c017f646174613a696d6167652f7376672b786d6c3b6261736536342c0000000000008152601a016112db91612716565b61088b60f21b81526002016d2261747472696275746573223a5b60901b8152600e0161130691612716565b61130f906127a7565b61131891612716565b611321906127a7565b61132a91612716565b611333906127a7565b61133c91612716565b611345906127a7565b61134e91612716565b605d60f81b8152600101607d60f81b815260010103601f19810182526113749082610b14565b61137d90612a7d565b6040517f646174613a6170706c69636174696f6e2f6a736f6e3b6261736536342c0000006020820152908190603d82016113b691612716565b03601f19810182526113c89082610b14565b604051610386819282610305565b6113f49198503d806000833e6113ec8183610b14565b810190612749565b96386111ea565b61140361206e565b6111e2565b61141e9197503d806000833e6113ec8183610b14565b9538611194565b61142d61206e565b61118c565b6114489196503d806000833e6113ec8183610b14565b9438611132565b61145761206e565b61112a565b600092919750611475903d8085833e6113ec8183610b14565b9690916110df565b61148561206e565b6110d7565b6114a09196503d806000833e6113ec8183610b14565b943861107d565b6114af61206e565b611075565b6114ca9195503d806000833e6113ec8183610b14565b9338610eee565b6114d961206e565b610ee6565b6114f49193503d806000833e6113ec8183610b14565b9138610eab565b61150361206e565b610ea3565b61151d91503d806000833e6113ec8183610b14565b38610e68565b61152b61206e565b610e60565b61154591503d806000833e6113ec8183610b14565b38610e26565b61155361206e565b610e1e565b61156d91503d806000833e6113ec8183610b14565b38610dc1565b61157b61206e565b610db9565b6115969197503d806000833e6113ec8183610b14565b9538610d5c565b6115a561206e565b610d54565b6115bf91503d806000833e6113ec8183610b14565b38610cfa565b6115cd61206e565b610cf2565b503461000e57604036600319011261000e57602060ff6116246115f3610450565b6115fb610466565b6001600160a01b0391821660009081526005865260408082209290931681526020919091522090565b54166040519015158152f35b5060008060031936011261041c5761038690611812600c9161165483544210612465565b61167e611679611671600d5461166c813410156124a0565b6124d9565b6103e8900490565b600d55565b61168c6001600b5401600b55565b600b549261169a84336125ca565b60196116a543611dcc565b60408051602081018881529240918101919091526bffffffffffffffffffffffff1933606090811b82168184015230901b1660748201526116e98160888101610c5f565b5190209160ff83816014819660061a828460051a831b1617061661171789600052600e602052604060002090565b5581601f611723610b35565b9482818560021a828760011a831b16170616865282818560091a828760081a831b16170616602087015261178284601e1a96848660141a93898286831b16170616604082015261177d8d600052600f602052604060002090565b612521565b82600b8186168287601b1a831b161706166117a78c6000526010602052604060002090565b55828460161a91831b161706166117c8896000526011602052604060002090565b55600a1a831b161706166117e6846000526012602052604060002090565b558080604051347354179e1770a780f2f541f23cb21252de12977d3c5af161180c61207b565b5061258d565b6040519081529081906020820190565b503461000e57602036600319011261000e5761183c610450565b600a546001600160a01b039061185590821633146118b9565b811615611865576104d490611904565b60405162461bcd60e51b815260206004820152602660248201527f4f776e61626c653a206e6577206f776e657220697320746865207a65726f206160448201526564647265737360d01b6064820152608490fd5b156118c057565b606460405162461bcd60e51b815260206004820152602060248201527f4f776e61626c653a2063616c6c6572206973206e6f7420746865206f776e65726044820152fd5b600a80546001600160a01b039283166001600160a01b031982168117909255604051919216907f8be0079c531659141344cd1fd0a4f28419497f9722a3daafe3b4186f6b6457e090600090a3565b6001600160a01b0316801561197257600052600360205260406000205490565b60405162461bcd60e51b815260206004820152602a60248201527f4552433732313a2062616c616e636520717565727920666f7220746865207a65604482015269726f206164647265737360b01b6064820152608490fd5b6000908152600260205260409020546001600160a01b031680156119eb5790565b60405162461bcd60e51b815260206004820152602960248201527f4552433732313a206f776e657220717565727920666f72206e6f6e657869737460448201526832b73a103a37b5b2b760b91b6064820152608490fd5b15611a4957565b60405162461bcd60e51b815260206004820152603860248201527f4552433732313a20617070726f76652063616c6c6572206973206e6f74206f776044820152771b995c881b9bdc88185c1c1c9bdd995908199bdc88185b1b60421b6064820152608490fd5b611ab881611c64565b15611ad8576000908152600460205260409020546001600160a01b031690565b60405162461bcd60e51b815260206004820152602c60248201527f4552433732313a20617070726f76656420717565727920666f72206e6f6e657860448201526b34b9ba32b73a103a37b5b2b760a11b6064820152608490fd5b15611b3957565b60405162461bcd60e51b815260206004820152603160248201527f4552433732313a207472616e736665722063616c6c6572206973206e6f74206f6044820152701ddb995c881b9bdc88185c1c1c9bdd9959607a1b6064820152608490fd5b60405190602082018281106001600160401b03821117611bbc575b60405260008252565b611bc4610ad5565b611bb3565b90611bed939291611bdd6105e08433611c81565b611be8838383611e25565b6120ab565b15611bf457565b60405162461bcd60e51b815280611c0d60048201611c11565b0390fd5b60809060208152603260208201527f4552433732313a207472616e7366657220746f206e6f6e20455243373231526560408201527131b2b4bb32b91034b6b83632b6b2b73a32b960711b60608201520190565b6000908152600260205260409020546001600160a01b0316151590565b611c8a82611c64565b15611d0357611c98826119ca565b6001600160a01b038281168282168114949091908515611ceb575b5050508215611cc157505090565b6001600160a01b0316600090815260056020526040902060ff9250611ce691906104f9565b541690565b611cf89192939550611aaf565b161491388080611cb3565b60405162461bcd60e51b815260206004820152602c60248201527f4552433732313a206f70657261746f7220717565727920666f72206e6f6e657860448201526b34b9ba32b73a103a37b5b2b760a11b6064820152608490fd5b15611d6457565b60405162461bcd60e51b8152602060048201526024808201527f4552433732313a207472616e7366657220746f20746865207a65726f206164646044820152637265737360e01b6064820152608490fd5b50634e487b7160e01b600052601160045260246000fd5b60018110611ddc575b6000190190565b611de4611db5565b611dd5565b6001906001198111611df9570190565b611e01611db5565b0190565b6002906002198111611df9570190565b6020906020198111611df9570190565b90611e2f836119ca565b6001600160a01b038381169290918216839003611f1557611e89611eec92821694611e5b861515611d5d565b611e668784836121b2565b611e6f87611f6c565b6001600160a01b0316600090815260036020526040902090565b611e938154611dcc565b90556001600160a01b0381166000908152600360205260409020611eb78154611de9565b9055611ecd856000526002602052604060002090565b80546001600160a01b0319166001600160a01b03909216919091179055565b7fddf252ad1be2c89b69c2b068fc378daa952ba7f163c4a11628f55a4df523b3ef6000604051a4565b60405162461bcd60e51b815260206004820152602960248201527f4552433732313a207472616e73666572206f6620746f6b656e2074686174206960448201526839903737ba1037bbb760b91b6064820152608490fd5b600081815260046020526040812080546001600160a01b03191690556001600160a01b03611f99836119ca565b167f8c5be1e5ebec7d5bd14f71427d1e84f3dd0314c0f7b2291e5b200ac8c7c3b92582604051a4565b600082815260046020526040902080546001600160a01b0319166001600160a01b0383161790556001600160a01b0380611ffb846119ca565b169116907f8c5be1e5ebec7d5bd14f71427d1e84f3dd0314c0f7b2291e5b200ac8c7c3b9256000604051a4565b9081602091031261000e575161031681610210565b6001600160a01b039182168152911660208201526040810191909152608060608201819052610316929101906102e0565b506040513d6000823e3d90fd5b3d156120a6573d9061208c82610b54565b9161209a6040519384610b14565b82523d6000602084013e565b606090565b92909190823b15612165576120de926020926000604051809681958294630a85bd0160e11b9a8b8552336004860161203d565b03926001600160a01b03165af160009181612135575b506121275761210161207b565b805190816121225760405162461bcd60e51b815280611c0d60048201611c11565b602001fd5b6001600160e01b0319161490565b61215791925060203d811161215e575b61214f8183610b14565b810190612028565b90386120f4565b503d612145565b50505050600190565b50634e487b7160e01b600052603260045260246000fd5b9061218f8161230f565b6001600160a01b0382166121a9576121a79150612383565b565b6121a7916122d7565b9091906001600160a01b0380821691826121ec57506121d08361230f565b8316806121e35750506121a79150612383565b036121a9575050565b81851683036121fc575b506121d0565b61227061220882611952565b600181106122ca575b6000190161226160009387855260076020526040852054838103612277575b5084612246896000526007602052604060002090565b556001600160a01b0316600090815260066020526040902090565b90600052602052604060002090565b55386121f6565b8786526006602052604086208487526020526122c36040872054806122b2846122618760018060a01b03166000526006602052604060002090565b556000526007602052604060002090565b5538612230565b6122d2611db5565b612211565b6040906122e381611952565b9260009160018060a01b0316825260066020528282208483526020528083832055815260076020522055565b60085481600052600960205280604060002055600160401b811015612376575b6001810180600855811015612369575b60086000527ff3f7a9fe364faab93b216da50a3214154f22a0a2b415b23a84c8169e8b636ee30155565b61237161216e565b61233f565b61237e610ad5565b61232f565b60086123f981549260018410612458575b6000918183928352600960205260408320546123e86000199780898101101561244b575b8786528881602088200101549083101561243e575b87865280836020882001556000526009602052604060002090565b556000526009602052604060002090565b55815492831561242a57808401938085101561241d575b8383526020832001015555565b61242561216e565b612410565b634e487b7160e01b82526031600452602482fd5b61244661216e565b6123cd565b61245361216e565b6123b8565b612460611db5565b612394565b1561246c57565b60405162461bcd60e51b815260206004820152600c60248201526b444f4e45204d494e54494e4760a01b6044820152606490fd5b156124a757565b60405162461bcd60e51b815260206004820152600a60248201526909c9ea8408a9c9eaa8e960b31b6044820152606490fd5b6103ea9080600019048211811515166124f0570290565b6124f8611db5565b0290565b6001600160fe1b038111600116612514575b60021b90565b61251c611db5565b61250e565b805491600392838355808410612564575b50906000526020806000206000925b84841061254f575050505050565b60018382829351855501920193019290612541565b6000838152846020822092830192015b828110612582575050612532565b818155600101612574565b1561259457565b60405162461bcd60e51b815260206004820152600e60248201526d18dbdd5b19081b9bdd081cd95b9960921b6044820152606490fd5b6001600160a01b03811690811561269d576125e483611c64565b61265857806125f68461262e93612185565b6001600160a01b03811660009081526003602052604090206126188154611de9565b9055611ecd846000526002602052604060002090565b60007fddf252ad1be2c89b69c2b068fc378daa952ba7f163c4a11628f55a4df523b3ef81604051a4565b60405162461bcd60e51b815260206004820152601c60248201527f4552433732313a20746f6b656e20616c7265616479206d696e746564000000006044820152606490fd5b606460405162461bcd60e51b815260206004820152602060248201527f4552433732313a206d696e7420746f20746865207a65726f20616464726573736044820152fd5b156126e857565b60405162461bcd60e51b815260206004820152600660248201526508595e1a5cdd60d21b6044820152606490fd5b90611e01602092828151948592016102ab565b6040519061273682610aec565b6004825263536f636b60e01b6020830152565b60208183031261000e578051906001600160401b03821161000e570181601f8201121561000e57805161277b81610b54565b926127896040519485610b14565b8184526020828401011161000e5761031691602080850191016102ab565b600b60fa1b815260010190565b60405190606082018281106001600160401b038211176127e1575b604052602a8252604082602036910137565b6127e9610ad5565b6127cf565b906127f882610b54565b6128056040519182610b14565b8281528092612816601f1991610b54565b0190602036910137565b90602091805182101561283257010190565b61283a61216e565b010190565b80156128db576000818181805b6128b1575061285a816127ee565b935b6128665750505090565b61286f90611dcc565b90600a906030828206801982116128a4575b0160f81b6001600160f81b031916841a61289b8487612820565b5304908161285c565b6128ac611db5565b612881565b91506001600a9160001981146128ce575b0191048084929161284c565b6128d6611db5565b6128c2565b506040516128e881610aec565b60018152600360fc1b602082015290565b8015611ddc576000190190565b1561290d57565b606460405162461bcd60e51b815260206004820152602060248201527f537472696e67733a20686578206c656e67746820696e73756666696369656e746044820152fd5b6129596127b4565b908151156129f3575b6030602083015381516001908110156129e6575b90607860218401536029915b8083116129955750610316915015612906565b9080600f6129d2921660108110156129d9575b6f181899199a1a9b1b9c1cb0b131b232b360811b901a6129c88587612820565b5360041c926128f9565b9190612982565b6129e161216e565b6129a8565b6129ee61216e565b612976565b6129fb61216e565b612962565b60405190606082018281106001600160401b03821117612a70575b604052604082527f6768696a6b6c6d6e6f707172737475767778797a303132333435363738392b2f6040837f4142434445464748494a4b4c4d4e4f505152535455565758595a61626364656660208201520152565b612a78610ad5565b612a1b565b805115612b5d57612a8c612a00565b612aa8612aa3612a9c8451611e05565b6003900490565b6124fc565b91612aba612ab584611e15565b6127ee565b92835280815182019060208501935b828210612b0b57505050600390510680600114612afa57600214612aeb575090565b603d60f81b6000199091015290565b50613d3d60f01b6001199091015290565b9091936004906003809401938451600190603f9082828260121c16880101518553828282600c1c16880101518386015382828260061c1688010151600286015316850101519082015301939190612ac9565b50610316611b98565b612b6f90612c6c565b610316608160405180937f3c73766720786d6c6e733d22687474703a2f2f7777772e77332e6f72672f323060208301527f30302f737667222077696474683d223130383022206865696768743d2231303860408301527f30222076696577426f783d2230203020313038302031303830223e00000000006060830152612bff815180926020607b860191016102ab565b8101651e17b9bb339f60d11b607b820152036061810184520182610b14565b6040906103169392815281602082015201906102e0565b91612c5e90612c5061031695936060865260608601906102e0565b9084820360208601526102e0565b9160408184039101526102e0565b612d1d612c7882613190565b9193612c8e816000526011602052604060002090565b5490612c998161322a565b9173feeea43f4D4251BD883b9433762e9101380c6D70612cc3836000526010602052604060002090565b549260409586519763749e421b60e01b89526000898181819c612cef60049b8c83019190602083019252565b0381895af4908115613183575b8291613169575b508951809c819263132ffe9960e31b8352898b8401612c1e565b0381875af4998a1561315c575b899a613140575b5087519a630f500e3b60e41b8c52898c80612d53898b83019190602083019252565b0381885af49b8c15613133575b8a9c6130f4575b5093612e8b97938a612e148b612dea612e449b9784612ed59f9c98819c73DA7991CB363e76C33cE5dBa42c6ea28B4e8A5ECc958051948d858780612dbd6313f89b4360e31b978883528583019190602083019252565b03818c5af49687156130e7575b86976130c7575b5082518481529081019182529685918891829160200190565b03818a5af49586156130ba575b849661309e575b5051968792839283528d83019190602083019252565b0381865af4938415613091575b8594613075575b508b51635a8289c960e01b81529c8d94859384938c8501612c35565b03915af4978815613068575b8698613046575b50612e6d8691600052600e602052604060002090565b548751809a8192630c0d0b6560e41b83528783019190602083019252565b03817305482875e24Bd0FCf6a94dA6480680eCb4D8113D5af4978815613039575b8598613019575b50908491865180809b819463c9e3104760e01b83528783019190602083019252565b03915af496871561300c575b8397612fe8575b508351630722ef8960e01b81529081019182529190829081906020015b0381734Baf7A213EeB9398bA7f191623335a24f768b4185af4958615612fdb575b8096612fbe575b50505195869560208701612f4091612716565b7f3c67207472616e73666f726d3d227472616e736c617465283138302c2031333081526214911f60e91b6020820152602301612f7b91612716565b612f8491612716565b612f8d91612716565b631e17b39f60e11b8152600401612fa391612716565b612fac91612716565b03601f19810182526103169082610b14565b612fd39296503d8091833e6113ec8183610b14565b933880612f2d565b612fe361206e565b612f26565b612f059392919750613003903d8085833e6113ec8183610b14565b96909192612ee8565b61301461206e565b612ee1565b8592919850613031903d8085833e6113ec8183610b14565b979091612eb3565b61304161206e565b612eac565b86919850613060612e6d913d8085833e6113ec8183610b14565b989150612e57565b61307061206e565b612e50565b61308a9194503d8087833e6113ec8183610b14565b9238612e28565b61309961206e565b612e21565b6130b39196503d8086833e6113ec8183610b14565b9438612dfe565b6130c261206e565b612df7565b86929197506130df903d8085833e6113ec8183610b14565b969091612dd1565b6130ef61206e565b612dca565b899c50938a809995928197939b989499959b3d8084833e6131158183610b14565b810161312091612749565b9e50929650509397989296919598612d67565b61313b61206e565b612d60565b613155919a503d808b833e6113ec8183610b14565b9838612d31565b61316461206e565b612d2a565b61317d91503d8084833e6113ec8183610b14565b38612d03565b61318b61206e565b612cfc565b61319c610c2782611c64565b600091818352600f6020526040832080541561321d575b8352600260208085205494848152600f825260408120805460011015613210575b81526131f16001838320015495600052600f602052604060002090565b8054841015613203575b815220015490565b61320b61216e565b6131fb565b61321861216e565b6131d4565b61322561216e565b6131b3565b613236610c2782611c64565b60005260126020526040600020549056fea264697066735822122027cde362c073a41c05d4d18f4d45f070deedf9ca0cb5165592c7316cf8ded80464736f6c634300080d0033",
  "deployedBytecode": "0x60806040526004361015610013575b600080fd5b60003560e01c806301ffc9a71461020757806306fdde03146101fe578063081812fc146101f5578063095ea7b3146101ec57806318160ddd146101e357806323b872dd146101da5780632f745c59146101d157806342842e0e146101c85780634f6ccce7146101bf5780636352211e146101b657806366d003ac146101ad57806370a08231146101a4578063715018a61461019b5780637165485d146101925780638da5cb5b1461018957806395d89b4114610180578063a035b1fe14610177578063a22cb4651461016e578063a2d6c6da14610165578063a4d66daf1461015c578063b88d4fde14610153578063c87b56dd1461014a578063e985e9c514610141578063eb93406b146101385763f2fde38b1461013057600080fd5b61000e611822565b5061000e611630565b5061000e6115d2565b5061000e610c07565b5061000e610b7e565b5061000e610ab7565b5061000e610a83565b5061000e61099a565b5061000e61097b565b5061000e6108b9565b5061000e61088f565b5061000e610871565b5061000e61080c565b5061000e6107e0565b5061000e6107b0565b5061000e610791565b5061000e6106e5565b5061000e61069e565b5061000e6105ea565b5061000e6105c0565b5061000e61056c565b5061000e61047c565b5061000e61041f565b5061000e610319565b5061000e610222565b6001600160e01b031981160361000e57565b503461000e57602036600319011261000e57602060043561024281610210565b63ffffffff60e01b1663780e9d6360e01b8114908115610268575b506040519015158152f35b6380ac58cd60e01b81149150811561029a575b8115610289575b503861025d565b6301ffc9a760e01b14905038610282565b635b5e139f60e01b8114915061027b565b918091926000905b8282106102cb5750116102c4575050565b6000910152565b915080602091830151818601520182916102b3565b906020916102f9815180928185528580860191016102ab565b601f01601f1916010190565b9060206103169281815201906102e0565b90565b503461000e5760008060031936011261041c57604051908080549060019180831c92808216928315610412575b60209283861085146103fe5785885260208801949081156103e2575060011461038a575b6103868761037a81890382610b14565b60405191829182610305565b0390f35b6000805294509192917f290decd9548b62a8d60345a988386fc84ba6bc95484008f6362f93160ef3e5635b8386106103d1575050509101905061037a82610386388061036a565b8054858701529482019481016103b5565b60ff1916855250505001915061037a905082610386388061036a565b634e487b7160e01b82526022600452602482fd5b93607f1693610346565b80fd5b503461000e57602036600319011261000e57602061043e600435611aaf565b6040516001600160a01b039091168152f35b600435906001600160a01b038216820361000e57565b602435906001600160a01b038216820361000e57565b503461000e57604036600319011261000e57610496610450565b6024356104a2816119ca565b916001600160a01b03808416908216811461051d576104d4936104cf9133149081156104d6575b50611a42565b611fc2565b005b6001600160a01b0316600090815260056020526040902061051791506105109033905b9060018060a01b0316600052602052604060002090565b5460ff1690565b386104c9565b60405162461bcd60e51b815260206004820152602160248201527f4552433732313a20617070726f76616c20746f2063757272656e74206f776e656044820152603960f91b6064820152608490fd5b503461000e57600036600319011261000e576020600854604051908152f35b606090600319011261000e576001600160a01b0390600435828116810361000e5791602435908116810361000e579060443590565b503461000e576104d46105d23661058b565b916105e56105e08433611c81565b611b32565b611e25565b503461000e57604036600319011261000e57610604610450565b6024359061061181611952565b821015610645576001600160a01b031660009081526006602090815260408083209383529281529082902054915191825290f35b60405162461bcd60e51b815260206004820152602b60248201527f455243373231456e756d657261626c653a206f776e657220696e646578206f7560448201526a74206f6620626f756e647360a81b6064820152608490fd5b503461000e576104d46106b03661058b565b9060405192602084018481106001600160401b038211176106d8575b60405260008452611bc9565b6106e0610ad5565b6106cc565b503461000e57602036600319011261000e576004356008548110156107375760086000527ff3f7a9fe364faab93b216da50a3214154f22a0a2b415b23a84c8169e8b636ee30154604051908152602090f35b60405162461bcd60e51b815260206004820152602c60248201527f455243373231456e756d657261626c653a20676c6f62616c20696e646578206f60448201526b7574206f6620626f756e647360a01b6064820152608490fd5b503461000e57602036600319011261000e57602061043e6004356119ca565b503461000e57600036600319011261000e5760206040517354179e1770a780f2f541f23cb21252de12977d3c8152f35b503461000e57602036600319011261000e5760206108046107ff610450565b611952565b604051908152f35b503461000e5760008060031936011261041c57600a546001600160a01b038116906108383383146118b9565b6001600160a01b031916600a556040519082907f8be0079c531659141344cd1fd0a4f28419497f9722a3daafe3b4186f6b6457e08284a3f35b503461000e57600036600319011261000e5760206040516103ea8152f35b503461000e57600036600319011261000e57600a546040516001600160a01b039091168152602090f35b503461000e5760008060031936011261041c576040519080600190815480831c92808216928315610971575b60209283861085146103fe5785885260208801949081156103e25750600114610918576103868761037a81890382610b14565b600160005294509192917fb10e2d527612073b26eecdfd717e6a320cf44b4afac2b0732d9fcbe2b7fa0cf65b838610610960575050509101905061037a82610386388061036a565b805485870152948201948101610944565b93607f16936108e5565b503461000e57600036600319011261000e576020600d54604051908152f35b503461000e57604036600319011261000e576109b4610450565b602435801515810361000e576001600160a01b03821691338314610a4257816109ff610a109233600052600560205260406000209060018060a01b0316600052602052604060002090565b9060ff801983541691151516179055565b604051901515815233907f17307eab39ab6107e8899845ad3d59bd9653f200f220920489ca2b5937696c3190602090a3005b60405162461bcd60e51b815260206004820152601960248201527822a9219b99189d1030b8383937bb32903a379031b0b63632b960391b6044820152606490fd5b503461000e57602036600319011261000e57610386610aa3600435612c6c565b6040519182916020835260208301906102e0565b503461000e57600036600319011261000e576020604051610e908152f35b50634e487b7160e01b600052604160045260246000fd5b604081019081106001600160401b03821117610b0757604052565b610b0f610ad5565b604052565b90601f801991011681019081106001600160401b03821117610b0757604052565b60405190606082018281106001600160401b03821117610b0757604052565b6020906001600160401b038111610b71575b601f01601f19160190565b610b79610ad5565b610b66565b503461000e57608036600319011261000e57610b98610450565b610ba0610466565b606435916001600160401b03831161000e573660238401121561000e57826004013591610bcc83610b54565b92610bda6040519485610b14565b808452366024828701011161000e5760208160009260246104d49801838801378501015260443591611bc9565b503461000e57602036600319011261000e57610c2c610c27600435611c64565b6126e1565b610d33610c5f610c6d610c4060043561283f565b60405165536f636b202360d01b60208201529283916026830190612716565b03601f198101835282610b14565b610c75612729565b50610c89610c84600435612b66565b612a7d565b610c94600435613190565b9092610cd16000610cb16004356000526011602052604060002090565b5460405180938192630353b07760e01b8352600483019190602083019252565b038173__$772a75894d036a7365d3d456d63c619b1e$__5af49081156115c5575b6000916115aa575b506000610d136004356000526011602052604060002090565b5460405180998192631e5833e960e11b8352600483019190602083019252565b038173__$772a75894d036a7365d3d456d63c619b1e$__5af496871561159d575b600097611580575b50610d986000610d78600435600052600e602052604060002090565b5460405180938192636aabd94360e11b8352600483019190602083019252565b038173__$74f2c8579a45ff0cd4ba0b2f14fdf61d51$__5af4908115611573575b600091611558575b50610dfd6000610ddd600435600052600e602052604060002090565b5460405180938192630c52312760e01b8352600483019190602083019252565b038173__$45d2f044cbc76663f5d423dd998b62c3f2$__5af490811561154b575b600091611530575b506040516357734f6b60e01b81526004810187905260008160248173__$1a9ce43643d07b5d2d447f788b54f84bee$__5af4908115611523575b600091611508575b506040516357734f6b60e01b8152600481018990529160008360248173__$1a9ce43643d07b5d2d447f788b54f84bee$__5af49283156114fb575b6000936114de575b506040516357734f6b60e01b8152600481018890529360008560248173__$1a9ce43643d07b5d2d447f788b54f84bee$__5af49485156114d1575b6000956114b4575b506040516e02a3434b99029b7b1b5b9903430b99608d1b60208201529b8c96602f8801610f1a91612716565b6c0103130b1b5b3b937bab732161609d1b8152600d01610f3991612716565b720103130b1b5b3b937bab7321031b7b637b9161606d1b8152601301610f5e91612716565b690103830ba3a32b93716160b51b8152600a01610f7a91612716565b66010103834b717160cd1b815260070167020b732103430b9960c51b8152600801610fa491612716565b610fad906127a7565b610fb691612716565b610fbf906127a7565b610fc891612716565b6620636f6c6f727360c81b815260070103601f1981018752610fea9087610b14565b610ff560043561283f565b6110006004356119ca565b611012906001600160a01b0316612951565b9160043561102a906000526010602052604060002090565b5460405163a81f66ed60e01b815260048101919091529273__$772a75894d036a7365d3d456d63c619b1e$__846024815a93600094f49283159761116b976110b6966111c19a6114a7575b60009661148a575b5060006110966004356000526011602052604060002090565b546040518099819263e28b34df60e01b8352600483019190602083019252565b038173__$772a75894d036a7365d3d456d63c619b1e$__5af496871561147d575b60009761145c575b5060405163357c470d60e21b815260048101919091526024810191909152604481019690965260008660648173__$1a9ce43643d07b5d2d447f788b54f84bee$__5af495861561144f575b600096611432575b50600061114b600435600052600e602052604060002090565b54604051809981926326549a8f60e11b8352600483019190602083019252565b038173__$45d2f044cbc76663f5d423dd998b62c3f2$__5af4968715611425575b600097611408575b5060006111a260043561322a565b604051809a8192635cb9c28560e01b8352600483019190602083019252565b038173__$74f2c8579a45ff0cd4ba0b2f14fdf61d51$__5af49788156113fb575b6000986113d6575b50604051683d913730b6b2911d1160b91b6020820152998a9960298b0161121091612716565b701116113232b9b1b934b83a34b7b7111d1160791b815260110161123391612716565b7f222c2265787465726e616c5f75726c223a2268747470733a2f2f74686973736f81526d636b732e636f6d2f746f6b656e2f60901b6020820152602e0161127991612716565b6b1116101137bbb732b9111d1160a11b8152600c0161129791612716565b6b11161134b6b0b3b2911d101160a11b8152600c017f646174613a696d6167652f7376672b786d6c3b6261736536342c0000000000008152601a016112db91612716565b61088b60f21b81526002016d2261747472696275746573223a5b60901b8152600e0161130691612716565b61130f906127a7565b61131891612716565b611321906127a7565b61132a91612716565b611333906127a7565b61133c91612716565b611345906127a7565b61134e91612716565b605d60f81b8152600101607d60f81b815260010103601f19810182526113749082610b14565b61137d90612a7d565b6040517f646174613a6170706c69636174696f6e2f6a736f6e3b6261736536342c0000006020820152908190603d82016113b691612716565b03601f19810182526113c89082610b14565b604051610386819282610305565b6113f49198503d806000833e6113ec8183610b14565b810190612749565b96386111ea565b61140361206e565b6111e2565b61141e9197503d806000833e6113ec8183610b14565b9538611194565b61142d61206e565b61118c565b6114489196503d806000833e6113ec8183610b14565b9438611132565b61145761206e565b61112a565b600092919750611475903d8085833e6113ec8183610b14565b9690916110df565b61148561206e565b6110d7565b6114a09196503d806000833e6113ec8183610b14565b943861107d565b6114af61206e565b611075565b6114ca9195503d806000833e6113ec8183610b14565b9338610eee565b6114d961206e565b610ee6565b6114f49193503d806000833e6113ec8183610b14565b9138610eab565b61150361206e565b610ea3565b61151d91503d806000833e6113ec8183610b14565b38610e68565b61152b61206e565b610e60565b61154591503d806000833e6113ec8183610b14565b38610e26565b61155361206e565b610e1e565b61156d91503d806000833e6113ec8183610b14565b38610dc1565b61157b61206e565b610db9565b6115969197503d806000833e6113ec8183610b14565b9538610d5c565b6115a561206e565b610d54565b6115bf91503d806000833e6113ec8183610b14565b38610cfa565b6115cd61206e565b610cf2565b503461000e57604036600319011261000e57602060ff6116246115f3610450565b6115fb610466565b6001600160a01b0391821660009081526005865260408082209290931681526020919091522090565b54166040519015158152f35b5060008060031936011261041c5761038690611812600c9161165483544210612465565b61167e611679611671600d5461166c813410156124a0565b6124d9565b6103e8900490565b600d55565b61168c6001600b5401600b55565b600b549261169a84336125ca565b60196116a543611dcc565b60408051602081018881529240918101919091526bffffffffffffffffffffffff1933606090811b82168184015230901b1660748201526116e98160888101610c5f565b5190209160ff83816014819660061a828460051a831b1617061661171789600052600e602052604060002090565b5581601f611723610b35565b9482818560021a828760011a831b16170616865282818560091a828760081a831b16170616602087015261178284601e1a96848660141a93898286831b16170616604082015261177d8d600052600f602052604060002090565b612521565b82600b8186168287601b1a831b161706166117a78c6000526010602052604060002090565b55828460161a91831b161706166117c8896000526011602052604060002090565b55600a1a831b161706166117e6846000526012602052604060002090565b558080604051347354179e1770a780f2f541f23cb21252de12977d3c5af161180c61207b565b5061258d565b6040519081529081906020820190565b503461000e57602036600319011261000e5761183c610450565b600a546001600160a01b039061185590821633146118b9565b811615611865576104d490611904565b60405162461bcd60e51b815260206004820152602660248201527f4f776e61626c653a206e6577206f776e657220697320746865207a65726f206160448201526564647265737360d01b6064820152608490fd5b156118c057565b606460405162461bcd60e51b815260206004820152602060248201527f4f776e61626c653a2063616c6c6572206973206e6f7420746865206f776e65726044820152fd5b600a80546001600160a01b039283166001600160a01b031982168117909255604051919216907f8be0079c531659141344cd1fd0a4f28419497f9722a3daafe3b4186f6b6457e090600090a3565b6001600160a01b0316801561197257600052600360205260406000205490565b60405162461bcd60e51b815260206004820152602a60248201527f4552433732313a2062616c616e636520717565727920666f7220746865207a65604482015269726f206164647265737360b01b6064820152608490fd5b6000908152600260205260409020546001600160a01b031680156119eb5790565b60405162461bcd60e51b815260206004820152602960248201527f4552433732313a206f776e657220717565727920666f72206e6f6e657869737460448201526832b73a103a37b5b2b760b91b6064820152608490fd5b15611a4957565b60405162461bcd60e51b815260206004820152603860248201527f4552433732313a20617070726f76652063616c6c6572206973206e6f74206f776044820152771b995c881b9bdc88185c1c1c9bdd995908199bdc88185b1b60421b6064820152608490fd5b611ab881611c64565b15611ad8576000908152600460205260409020546001600160a01b031690565b60405162461bcd60e51b815260206004820152602c60248201527f4552433732313a20617070726f76656420717565727920666f72206e6f6e657860448201526b34b9ba32b73a103a37b5b2b760a11b6064820152608490fd5b15611b3957565b60405162461bcd60e51b815260206004820152603160248201527f4552433732313a207472616e736665722063616c6c6572206973206e6f74206f6044820152701ddb995c881b9bdc88185c1c1c9bdd9959607a1b6064820152608490fd5b60405190602082018281106001600160401b03821117611bbc575b60405260008252565b611bc4610ad5565b611bb3565b90611bed939291611bdd6105e08433611c81565b611be8838383611e25565b6120ab565b15611bf457565b60405162461bcd60e51b815280611c0d60048201611c11565b0390fd5b60809060208152603260208201527f4552433732313a207472616e7366657220746f206e6f6e20455243373231526560408201527131b2b4bb32b91034b6b83632b6b2b73a32b960711b60608201520190565b6000908152600260205260409020546001600160a01b0316151590565b611c8a82611c64565b15611d0357611c98826119ca565b6001600160a01b038281168282168114949091908515611ceb575b5050508215611cc157505090565b6001600160a01b0316600090815260056020526040902060ff9250611ce691906104f9565b541690565b611cf89192939550611aaf565b161491388080611cb3565b60405162461bcd60e51b815260206004820152602c60248201527f4552433732313a206f70657261746f7220717565727920666f72206e6f6e657860448201526b34b9ba32b73a103a37b5b2b760a11b6064820152608490fd5b15611d6457565b60405162461bcd60e51b8152602060048201526024808201527f4552433732313a207472616e7366657220746f20746865207a65726f206164646044820152637265737360e01b6064820152608490fd5b50634e487b7160e01b600052601160045260246000fd5b60018110611ddc575b6000190190565b611de4611db5565b611dd5565b6001906001198111611df9570190565b611e01611db5565b0190565b6002906002198111611df9570190565b6020906020198111611df9570190565b90611e2f836119ca565b6001600160a01b038381169290918216839003611f1557611e89611eec92821694611e5b861515611d5d565b611e668784836121b2565b611e6f87611f6c565b6001600160a01b0316600090815260036020526040902090565b611e938154611dcc565b90556001600160a01b0381166000908152600360205260409020611eb78154611de9565b9055611ecd856000526002602052604060002090565b80546001600160a01b0319166001600160a01b03909216919091179055565b7fddf252ad1be2c89b69c2b068fc378daa952ba7f163c4a11628f55a4df523b3ef6000604051a4565b60405162461bcd60e51b815260206004820152602960248201527f4552433732313a207472616e73666572206f6620746f6b656e2074686174206960448201526839903737ba1037bbb760b91b6064820152608490fd5b600081815260046020526040812080546001600160a01b03191690556001600160a01b03611f99836119ca565b167f8c5be1e5ebec7d5bd14f71427d1e84f3dd0314c0f7b2291e5b200ac8c7c3b92582604051a4565b600082815260046020526040902080546001600160a01b0319166001600160a01b0383161790556001600160a01b0380611ffb846119ca565b169116907f8c5be1e5ebec7d5bd14f71427d1e84f3dd0314c0f7b2291e5b200ac8c7c3b9256000604051a4565b9081602091031261000e575161031681610210565b6001600160a01b039182168152911660208201526040810191909152608060608201819052610316929101906102e0565b506040513d6000823e3d90fd5b3d156120a6573d9061208c82610b54565b9161209a6040519384610b14565b82523d6000602084013e565b606090565b92909190823b15612165576120de926020926000604051809681958294630a85bd0160e11b9a8b8552336004860161203d565b03926001600160a01b03165af160009181612135575b506121275761210161207b565b805190816121225760405162461bcd60e51b815280611c0d60048201611c11565b602001fd5b6001600160e01b0319161490565b61215791925060203d811161215e575b61214f8183610b14565b810190612028565b90386120f4565b503d612145565b50505050600190565b50634e487b7160e01b600052603260045260246000fd5b9061218f8161230f565b6001600160a01b0382166121a9576121a79150612383565b565b6121a7916122d7565b9091906001600160a01b0380821691826121ec57506121d08361230f565b8316806121e35750506121a79150612383565b036121a9575050565b81851683036121fc575b506121d0565b61227061220882611952565b600181106122ca575b6000190161226160009387855260076020526040852054838103612277575b5084612246896000526007602052604060002090565b556001600160a01b0316600090815260066020526040902090565b90600052602052604060002090565b55386121f6565b8786526006602052604086208487526020526122c36040872054806122b2846122618760018060a01b03166000526006602052604060002090565b556000526007602052604060002090565b5538612230565b6122d2611db5565b612211565b6040906122e381611952565b9260009160018060a01b0316825260066020528282208483526020528083832055815260076020522055565b60085481600052600960205280604060002055600160401b811015612376575b6001810180600855811015612369575b60086000527ff3f7a9fe364faab93b216da50a3214154f22a0a2b415b23a84c8169e8b636ee30155565b61237161216e565b61233f565b61237e610ad5565b61232f565b60086123f981549260018410612458575b6000918183928352600960205260408320546123e86000199780898101101561244b575b8786528881602088200101549083101561243e575b87865280836020882001556000526009602052604060002090565b556000526009602052604060002090565b55815492831561242a57808401938085101561241d575b8383526020832001015555565b61242561216e565b612410565b634e487b7160e01b82526031600452602482fd5b61244661216e565b6123cd565b61245361216e565b6123b8565b612460611db5565b612394565b1561246c57565b60405162461bcd60e51b815260206004820152600c60248201526b444f4e45204d494e54494e4760a01b6044820152606490fd5b156124a757565b60405162461bcd60e51b815260206004820152600a60248201526909c9ea8408a9c9eaa8e960b31b6044820152606490fd5b6103ea9080600019048211811515166124f0570290565b6124f8611db5565b0290565b6001600160fe1b038111600116612514575b60021b90565b61251c611db5565b61250e565b805491600392838355808410612564575b50906000526020806000206000925b84841061254f575050505050565b60018382829351855501920193019290612541565b6000838152846020822092830192015b828110612582575050612532565b818155600101612574565b1561259457565b60405162461bcd60e51b815260206004820152600e60248201526d18dbdd5b19081b9bdd081cd95b9960921b6044820152606490fd5b6001600160a01b03811690811561269d576125e483611c64565b61265857806125f68461262e93612185565b6001600160a01b03811660009081526003602052604090206126188154611de9565b9055611ecd846000526002602052604060002090565b60007fddf252ad1be2c89b69c2b068fc378daa952ba7f163c4a11628f55a4df523b3ef81604051a4565b60405162461bcd60e51b815260206004820152601c60248201527f4552433732313a20746f6b656e20616c7265616479206d696e746564000000006044820152606490fd5b606460405162461bcd60e51b815260206004820152602060248201527f4552433732313a206d696e7420746f20746865207a65726f20616464726573736044820152fd5b156126e857565b60405162461bcd60e51b815260206004820152600660248201526508595e1a5cdd60d21b6044820152606490fd5b90611e01602092828151948592016102ab565b6040519061273682610aec565b6004825263536f636b60e01b6020830152565b60208183031261000e578051906001600160401b03821161000e570181601f8201121561000e57805161277b81610b54565b926127896040519485610b14565b8184526020828401011161000e5761031691602080850191016102ab565b600b60fa1b815260010190565b60405190606082018281106001600160401b038211176127e1575b604052602a8252604082602036910137565b6127e9610ad5565b6127cf565b906127f882610b54565b6128056040519182610b14565b8281528092612816601f1991610b54565b0190602036910137565b90602091805182101561283257010190565b61283a61216e565b010190565b80156128db576000818181805b6128b1575061285a816127ee565b935b6128665750505090565b61286f90611dcc565b90600a906030828206801982116128a4575b0160f81b6001600160f81b031916841a61289b8487612820565b5304908161285c565b6128ac611db5565b612881565b91506001600a9160001981146128ce575b0191048084929161284c565b6128d6611db5565b6128c2565b506040516128e881610aec565b60018152600360fc1b602082015290565b8015611ddc576000190190565b1561290d57565b606460405162461bcd60e51b815260206004820152602060248201527f537472696e67733a20686578206c656e67746820696e73756666696369656e746044820152fd5b6129596127b4565b908151156129f3575b6030602083015381516001908110156129e6575b90607860218401536029915b8083116129955750610316915015612906565b9080600f6129d2921660108110156129d9575b6f181899199a1a9b1b9c1cb0b131b232b360811b901a6129c88587612820565b5360041c926128f9565b9190612982565b6129e161216e565b6129a8565b6129ee61216e565b612976565b6129fb61216e565b612962565b60405190606082018281106001600160401b03821117612a70575b604052604082527f6768696a6b6c6d6e6f707172737475767778797a303132333435363738392b2f6040837f4142434445464748494a4b4c4d4e4f505152535455565758595a61626364656660208201520152565b612a78610ad5565b612a1b565b805115612b5d57612a8c612a00565b612aa8612aa3612a9c8451611e05565b6003900490565b6124fc565b91612aba612ab584611e15565b6127ee565b92835280815182019060208501935b828210612b0b57505050600390510680600114612afa57600214612aeb575090565b603d60f81b6000199091015290565b50613d3d60f01b6001199091015290565b9091936004906003809401938451600190603f9082828260121c16880101518553828282600c1c16880101518386015382828260061c1688010151600286015316850101519082015301939190612ac9565b50610316611b98565b612b6f90612c6c565b610316608160405180937f3c73766720786d6c6e733d22687474703a2f2f7777772e77332e6f72672f323060208301527f30302f737667222077696474683d223130383022206865696768743d2231303860408301527f30222076696577426f783d2230203020313038302031303830223e00000000006060830152612bff815180926020607b860191016102ab565b8101651e17b9bb339f60d11b607b820152036061810184520182610b14565b6040906103169392815281602082015201906102e0565b91612c5e90612c5061031695936060865260608601906102e0565b9084820360208601526102e0565b9160408184039101526102e0565b612d1d612c7882613190565b9193612c8e816000526011602052604060002090565b5490612c998161322a565b9173__$d8604f29f747a182d7154cbbe3703d0759$__612cc3836000526010602052604060002090565b549260409586519763749e421b60e01b89526000898181819c612cef60049b8c83019190602083019252565b0381895af4908115613183575b8291613169575b508951809c819263132ffe9960e31b8352898b8401612c1e565b0381875af4998a1561315c575b899a613140575b5087519a630f500e3b60e41b8c52898c80612d53898b83019190602083019252565b0381885af49b8c15613133575b8a9c6130f4575b5093612e8b97938a612e148b612dea612e449b9784612ed59f9c98819c73__$1a9ce43643d07b5d2d447f788b54f84bee$__958051948d858780612dbd6313f89b4360e31b978883528583019190602083019252565b03818c5af49687156130e7575b86976130c7575b5082518481529081019182529685918891829160200190565b03818a5af49586156130ba575b849661309e575b5051968792839283528d83019190602083019252565b0381865af4938415613091575b8594613075575b508b51635a8289c960e01b81529c8d94859384938c8501612c35565b03915af4978815613068575b8698613046575b50612e6d8691600052600e602052604060002090565b548751809a8192630c0d0b6560e41b83528783019190602083019252565b038173__$468c35549c0d3f0dce3a9aae9298ebcb6b$__5af4978815613039575b8598613019575b50908491865180809b819463c9e3104760e01b83528783019190602083019252565b03915af496871561300c575b8397612fe8575b508351630722ef8960e01b81529081019182529190829081906020015b038173__$b2b9e644a8ce45a89368405a64b815a752$__5af4958615612fdb575b8096612fbe575b50505195869560208701612f4091612716565b7f3c67207472616e73666f726d3d227472616e736c617465283138302c2031333081526214911f60e91b6020820152602301612f7b91612716565b612f8491612716565b612f8d91612716565b631e17b39f60e11b8152600401612fa391612716565b612fac91612716565b03601f19810182526103169082610b14565b612fd39296503d8091833e6113ec8183610b14565b933880612f2d565b612fe361206e565b612f26565b612f059392919750613003903d8085833e6113ec8183610b14565b96909192612ee8565b61301461206e565b612ee1565b8592919850613031903d8085833e6113ec8183610b14565b979091612eb3565b61304161206e565b612eac565b86919850613060612e6d913d8085833e6113ec8183610b14565b989150612e57565b61307061206e565b612e50565b61308a9194503d8087833e6113ec8183610b14565b9238612e28565b61309961206e565b612e21565b6130b39196503d8086833e6113ec8183610b14565b9438612dfe565b6130c261206e565b612df7565b86929197506130df903d8085833e6113ec8183610b14565b969091612dd1565b6130ef61206e565b612dca565b899c50938a809995928197939b989499959b3d8084833e6131158183610b14565b810161312091612749565b9e50929650509397989296919598612d67565b61313b61206e565b612d60565b613155919a503d808b833e6113ec8183610b14565b9838612d31565b61316461206e565b612d2a565b61317d91503d8084833e6113ec8183610b14565b38612d03565b61318b61206e565b612cfc565b61319c610c2782611c64565b600091818352600f6020526040832080541561321d575b8352600260208085205494848152600f825260408120805460011015613210575b81526131f16001838320015495600052600f602052604060002090565b8054841015613203575b815220015490565b61320b61216e565b6131fb565b61321861216e565b6131d4565b61322561216e565b6131b3565b613236610c2782611c64565b60005260126020526040600020549056fea264697066735822122027cde362c073a41c05d4d18f4d45f070deedf9ca0cb5165592c7316cf8ded80464736f6c634300080d0033",
  "libraries": {
    "SockLayoutLibrary": "0xDA7991CB363e76C33cE5dBa42c6ea28B4e8A5ECc",
    "BackgroundLibrary": "0xfeeea43f4D4251BD883b9433762e9101380c6D70",
    "BackgroundMetadataLibrary": "0x5a91980Bec7bE5c2A9ef352AB3320acE93671daD",
    "PinLibrary": "0x05482875e24Bd0FCf6a94dA6480680eCb4D8113D",
    "PinMetadataLibrary": "0xAdcd149C6d927a3ec0993F3E4b316614535c5948",
    "StyleLibrary": "0x07B6009e05Ce1F3FbfBb33b677BB646Daa4504a5",
    "PatternLibrary": "0x4Baf7A213EeB9398bA7f191623335a24f768b418",
    "PatternMetadataLibrary": "0xAC328Cd835BD716f74eA57159308C64d4B9C6162"
  },
  "devdoc": {
    "kind": "dev",
    "methods": {
      "approve(address,uint256)": {
        "details": "See {IERC721-approve}."
      },
      "balanceOf(address)": {
        "details": "See {IERC721-balanceOf}."
      },
      "getApproved(uint256)": {
        "details": "See {IERC721-getApproved}."
      },
      "isApprovedForAll(address,address)": {
        "details": "See {IERC721-isApprovedForAll}."
      },
      "name()": {
        "details": "See {IERC721Metadata-name}."
      },
      "owner()": {
        "details": "Returns the address of the current owner."
      },
      "ownerOf(uint256)": {
        "details": "See {IERC721-ownerOf}."
      },
      "renounceOwnership()": {
        "details": "Leaves the contract without owner. It will not be possible to call `onlyOwner` functions anymore. Can only be called by the current owner. NOTE: Renouncing ownership will leave the contract without an owner, thereby removing any functionality that is only available to the owner."
      },
      "safeTransferFrom(address,address,uint256)": {
        "details": "See {IERC721-safeTransferFrom}."
      },
      "safeTransferFrom(address,address,uint256,bytes)": {
        "details": "See {IERC721-safeTransferFrom}."
      },
      "setApprovalForAll(address,bool)": {
        "details": "See {IERC721-setApprovalForAll}."
      },
      "supportsInterface(bytes4)": {
        "details": "See {IERC165-supportsInterface}."
      },
      "symbol()": {
        "details": "See {IERC721Metadata-symbol}."
      },
      "tokenByIndex(uint256)": {
        "details": "See {IERC721Enumerable-tokenByIndex}."
      },
      "tokenOfOwnerByIndex(address,uint256)": {
        "details": "See {IERC721Enumerable-tokenOfOwnerByIndex}."
      },
      "totalSupply()": {
        "details": "See {IERC721Enumerable-totalSupply}."
      },
      "transferFrom(address,address,uint256)": {
        "details": "See {IERC721-transferFrom}."
      },
      "transferOwnership(address)": {
        "details": "Transfers ownership of the contract to a new account (`newOwner`). Can only be called by the current owner."
      }
    },
    "version": 1
  },
  "userdoc": {
    "kind": "user",
    "methods": {},
    "version": 1
  },
  "storageLayout": {
    "storage": [
      {
        "astId": 130,
        "contract": "contracts/ThisSocks.sol:ThisSocks",
        "label": "_name",
        "offset": 0,
        "slot": "0",
        "type": "t_string_storage"
      },
      {
        "astId": 132,
        "contract": "contracts/ThisSocks.sol:ThisSocks",
        "label": "_symbol",
        "offset": 0,
        "slot": "1",
        "type": "t_string_storage"
      },
      {
        "astId": 136,
        "contract": "contracts/ThisSocks.sol:ThisSocks",
        "label": "_owners",
        "offset": 0,
        "slot": "2",
        "type": "t_mapping(t_uint256,t_address)"
      },
      {
        "astId": 140,
        "contract": "contracts/ThisSocks.sol:ThisSocks",
        "label": "_balances",
        "offset": 0,
        "slot": "3",
        "type": "t_mapping(t_address,t_uint256)"
      },
      {
        "astId": 144,
        "contract": "contracts/ThisSocks.sol:ThisSocks",
        "label": "_tokenApprovals",
        "offset": 0,
        "slot": "4",
        "type": "t_mapping(t_uint256,t_address)"
      },
      {
        "astId": 150,
        "contract": "contracts/ThisSocks.sol:ThisSocks",
        "label": "_operatorApprovals",
        "offset": 0,
        "slot": "5",
        "type": "t_mapping(t_address,t_mapping(t_address,t_bool))"
      },
      {
        "astId": 1084,
        "contract": "contracts/ThisSocks.sol:ThisSocks",
        "label": "_ownedTokens",
        "offset": 0,
        "slot": "6",
        "type": "t_mapping(t_address,t_mapping(t_uint256,t_uint256))"
      },
      {
        "astId": 1088,
        "contract": "contracts/ThisSocks.sol:ThisSocks",
        "label": "_ownedTokensIndex",
        "offset": 0,
        "slot": "7",
        "type": "t_mapping(t_uint256,t_uint256)"
      },
      {
        "astId": 1091,
        "contract": "contracts/ThisSocks.sol:ThisSocks",
        "label": "_allTokens",
        "offset": 0,
        "slot": "8",
        "type": "t_array(t_uint256)dyn_storage"
      },
      {
        "astId": 1095,
        "contract": "contracts/ThisSocks.sol:ThisSocks",
        "label": "_allTokensIndex",
        "offset": 0,
        "slot": "9",
        "type": "t_mapping(t_uint256,t_uint256)"
      },
      {
        "astId": 7,
        "contract": "contracts/ThisSocks.sol:ThisSocks",
        "label": "_owner",
        "offset": 0,
        "slot": "10",
        "type": "t_address"
      },
      {
        "astId": 5392,
        "contract": "contracts/ThisSocks.sol:ThisSocks",
        "label": "_tokenIds",
        "offset": 0,
        "slot": "11",
        "type": "t_struct(Counter)1790_storage"
      },
      {
        "astId": 5398,
        "contract": "contracts/ThisSocks.sol:ThisSocks",
        "label": "mintDeadline",
        "offset": 0,
        "slot": "12",
        "type": "t_uint256"
      },
      {
        "astId": 5413,
        "contract": "contracts/ThisSocks.sol:ThisSocks",
        "label": "price",
        "offset": 0,
        "slot": "13",
        "type": "t_uint256"
      },
      {
        "astId": 5417,
        "contract": "contracts/ThisSocks.sol:ThisSocks",
        "label": "tokenPin",
        "offset": 0,
        "slot": "14",
        "type": "t_mapping(t_uint256,t_uint256)"
      },
      {
        "astId": 5422,
        "contract": "contracts/ThisSocks.sol:ThisSocks",
        "label": "sockColors",
        "offset": 0,
        "slot": "15",
        "type": "t_mapping(t_uint256,t_array(t_uint256)dyn_storage)"
      },
      {
        "astId": 5426,
        "contract": "contracts/ThisSocks.sol:ThisSocks",
        "label": "sockBackgroundColor",
        "offset": 0,
        "slot": "16",
        "type": "t_mapping(t_uint256,t_uint256)"
      },
      {
        "astId": 5430,
        "contract": "contracts/ThisSocks.sol:ThisSocks",
        "label": "sockBackgroundType",
        "offset": 0,
        "slot": "17",
        "type": "t_mapping(t_uint256,t_uint256)"
      },
      {
        "astId": 5434,
        "contract": "contracts/ThisSocks.sol:ThisSocks",
        "label": "sockPatterns",
        "offset": 0,
        "slot": "18",
        "type": "t_mapping(t_uint256,t_uint256)"
      }
    ],
    "types": {
      "t_address": {
        "encoding": "inplace",
        "label": "address",
        "numberOfBytes": "20"
      },
      "t_array(t_uint256)dyn_storage": {
        "base": "t_uint256",
        "encoding": "dynamic_array",
        "label": "uint256[]",
        "numberOfBytes": "32"
      },
      "t_bool": {
        "encoding": "inplace",
        "label": "bool",
        "numberOfBytes": "1"
      },
      "t_mapping(t_address,t_bool)": {
        "encoding": "mapping",
        "key": "t_address",
        "label": "mapping(address => bool)",
        "numberOfBytes": "32",
        "value": "t_bool"
      },
      "t_mapping(t_address,t_mapping(t_address,t_bool))": {
        "encoding": "mapping",
        "key": "t_address",
        "label": "mapping(address => mapping(address => bool))",
        "numberOfBytes": "32",
        "value": "t_mapping(t_address,t_bool)"
      },
      "t_mapping(t_address,t_mapping(t_uint256,t_uint256))": {
        "encoding": "mapping",
        "key": "t_address",
        "label": "mapping(address => mapping(uint256 => uint256))",
        "numberOfBytes": "32",
        "value": "t_mapping(t_uint256,t_uint256)"
      },
      "t_mapping(t_address,t_uint256)": {
        "encoding": "mapping",
        "key": "t_address",
        "label": "mapping(address => uint256)",
        "numberOfBytes": "32",
        "value": "t_uint256"
      },
      "t_mapping(t_uint256,t_address)": {
        "encoding": "mapping",
        "key": "t_uint256",
        "label": "mapping(uint256 => address)",
        "numberOfBytes": "32",
        "value": "t_address"
      },
      "t_mapping(t_uint256,t_array(t_uint256)dyn_storage)": {
        "encoding": "mapping",
        "key": "t_uint256",
        "label": "mapping(uint256 => uint256[])",
        "numberOfBytes": "32",
        "value": "t_array(t_uint256)dyn_storage"
      },
      "t_mapping(t_uint256,t_uint256)": {
        "encoding": "mapping",
        "key": "t_uint256",
        "label": "mapping(uint256 => uint256)",
        "numberOfBytes": "32",
        "value": "t_uint256"
      },
      "t_string_storage": {
        "encoding": "bytes",
        "label": "string",
        "numberOfBytes": "32"
      },
      "t_struct(Counter)1790_storage": {
        "encoding": "inplace",
        "label": "struct Counters.Counter",
        "members": [
          {
            "astId": 1789,
            "contract": "contracts/ThisSocks.sol:ThisSocks",
            "label": "_value",
            "offset": 0,
            "slot": "0",
            "type": "t_uint256"
          }
        ],
        "numberOfBytes": "32"
      },
      "t_uint256": {
        "encoding": "inplace",
        "label": "uint256",
        "numberOfBytes": "32"
      }
    }
  }
}