{
  "_format": "hh-sol-artifact-1",
  "contractName": "FlowerBackground",
  "sourceName": "contracts/SockBackground/AdditionalBackgrounds/FlowerBackground.sol",
  "abi": [
    {
      "inputs": [
        {
          "internalType": "string",
          "name": "backgroundColor",
          "type": "string"
        }
      ],
      "name": "background",
      "outputs": [
        {
          "internalType": "string",
          "name": "",
          "type": "string"
        }
      ],
      "stateMutability": "pure",
      "type": "function"
    }
  ],
  "bytecode": "0x6080806040523461001a576118fa9081610020823930815050f35b600080fdfe6080604052600436101561001257600080fd5b6000803560e01c63c8e70eab146100295750600080fd5b60203660031901126100c95760043567ffffffffffffffff8082116100c557366023830112156100c55781600401359081116100b8575b60405191610078601f8301601f1916602001846100e3565b81835236602483830101116100b457926020826100a4949360246100b0970183860137830101526101e4565b60405191829182610147565b0390f35b8380fd5b6100c06100cc565b610060565b8280fd5b80fd5b50634e487b7160e01b600052604160045260246000fd5b90601f8019910116810190811067ffffffffffffffff82111761010557604052565b61010d6100cc565b604052565b918091926000905b82821061013257501161012b575050565b6000910152565b9150806020918301518186015201829161011a565b604091602082526101678151809281602086015260208686019101610112565b601f01601f1916010190565b7f2020202020202020203c706174682066696c6c2d72756c653d226576656e6f6481527532111031b634b816b93ab6329e9132bb32b737b2321160511b602082015260360190565b7f2020202020202020202020202066696c6c3d22776869746522202f3e000000008152601c0190565b6040518091602082017f3c726563742077696474683d223130383022206865696768743d22313038302290526710103334b6361e9160c11b60408301528051908160488401916020019161023792610112565b601160f91b6048918301918201526210179f60e91b60498201527f20202020203c67207472616e73666f726d3d227472616e736c61746528313030604c82015265161c9814911f60d11b606c82015260720161029290610173565b7f20202020202020202020202020643d224d3138322e3935322037312e3539373681527f433139312e3938392037312e35393736203139392e3331352037382e3935323960208201527f203139392e3331352038382e30323631433139392e3331352039372e3039393360408201527f203138352e3939203131332e393533203138322e393532203131332e3935334360608201527f3137392e393134203131332e393533203136362e3538392039372e303939332060808201527f3136362e3538392038382e30323631433136362e3538392037382e393532392060a08201527f3137332e3931352037312e35393736203138322e3935322037312e353937365a60c08201527f4d3135352e363136203135352e393637433134382e333035203135302e36333460e08201527f203134362e363834203134302e3336203135312e393936203133332e303243316101008201527f35372e333038203132352e3638203137382e343732203132302e3938342031386101208201527f312e353835203132322e383835433138332e373235203132362e3138322031386101408201527f332e373833203134342e393932203137382e343732203135322e3333334331376101608201527f332e3136203135392e363733203136322e393237203136312e33203135352e366101808201527f3136203135352e3936375a4d3231332e393631203133332e3032433231392e326101a08201527f3733203134302e3336203231372e363532203135302e363334203231302e33346101c08201527f31203135352e393637433230332e3033203136312e33203139322e37393720316101e08201527f35392e363733203138372e343835203135322e333333433138322e31373320316102008201527f34342e393932203138312e353835203132352e373239203138352e34383420316102208201527f32322e383835433138392e383738203131392e3638203230382e3634392031326102408201527f352e3638203231332e393631203133332e30325a4d3133382e363938203130336102608201527f2e373939433134312e34392039352e3137203135302e3732312039302e3434376102808201527f36203135392e3331362039332e32353134433136372e3931312039362e3035356102a08201527f32203138312e353835203131332e393533203137382e343732203131382e38316102c08201527f38433137352e323532203132332e383438203135372e373938203132372e33306102e08201527f34203134392e323033203132342e35433134302e363039203132312e363936206103008201527f3133352e393035203131322e343238203133382e363938203130332e3739395a6103208201527f4d3230362e3537362039332e32353134433231352e3137312039302e343437366103408201527f203232342e3430322039352e3137203232372e313935203130332e37393943326103608201527f32392e393837203131322e343238203232352e323834203132312e36393620326103808201527f31362e363839203132342e35433230382e303935203132372e333034203138386103a08201527f2e333933203132312e353337203138372e343835203131382e383138433138356103c08201527f2e343834203131322e383233203139372e3938322039362e30353532203230366103e08201526d171a9b9b101c9997191a989a2d1160911b61040082015261040e0161078c906101bb565b7f2020202020202020203c636972636c652063783d223138322e3531332220637981527f3d223131382e3831382220723d2231362e38393532222066696c6c3d22234644602082015267232321219110179f60c11b60408201526048016107f290610173565b7f20202020202020202020202020643d224d3134302e3736203839342e3935384381527f3133332e353538203930302e343137203132332e323737203839382e3938203160208201527f31372e373937203839312e373439433131322e333136203838342e353138203160408201527f31322e373535203836332e303338203131352e313736203836312e323033433160608201527f31372e353937203835392e333638203133382e333937203836342e373531203160808201527f34332e383737203837312e393831433134392e333538203837392e323132203160a08201527f34372e393633203838392e343939203134302e3736203839342e3935385a4d3160c08201527f31312e353833203831312e323037433132302e363331203831312e303431203160e08201527f32382e313238203831382e3235203132382e333239203832372e3330394331326101008201527f382e3533203833362e333637203131342e35203835322e383933203131302e386101208201527f3639203835332e323539433130372e313733203835312e3932342039352e37366101408201527f3432203833362e3936382039352e35363333203832372e39314339352e3336326101608201527f37203831382e383531203130322e353335203831312e333733203131312e35386101808201527f33203831312e3230375a4d37382e393436203836342e3733384337302e3237386101a08201527f38203836322e3039372036352e33363434203835322e39332036372e393639376101c08201527f203834342e3236344337302e35373438203833352e3539372037392e373132386101e08201527f203833302e3731332038382e33373938203833332e3335344339372e303437206102008201527f3833352e393936203130392e313532203835302e393933203130372e373632206102208201527f3835352e363134433130362e313937203836302e3832322038372e36313320386102408201527f36372e33382037382e393436203836342e3733385a4d3135362e3537382038346102608201527f322e353634433135392e353635203835312e313237203135352e3036203836306102808201527f2e343637203134362e353137203836332e343234433133372e393734203836366102a08201527f2e333831203131362e323635203836302e333738203131352e383038203835346102c08201527f2e3632433131352e333335203834382e363636203132372e313538203833352e6102e08201527f333639203133352e373031203833322e343132433134342e323434203832392e6103008201527f343535203135332e35393120383334203135362e353738203834322e3536345a6103208201527f4d3130382e383533203839312e393731433130332e363937203839392e3339376103408201527f2039332e34383736203930312e32312038362e30343938203839362e303243376103608201527f382e36313137203839302e3832392037362e373632203838302e3630322038316103808201527f2e39313738203837332e3137364338372e30373339203836352e3735203130366103a08201527f2e323538203835382e343435203130382e363235203836302e303634433131336103c08201527f2e3834203836332e363333203131342e303039203838342e353435203130382e6103e08201526c1c1a99901c1c98971c9b98ad1160991b61040082015261040d01610ceb906101bb565b7f2020202020202020203c636972636c652063783d223131322e3538372220637981527f3d223835372e3036312220723d2231362e3839353222207472616e73666f726d60208201527f3d22726f74617465283134322e3834203131322e353837203835372e3036312960408201527211103334b6361e9111a322232321219110179f60691b6060820152607301610d8290610173565b7f20202020202020202020202020643d224d36382e39353433202d392e3130343181527f34652d30354338322e37383337202d392e3130343134652d30352039332e393960208201527f34342031312e323535372039332e393934342032352e313430354339332e393960408201527f34342033392e303235322037332e3630332036342e383135382036382e39353460608201527f332036342e383135384336342e333035352036342e383135382034332e39313460808201527f322033392e303235322034332e393134322032352e313430354334332e39313460a08201527f322031312e323535372035352e31323439202d392e3130343134652d3035203660c08201527f382e39353433202d392e3130343134652d30355a4d32372e313231392031323960e08201527f2e3131314331352e39333338203132302e39352031332e34353336203130352e6101008201527f3232382032312e353832322039332e393934384332392e373130382038322e376101208201527f3631372036322e303938322037352e353735352036362e383633342037382e346101408201527f3835334337302e313337332038332e353330382037302e32323635203131322e6101608201527f3331362036322e30393832203132332e3534394335332e39363933203133342e6101808201527f3738322033382e3331203133372e3237322032372e31323139203132392e31316101a08201527f315a4d3131362e3430372039332e39393438433132342e353336203130352e326101c08201527f3238203132322e303536203132302e3935203131302e383638203132392e31316101e08201527f314339392e36373938203133372e3237322038342e30323033203133342e37386102008201527f322037352e383932203132332e3534394336372e37363332203131322e3331366102208201527f2036362e383633342038322e383337342037322e383239392037382e343835336102408201527f4337392e353533322037332e35383132203130382e3237392038322e373631376102608201527f203131362e3430372039332e393934385a4d312e32333230312034392e3237376102808201527f3943352e35303534392033362e303732392031392e363331392032382e3834366102a08201527f322033322e373834342033332e313336384334352e393336382033372e3432376102c08201527f342036362e383633342036342e383135382036322e303938322037322e3236306102e08201527f374335372e313730382037392e3935392033302e343631312038352e323437356103008201527f2031372e333038372038302e3935363843342e31353633312037362e363636326103208201527f202d332e30343134372036322e3438333420312e32333230312034392e3237376103408201527f395a4d3130352e3130372033332e31333638433131382e32362032382e3834366103608201527f32203133322e3338362033362e30373239203133362e36362034392e323737396103808201527f433134302e3933332036322e34383334203133332e3733352037362e363636326103a08201527f203132302e3538332038302e39353638433130372e34332038352e32343735206103c08201527f37372e323831332037362e343232372037352e3839322037322e3236303743376103e08201527f322e383239392036332e303837332039312e3935352033372e343237342031306104008201526e1a9718981b9019999718999b1c2d1160891b61042082015261042f016112a4906101bb565b7f2020202020202020203c636972636c652063783d2236382e323833222063793d81527f2237322e3236312220723d2232352e38353438222066696c6c3d22234644464660208201526521219110179f60d11b604082015260460161130890610173565b7f20202020202020202020202020643d224d3836312e393533203834352e37343481527f433835302e393332203835342e303937203833352e313938203835312e38393960208201527f203832362e383131203834302e383333433831382e343234203832392e37363860408201527f203831392e303937203739362e383937203832322e383032203739342e30383960608201527f433832362e353036203739312e323831203835382e333336203739392e35313760808201527f203836362e373233203831302e353833433837352e3131203832312e3634382060a08201527f3837322e393734203833372e3339203836312e393533203834352e3734345a4d60c08201527f3831372e333033203731372e3538433833312e313439203731372e333236203860e08201527f34322e363232203732382e333537203834322e393239203734322e32324338346101008201527f332e323337203735362e303832203832312e373636203738312e3337322038316101208201527f362e323131203738312e393332433831302e353534203737392e3838382037396101408201527f332e303935203735372e303031203739322e373838203734332e3133394337396101608201527f322e343831203732392e323737203830332e343537203731372e3833342038316101808201527f372e333033203731372e35385a4d3736372e333538203739392e3439384337356101a08201527f342e303935203739352e343536203734362e353734203738312e3432382037356101c08201527f302e353631203736382e313636433735342e353438203735342e3930342037366101e08201527f382e353332203734372e343239203738312e373935203735312e3437314337396102008201527f352e303538203735352e353134203831332e353832203737382e3436332038316102208201527f312e343536203738352e353336433830392e3036203739332e353035203738306102408201527f2e363231203830332e353431203736372e333538203739392e3439385a4d38386102608201527f362e313538203736352e353634433839302e373239203737382e3636392038386102808201527f332e383336203739322e393632203837302e373633203739372e3438374338356102a08201527f372e363839203830322e303132203832342e343638203739322e3832362038326102c08201527f332e373638203738342e303134433832332e303435203737342e3930322038346102e08201527f312e313337203735342e353534203835342e323131203735302e3032394338366103008201527f372e323834203734352e353034203838312e353837203735322e3435392038386103208201527f362e313538203736352e3536345a4d3831332e313235203834312e31373343386103408201527f30352e323334203835322e353337203738392e363131203835352e33313120376103608201527f37382e323239203834372e333639433736362e383437203833392e34323620376103808201527f36342e303136203832332e373735203737312e393036203831322e34313143376103a08201527f37392e373936203830312e303437203830392e313534203738392e38363820386103c08201527f31322e373735203739322e333436433832302e373537203739372e38303720386103e08201527f32312e303135203832392e383039203831332e313235203834312e3137335a2261040082015261042001611811906101bb565b7f2020202020202020203c636972636c652063783d223831382e3833392220637981527f3d223738372e37352220723d2232352e3835343822207472616e73666f726d3d60208201527f22726f74617465283134322e3834203831382e383339203738372e37352922206040820152703334b6361e9111a322232321219110179f60791b60608201526071016810101010101e17b39f60b91b815260090103601f19810182526118c190826100e3565b9056fea264697066735822122034677dfaaae47c76c6bf8f31af4908fccf99ab2332764f4f6a68731d4eadf2b564736f6c634300080d0033",
  "linkReferences": {},
  "deployedLinkReferences": {}
}