{
  "_format": "hh-sol-artifact-1",
  "contractName": "PatternMetadataLibrary",
  "sourceName": "contracts/SockPattern/PatternMetadataLibrary.sol",
  "abi": [
    {
      "inputs": [
        {
          "internalType": "uint256",
          "name": "currentPattern",
          "type": "uint256"
        }
      ],
      "name": "GetPatternMetadata",
      "outputs": [
        {
          "internalType": "string",
          "name": "",
          "type": "string"
        }
      ],
      "stateMutability": "pure",
      "type": "function"
    },
    {
      "inputs": [
        {
          "internalType": "uint256",
          "name": "currentPattern",
          "type": "uint256"
        }
      ],
      "name": "GetPatternText",
      "outputs": [
        {
          "internalType": "string",
          "name": "",
          "type": "string"
        }
      ],
      "stateMutability": "pure",
      "type": "function"
    }
  ],
  "bytecode": "0x6080806040523461001a576109659081610020823930815050f35b600080fdfe6080604052600436101561001257600080fd5b60003560e01c80635cb9c285146100565763d557b2861461003257600080fd5b6100526100466100413661006a565b610840565b60405191829182610081565b0390f35b6100526100466100653661006a565b61057e565b602090600319011261007c5760043590565b600080fd5b919091602080825283519081818401526000945b8286106100c25750508060409394116100b5575b601f01601f1916010190565b60008382840101526100a9565b8581018201518487016040015294810194610095565b50634e487b7160e01b600052604160045260246000fd5b60405190606082018281106001600160401b03821117610113575b60405260288252565b61011b6100d8565b61010a565b60405190606082018281106001600160401b03821117610144575b60405260298252565b61014c6100d8565b61013b565b60405190606082018281106001600160401b03821117610175575b604052602c8252565b61017d6100d8565b61016c565b60405190606082018281106001600160401b038211176101a6575b604052602a8252565b6101ae6100d8565b61019d565b60405190604082018281106001600160401b038211176101d7575b60405260048252565b6101df6100d8565b6101ce565b60405190604082018281106001600160401b03821117610208575b60405260058252565b6102106100d8565b6101ff565b60405190604082018281106001600160401b03821117610239575b60405260088252565b6102416100d8565b610230565b60405190604082018281106001600160401b0382111761026a575b60405260068252565b6102726100d8565b610261565b61027f6100ef565b6000805160206109108339815191526020820152673a224e6f6e65227d60c01b604082015290565b6102af6100ef565b6000805160206109108339815191526020820152673a2255666f73227d60c01b604082015290565b60405190606082018281106001600160401b03821117610324575b6040908152602b835260008051602061091083398151915260208401526a3a2253747269706573227d60a81b90830152565b61032c6100d8565b6102f2565b610339610120565b6000805160206109108339815191526020820152683a225374617273227d60b81b604082015290565b61036a610151565b60008051602061091083398151915260208201526b3a225261696e626f7773227d60a01b604082015290565b61039e610151565b60008051602061091083398151915260208201526b3a224c69676874696e67227d60a01b604082015290565b6103d2610182565b6000805160206109108339815191526020820152693a224c656d6f6e73227d60b01b604082015290565b610404610182565b6000805160206109108339815191526020820152693a22486561727473227d60b01b604082015290565b60405190606082018281106001600160401b0382111761047f575b6040908152602f835260008051602061091083398151915260208401526e3a224865617274427265616b73227d60881b90830152565b6104876100d8565b610449565b6104946100ef565b6000805160206109108339815191526020820152673a2246697265227d60c01b604082015290565b6104c4610182565b6000805160206109108339815191526020820152693a22436c6f756473227d60b01b604082015290565b60405190606082018281106001600160401b03821117610540575b60409081526030835260008051602061091083398151915260208401526f3a224368696c6c69205061706572227d60801b90830152565b6105486100d8565b610509565b610555610120565b6000805160206109108339815191526020820152683a22426f6e6573227d60b81b604082015290565b8061058f575061058c61054d565b90565b600181036105a0575061058c6104ee565b600281036105b1575061058c6104bc565b600381036105c2575061058c61048c565b600481036105d3575061058c61042e565b600581036105e4575061058c6103fc565b600681036105f5575061058c6103ca565b60078103610606575061058c610396565b60088103610617575061058c610362565b60098103610628575061058c610331565b600a8103610639575061058c6102d7565b600b036106485761058c6102a7565b61058c610277565b60405190604082018281106001600160401b0382111761067f575b60405260028252614e6f60f01b6020830152565b6106876100d8565b61066b565b6106946101b3565b906355666f7360e01b6020830152565b60405190604082018281106001600160401b038211176106d8575b60405260078252665374726970657360c81b6020830152565b6106e06100d8565b6106bf565b6106ed6101e4565b9064537461727360d81b6020830152565b610706610215565b90675261696e626f777360c01b6020830152565b610722610215565b90674c69676874696e6760c01b6020830152565b61073e610246565b90654c656d6f6e7360d01b6020830152565b610758610246565b906548656172747360d01b6020830152565b60405190604082018281106001600160401b038211176107a2575b604052600b82526a4865617274427265616b7360a81b6020830152565b6107aa6100d8565b610785565b6107b76101b3565b90634669726560e01b6020830152565b6107cf610246565b9065436c6f75647360d01b6020830152565b60405190604082018281106001600160401b0382111761081a575b604052600c82526b21b434b63634902830b832b960a11b6020830152565b6108226100d8565b6107fc565b61082f6101e4565b9064426f6e657360d81b6020830152565b8061084e575061058c610827565b6001810361085f575061058c6107e1565b60028103610870575061058c6107c7565b60038103610881575061058c6107af565b60048103610892575061058c61076a565b600581036108a3575061058c610750565b600681036108b4575061058c610736565b600781036108c5575061058c61071a565b600881036108d6575061058c6106fe565b600981036108e7575061058c6106e5565b600a81036108f8575061058c6106a4565b600b036109075761058c61068c565b61058c61065056fe7b2274726169745f74797065223a225061747465726e222c202276616c756522a2646970667358221220f0a2081e0ded1be6f0400e0dedca5ba5cff5bc5e1bd7b89da7960622ffad472a64736f6c634300080d0033",
  "linkReferences": {},
  "deployedLinkReferences": {}
}