{
  "_format": "hh-sol-artifact-1",
  "contractName": "PatternMetadataLibrary",
  "sourceName": "contracts/SockPattern/PatternMetadataLibrary.sol",
  "abi": [
    {
      "inputs": [
        {
          "internalType": "uint256",
          "name": "currentPattern",
          "type": "uint256"
        }
      ],
      "name": "GetPatternMetadata",
      "outputs": [
        {
          "internalType": "string",
          "name": "",
          "type": "string"
        }
      ],
      "stateMutability": "pure",
      "type": "function"
    }
  ],
  "bytecode": "0x6080806040523461001a576105a89081610020823930815050f35b600080fdfe604060808152600436101561001357600080fd5b60003560e01c635cb9c2851461002857600080fd5b6020908160031936011261009957610041600435610480565b91815192818492835281519182828501526000915b8383106100815750508110610074575b601f01601f19168101030190f35b6000838284010152610066565b81830181015187840187015286945091820191610056565b600080fd5b50634e487b7160e01b600052604160045260246000fd5b60405190606082018281106001600160401b038211176100d9575b60405260288252565b6100e161009e565b6100d0565b60405190606082018281106001600160401b0382111761010a575b60405260298252565b61011261009e565b610101565b60405190606082018281106001600160401b0382111761013b575b604052602c8252565b61014361009e565b610132565b60405190606082018281106001600160401b0382111761016c575b604052602a8252565b61017461009e565b610163565b6101816100b5565b6000805160206105538339815191526020820152673a224e6f6e65227d60c01b604082015290565b6101b16100b5565b6000805160206105538339815191526020820152673a2255666f73227d60c01b604082015290565b60405190606082018281106001600160401b03821117610226575b6040908152602b835260008051602061055383398151915260208401526a3a2253747269706573227d60a81b90830152565b61022e61009e565b6101f4565b61023b6100e6565b6000805160206105538339815191526020820152683a225374617273227d60b81b604082015290565b61026c610117565b60008051602061055383398151915260208201526b3a225261696e626f7773227d60a01b604082015290565b6102a0610117565b60008051602061055383398151915260208201526b3a224c69676874696e67227d60a01b604082015290565b6102d4610148565b6000805160206105538339815191526020820152693a224c656d6f6e73227d60b01b604082015290565b610306610148565b6000805160206105538339815191526020820152693a22486561727473227d60b01b604082015290565b60405190606082018281106001600160401b03821117610381575b6040908152602f835260008051602061055383398151915260208401526e3a224865617274427265616b73227d60881b90830152565b61038961009e565b61034b565b6103966100b5565b6000805160206105538339815191526020820152673a2246697265227d60c01b604082015290565b6103c6610148565b6000805160206105538339815191526020820152693a22436c6f756473227d60b01b604082015290565b60405190606082018281106001600160401b03821117610442575b60409081526030835260008051602061055383398151915260208401526f3a224368696c6c69205061706572227d60801b90830152565b61044a61009e565b61040b565b6104576100e6565b6000805160206105538339815191526020820152683a22426f6e6573227d60b81b604082015290565b80610491575061048e61044f565b90565b600181036104a2575061048e6103f0565b600281036104b3575061048e6103be565b600381036104c4575061048e61038e565b600481036104d5575061048e610330565b600581036104e6575061048e6102fe565b600681036104f7575061048e6102cc565b60078103610508575061048e610298565b60088103610519575061048e610264565b6009810361052a575061048e610233565b600a810361053b575061048e6101d9565b600b0361054a5761048e6101a9565b61048e61017956fe7b2274726169745f74797065223a225061747465726e222c202276616c756522a2646970667358221220e0dd292f1e25e208aea999785a700518b85e324ed2048d12928b594dd099f94d64736f6c634300080d0033",
  "linkReferences": {},
  "deployedLinkReferences": {}
}