{
  "_format": "hh-sol-artifact-1",
  "contractName": "RugBackground",
  "sourceName": "contracts/SockBackground/AdditionalBackgrounds/RugBackground.sol",
  "abi": [
    {
      "inputs": [
        {
          "internalType": "string",
          "name": "backgroundColor",
          "type": "string"
        }
      ],
      "name": "background",
      "outputs": [
        {
          "internalType": "string",
          "name": "",
          "type": "string"
        }
      ],
      "stateMutability": "pure",
      "type": "function"
    }
  ],
  "bytecode": "0x6080806040523461001a576108659081610020823930815050f35b600080fdfe6080604052600436101561001257600080fd5b6000803560e01c63c8e70eab146100295750600080fd5b60203660031901126100c95760043567ffffffffffffffff8082116100c557366023830112156100c55781600401359081116100b8575b60405191610078601f8301601f1916602001846100e3565b81835236602483830101116100b457926020826100a4949360246100b097018386013783010152610173565b60405191829182610147565b0390f35b8380fd5b6100c06100cc565b610060565b8280fd5b80fd5b50634e487b7160e01b600052604160045260246000fd5b90601f8019910116810190811067ffffffffffffffff82111761010557604052565b61010d6100cc565b604052565b918091926000905b82821061013257501161012b575050565b6000910152565b9150806020918301518186015201829161011a565b604091602082526101678151809281602086015260208686019101610112565b601f01601f1916010190565b61082c607f9161081e6108096107af6104bb6104a16104786040519889977f3c726563742077696474683d223130383022206865696768743d22313038302260208a01526710103334b6361e9160c11b60408a01526101dc81518092602060488d019101610112565b601160f91b6048918a01918201526210179f60e91b60498201527f20202020203c67207472616e73666f726d3d227472616e736c61746528343730604c82015264161814911f60d91b606c8201526d040404040404040404078e0c2e8d60931b60718201527f20202020202020202020202020643d224d3531342e363039203537352e35433591019081527f30352e303039203632352e39203538352e313039203635312e35203539372e3660208201527f303920363030483630372e313039563448372e3130393338432d352e3639303660408201527f312033342032342e313039342034372e352034302e363039342035302e35433660608201527f2e3230393335203130372e372035342e39343237203132362e3333332038332e60808201527f36303934203132382e354335382e30303934203137302e392038352e3934323760a08201527f203138392e313637203130332e313039203139334339302e333039342032333460c08201527f2e36203132312e34343320323431203133382e36303920323339433132372e3060e08201527f3039203330372e34203138322e343433203332392e35203231312e36303920336101008201527f3332433230372e323039203339342e38203236352e343433203430382e3520326101208201527f39352e313039203430372e35433331322e373039203436372e39203335392e346101408201527f343320343632203338302e363039203435312e35433336312e343039203530346101608201527f2e33203430342e393433203532352e35203432392e313039203532392e3543346101808201527f34342e373039203538392e39203439322e363039203538352e333333203531346101a08201526b171b181c901a9b9a971aad1160a11b6101c08201526101cc0190565b7f2020202020202020202020202066696c6c3d222346464436463122202f3e00008152601e0190565b6d040404040404040404078e0c2e8d60931b8152600e0190565b7f20202020202020202020202020643d224d3136362e352035382e35433136362e81527f35203336203232382e35203430203232382e35203731433233382e323937203660208201527f312e36363637203236312e3631332035302e36203237362e352038314d34323960408201527f2e31303920323339433433312e3234203232332e363637203434342e3920313960608201527f382e34203438322e3520323230433439332e35203230332e35203532312e392060808201527f3138302e34203534372e35203232304d3539372e36303920363030433538352e60a08201527f313039203635312e35203530352e303039203632352e39203531342e3630392060c08201527f3537352e35433439322e363039203538352e333333203434342e37303920353860e08201527f392e39203432392e313039203532392e35433430342e393433203532352e35206101008201527f3336312e343039203530342e33203338302e363039203435312e35433335392e6101208201527f34343320343632203331322e373039203436372e39203239352e3130392034306101408201527f372e35433236352e343433203430382e35203230372e323039203339342e38206101608201527f3231312e36303920333332433138322e343433203332392e35203132372e30306101808201527f39203330372e34203133382e36303920323339433132312e34343320323431206101a08201527f39302e33303934203233342e36203130332e313039203139334338352e3934326101c08201527f37203138392e3136372035382e30303934203137302e392038332e36303934206101e08201527f3132382e354335342e39343237203132362e33333320362e32303933372031306102008201527f372e372034302e363039342035302e354332342e313039342034372e35202d356102208201527f2e363930363320333420372e31303933382034483630372e3130395636303048610240820152681a9c9b971b181cad1160b91b6102608201526102690190565b7f202020202020202020202020207374726f6b653d22234644413246342220666981527f6c6c2d6f7061636974793d223022207374726f6b652d77696474683d22382220602082015261179f60f11b604082015260420190565b6810101010101e17b39f60b91b815260090190565b03601f1981018352826100e3565b9056fea2646970667358221220ae5faa9e779a4cfcd436abe5643e6f2bb6e3ccc672b301207e4a13fd7def4bc664736f6c634300080d0033",
  "linkReferences": {},
  "deployedLinkReferences": {}
}